:100000000C9476000C948F000C948F000C948F004D
:100010000C948F000C948F000C948F000C948F0024
:100020000C948F000C948F000C948F000C948F0014
:100030000C948F000C948F000C948F000C948F0004
:100040000C948F000C948F000C948F000C948F00F4
:100050000C948F000C948F000C948F000C948F00E4
:100060000C948F000C948F000C948F000C948F00D4
:100070000C948F000C948F000C948F000C948F00C4
:100080000C948F000C948F000C948F000C948F00B4
:100090000C948F000C948F000C948F000C948F00A4
:1000A0000C948F000C948F000C948F000C948F0094
:1000B0000C948F000C948F000C948F000C948F0084
:1000C0000C948F000C948F000C948F000C948F0074
:1000D0000C948F000C948F000C948F000C948F0064
:1000E0000C948F000C9491000C94A00011241FBE5E
:1000F000CFEFD1E2DEBFCDBF00E00CBF12E0A0E049
:10010000B2E0E2E7FAE000E00BBF02C007900D9218
:10011000A237B107D9F70E9413020C9437050C944B
:100120000000CF93C82F8A3019F48DE00E9491000F
:100130008091C00085FFFCCFC093C600CF91089589
:100140008091C00087FFFCCF8091C60090E00895A9
:100150009093C5008093C40088E18093C1008EE035
:100160008093C2000895CF93DF93CDB7DEB7AE0181
:100170004A5F5F4FFA0161917191AF0180E092E0B7
:100180000E949002DF91CF910895209A229A219A9D
:10019000289A8CB580618CBD8CB580648CBD8CB583
:1001A00081608CBD08958EBD0DB407FEFDCF8EB568
:1001B00008958EBD0DB407FEFDCF089581E60E941F
:1001C000D9008EB50895289A089528980895CF9358
:1001D000DF931F92CDB7DEB789830E94C5000E94CE
:1001E000F4018981882321F0813039F440E001C095
:1001F00040E460EE8FE00E94D40140E660E680E6D5
:100200000E94D40140E064E080E60E94D40143E013
:100210006FEF8BE20F90DF91CF910C94D401EF92AE
:10022000FF920F931F93CF93DF93EC0180E30E9423
:100230009E0183FDFBCF688165956595659581E39A
:100240000E94AC0168816295660F607E82E30E9425
:10025000AC0169816F7085E30E94AC017E0182E090
:10026000E80EF11C00E010E0898190E00817190702
:1002700054F4F70161917F0186E3800F0E94AC0185
:100280000F5F1F4FF1CF81E0DF91CF911F910F9151
:10029000FF90EF900C94C501BF92CF92DF92EF9246
:1002A000FF920F931F93CF93DF93CDB7DEB72A97BB
:1002B0000FB6F894DEBF0FBECDBF7C0181E60E9471
:1002C0009E01182F82E60E949E0198E0199F9001DE
:1002D0001124829586958770082F022B85E60E944F
:1002E0009E018F70B82E6E01E3E0CE0ED11C10E09F
:1002F0001B1549F086E6810F0E949E01F60181934D
:100300006F011F5FF5CF09831A838AE0FE013196E2
:10031000D70101900D928A95E1F7C7012A960FB691
:10032000F894DEBF0FBECDBFDF91CF911F910F912B
:10033000FF90EF90DF90CF90BF900895CF93C82F9C
:10034000289883E00E94D9008C2F0E94D9000E9437
:10035000DE00289ACF9108951F93CF93DF931F92C9
:10036000CDB7DEB7182F289882E069830E94D900A4
:10037000812F0E94D9006981862F0E94D900289A76
:100380000F90DF91CF911F91089528988770806812
:100390000E94D900289A0895289880EA0E94D900DE
:1003A0000E94DE00289A08951F93CF93DF931F9237
:1003B0001F92CDB7DEB7182F289885E04A8369834E
:1003C0000E94D900812F0E94D9006981862F0E9446
:1003D000D9004A81842F0E94D900289A0F900F904B
:1003E000DF91CF911F910895289880EC0E94D90049
:1003F000289A8FE39CE90197F1F700C000008EE096
:100400000E949E01982F907E903861F01F928F93EA
:1004100089E492E09F938F930E94B3000F900F9016
:100420000F900F900895CF93DF93CDB7DEB7649709
:100430000FB6F894DEBF0FBECDBF87E690E00E94F6
:10044000A80085B7806885BF0E94C5000E94F4019E
:1004500080E00E94E70091E09B8783E08C879D8786
:1004600092E09E878F878EE092E09F938F930E9409
:10047000B30081E00E94E7000F900F9082E2C82E47
:1004800082E0D82E94E4A92E92E0B92E20E2E22E4A
:1004900022E0F22ECE010B960E940F012FEF87EA89
:1004A00091E6215080409040E1F700C00000CE016D
:1004B00001960E944C018A81882E912C1F928F9365
:1004C0008981282F082E000C330B3F938F93DF92E6
:1004D000CF920E94B300FE0133963F010F900F9020
:1004E0000F900F900F900F9000E010E00815190585
:1004F00084F4F30181913F011F928F93BF92AF92D9
:100500000E94B3000F5F1F4F0F900F900F900F903E
:10051000EDCFFF92EF920E94B3000F900F90BACFF1
:100520002F923F924F925F926F927F928F929F9203
:10053000AF92BF92CF92DF92EF92FF920F931F93F1
:10054000CF93DF93CDB7DEB72C970FB6F894DEBF0D
:100550000FBECDBF7C016B018A01FC0117821682A0
:10056000838181FFBDC1CE0101964C01F7019381CA
:10057000F60193FD859193FF81916F01882309F422
:10058000ABC1853239F493FD859193FF81916F0161
:10059000853229F4B70190E00E94A104E7CF512CE5
:1005A000312C20E02032A0F48B3269F030F480321C
:1005B00059F0833269F420612CC08D3239F08033D8
:1005C00039F4216026C02260246023C0286021C045
:1005D00027FD27C030ED380F3A3078F426FF06C0EB
:1005E000FAE05F9E300D1124532E13C08AE0389E2E
:1005F000300D1124332E20620CC08E3221F426FDE2
:100600006BC1206406C08C3611F4206802C08836A5
:1006100041F4F60193FD859193FF81916F01811162
:10062000C1CF982F9F7D9554933028F40C5F1F4FB6
:10063000FFE3F9830DC0833631F0833771F08335E2
:1006400009F05BC022C0F801808189830E5F1F4FD3
:1006500044244394512C540115C03801F2E06F0E2C
:10066000711CF801A080B18026FF03C0652D70E0E9
:1006700002C06FEF7FEFC5012C870E9496042C010A
:1006800083012C852F77222E17C03801F2E06F0EE0
:10069000711CF801A080B18026FF03C0652D70E0B9
:1006A00002C06FEF7FEFC5012C870E948B042C01E5
:1006B0002C852068222E830123FC1BC0832D90E013
:1006C00048165906B0F4B70180E290E00E94A104F8
:1006D0003A94F4CFF50127FC859127FE81915F01C3
:1006E000B70190E00E94A10431103A94F1E04F1A52
:1006F00051084114510471F7E5C0843611F0893670
:1007000039F5F80127FF07C06081718182819381EB
:100710000C5F1F4F08C060817181072E000C880B91
:10072000990B0E5F1F4F2F76722E97FF09C0909581
:100730008095709561957F4F8F4F9F4F2068722EE7
:100740002AE030E0A4010E94D904A82EA81844C0D1
:10075000853729F42F7EB22E2AE030E025C0F22F13
:10076000F97FBF2E8F36C1F018F4883579F0B4C008
:10077000803719F0883721F0AFC02F2F2061B22EBB
:10078000B4FE0DC08B2D8460B82E09C024FF0AC0B2
:100790009F2F9660B92E06C028E030E005C020E10A
:1007A00030E002C020E132E0F801B7FE07C060810E
:1007B0007181828193810C5F1F4F06C060817181BE
:1007C00080E090E00E5F1F4FA4010E94D904A82E84
:1007D000A818FB2DFF777F2E76FE0BC0372D3E7FAE
:1007E000A51450F474FE0AC072FC08C0372D3E7E7A
:1007F00005C0BA2C372D03C0BA2C01C0B52C34FF6C
:100800000DC0FE01EA0DF11D8081803311F4397EA7
:1008100009C032FF06C0B394B39404C0832F867816
:1008200009F0B39433FD13C030FF06C05A2CB31443
:1008300018F4530C5B18B32CB31468F4B70180E2BE
:1008400090E03C870E94A104B3943C85F5CFB3149B
:1008500010F43B1801C0312C34FF12C0B70180E303
:1008600090E03C870E94A1043C8532FF17C031FD17
:1008700003C088E790E002C088E590E0B7010CC0B3
:10088000832F867859F031FF02C08BE201C080E2ED
:1008900037FD8DE2B70190E00E94A104A51438F461
:1008A000B70180E390E00E94A1045A94F7CFAA9484
:1008B000F401EA0DF11D8081B70190E00E94A104CE
:1008C000A110F5CF332009F451CEB70180E290E0BA
:1008D0000E94A1043A94F6CFF7018681978102C065
:1008E0008FEF9FEF2C960FB6F894DEBF0FBECDBFF3
:1008F000DF91CF911F910F91FF90EF90DF90CF90FC
:10090000BF90AF909F908F907F906F905F904F902F
:100910003F902F900895FC010590615070400110A8
:10092000D8F7809590958E0F9F1F0895FC01615018
:10093000704001900110D8F7809590958E0F9F1F01
:1009400008950F931F93CF93DF93FB01238121FD24
:1009500003C08FEF9FEF28C022FF16C0468157814A
:10096000248135814217530744F4A081B1819D0150
:100970002F5F3F4F318320838C93268137812F5FF8
:100980003F4F3783268310C0EB01092F182F0084B7
:10099000F185E02D1995892BE1F68E819F810196D5
:1009A0009F838E83812F902FDF91CF911F910F9185
:1009B0000895FA01AA27283051F1203181F1E894F5
:1009C0006F936E7F6E5F7F4F8F4F9F4FAF4FB1E042
:1009D0003ED0B4E03CD0670F781F891F9A1FA11D3D
:1009E000680F791F8A1F911DA11D6A0F711D811D3E
:1009F000911DA11D20D009F468943F912AE0269F03
:100A000011243019305D3193DEF6CF010895462F61
:100A10004770405D4193B3E00FD0C9F7F6CF462F42
:100A20004F70405D4A3318F0495D31FD40524193AB
:100A300002D0A9F7EACFB4E0A69597958795779568
:100A40006795BA95C9F700976105710508959B01EF
:100A5000AC010A2E06945795479537952795BA9578
:100A6000C9F7620F731F841F951FA01D0895F89486
:020A7000FFCFB6
:100A720000000003000000009100A00000004341BC
:100A82004E2054455354205354415254494E47200A
:100A92000A002863616E5F6D73675F74297B696406
:100AA2003A25782C206C656E3A25642C206461749A
:100AB200613A7B002C202578004D4350204E4F5444
:100AC20020696E20636F6E666967206D6F646520B2
:100AD2006166746572207265736574202564200AEC
:020AE200000012
:00000001FF
