:100000000C9476000C9497000C9497000C94C30207
:100010000C9497000C9497000C9497000C94970004
:100020000C9497000C9497000C9497000C949700F4
:100030000C9497000C9497000C9497000C949700E4
:100040000C9497000C9497000C9497000C949700D4
:100050000C9497000C9497000C9497000C949700C4
:100060000C9497000C9497000C9497000C949700B4
:100070000C9497000C9497000C9497000C949700A4
:100080000C9439070C9497000C9497000C949700EB
:100090000C9497000C9497000C9497000C94D00348
:1000A0000C9497000C9497000C9400080C94970003
:1000B0000C9497000C9497000C9497000C94970064
:1000C0000C9497000C9497000C9497000C94970054
:1000D0000C9497000C9497000C9497000C94970044
:1000E0000C9497000C94A8000C94990011241FBE46
:1000F000CFEFD1E2DEBFCDBF00E00CBF13E0A0E048
:10010000B2E0E8EBFAE100E00BBF02C007900D920D
:10011000A23BB107D9F723E0A2EBB3E001C01D92E7
:10012000AD3DB207E1F70E9415080C945A0D0C94EE
:100130000000CF93C82F8A3019F48DE00E949900F7
:100140008091C00085FFFCCFC093C600CF91089579
:100150008091C00087FFFCCF8091C60090E0089599
:100160009093C5008093C40088E18093C1008EE025
:100170008093C2000895CF93DF93CDB7DEB7AE0171
:100180004A5F5F4FFA0161917191AF0180E092E0A7
:100190000E94B30ADF91CF910895209A229A219A62
:1001A000289A8CB580618CBD8CB580648CBD8CB573
:1001B00081608CBD08958EBD0DB407FEFDCF8EB558
:1001C00008958EBD0DB407FEFDCF089581E60E940F
:1001D000E1008EB50895289A089528980895CF9340
:1001E000DF931F92CDB7DEB789830E94CD000E94B6
:1001F000F7018981882321F0813039F440E001C082
:1002000040E460EE8FE00E94D7018EE00E94A101E1
:10021000982F907E61F01F928F938DE492E09F93D0
:100220008F930E94BB000F900F900F900F9040E6AD
:1002300060E680E60E94D70140E064E080E60E942C
:10024000D70143E06FEF8BE20F90DF91CF910C94D9
:10025000D701EF92FF920F931F93CF93DF93EC019F
:1002600080E30E94A10183FDFBCF688165956595C0
:10027000659581E30E94AF0168816295660F607E9B
:1002800082E30E94AF0169816F7085E30E94AF0134
:100290007E0182E0E80EF11C00E010E0898190E030
:1002A0000817190754F4F70161917F0186E3800F65
:1002B0000E94AF010F5F1F4FF1CF81E0DF91CF911F
:1002C0001F910F91FF90EF900C94C8010F931F9313
:1002D000CF938C018CE20E94A10180FF2EC081E6A9
:1002E0000E94A101C82F82E60E94A10198E0C99F47
:1002F00090011124829586958770282BF801208320
:1003000085E60E94A1018F70F8018183C0E0F801A9
:100310008181C81750F486E68C0F0E94A101F80174
:10032000EC0FF11D8283CF5FF2CF40E061E08CE201
:10033000CF911F910F910C94D701CF911F910F91E5
:100340000895CF93C82F289883E00E94E1008C2F56
:100350000E94E1000E94E600289ACF9108951F9321
:10036000CF93DF931F92CDB7DEB7182F289882E086
:1003700069830E94E100812F0E94E1006981862F3C
:100380000E94E100289A0F90DF91CF911F9108956C
:100390002898877080680E94E100289A089528981C
:1003A00080EA0E94E1000E94E600289A08951F93C7
:1003B000CF93DF931F921F92CDB7DEB7182F2898E7
:1003C00085E04A8369830E94E100812F0E94E10059
:1003D0006981862F0E94E1004A81842F0E94E100FA
:1003E000289A0F900F90DF91CF911F910895289830
:1003F00080EC0E94E100289A8FE39CE90197F1F7D5
:1004000000C000008EE00E94A101982F907E9038DD
:1004100061F01F928F9384E792E09F938F930E94E5
:10042000BB000F900F900F900F900895259AA0E8B1
:10043000B0E08C9182608C938C918E7F8C93E1E8FC
:10044000F0E08081886080838081806180838C91EE
:1004500080688C938C918F7B8C9380818B7F808341
:1004600080818260808380818160808388E893E1DD
:10047000909387008093860087E791E090938900AE
:10048000809388000895CF92DF92EF92FF926B01E4
:100490007C0120E030E0A9010E94410A87FF0AC0E8
:1004A00020E030E048EC52E4C701B6010E94E208C7
:1004B00018167CF020E030E048E452E4C701B601B1
:1004C0000E94460A0E94590970938900609388002F
:1004D00004C01092890010928800FF90EF90DF9086
:1004E000CF900895CF92DF92EF92FF92682F880FFE
:1004F000770B880B990B0E94910920E030E040E4D3
:1005000050E40E94460A20E030E048EC52E40E94A9
:10051000E7089B01AC0160E070E080EF90E40E948E
:1005200075086B017C0120E030E040E950E40E9456
:10053000410A87FD12C020E030E048E251E4C701E3
:10054000B6010E94E208181644F0C701B601FF90F8
:10055000EF90DF90CF900C944302FF90EF90DF90EC
:10056000CF9008951092BD038FB780688FBFF89425
:10057000EA9AE9E6F0E080818F7E80838081806264
:100580008083789408951F920F920FB60F921124D2
:100590000BB60F922F933F934F935F936F937F937D
:1005A0008F939F93AF93BF93EF93FF93CF93DF937B
:1005B000CDB7DEB72A97DEBFCDBFCE0101960E9430
:1005C000660189818031A9F0813129F51F928F93CD
:1005D0008CE992E09F938F930E94BB0081E080930F
:1005E000BD038B818093BF030F900F900F900F90EE
:1005F00012C08B818093BA038C818093C0038D815C
:100600008093B9038E818093BC038F818093BE0356
:1006100088858093BB032A960FB6F894DEBF0FBE81
:10062000CDBFDF91CF91FF91EF91BF91AF919F919E
:100630008F917F916F915F914F913F912F910F908B
:100640000BBE0F900FBE0F901F901895EAE7F0E0D9
:10065000808180688083ACE7B0E08C9180628C936D
:1006600080818260808380818460808380818160DA
:1006700080838081826080838081846080838C918C
:1006800080688C938C9180648C938C91807E8C9309
:1006900008950C942603EAE7F0E080818068808367
:1006A0008081806480830895EAE7F0E080818F771D
:1006B0008083089580917A00806480937A0080918D
:1006C0007A0086FDFCCF8091790008950E945A033C
:1006D000833D28F4863930F08FEF9FEF089580E056
:1006E00090E0089581E090E008958CE08093B80058
:1006F0008FEF8093BB0084E08093BC0008958091CD
:10070000BC00817008958091BC0080FDFCCF809179
:100710000E0208952091BC0020FDFCCF6093B4032D
:10072000FC0120812093B50320FF09C01092B20381
:1007300088EF80930E0285EA8093BC000895FC0147
:10074000319625EB33E0D90111968A2F821B86174B
:1007500068F781918C93F8CF8091BC0080FDFCCF2D
:100760001092B20388EF80930E0285EA8093BC005A
:1007700008952091BC0020FDFCCF2091B20320FD04
:1007800004C08091B2038170089525EB33E0FC0131
:10079000D9018A2F821B8617A0F78D918193F9CFFB
:1007A0001F920F920FB60F9211240BB60F922F9338
:1007B0003F938F939F93EF93FF938091B90088327B
:1007C00001F140F48031D9F08831D9F0883009F056
:1007D0004AC015C0803491F128F4883309F043C031
:1007E00085EA46C08035F1F08835E9F58091BB0097
:1007F000E091B303F0E0EB54FC4F80832DC01092E6
:10080000B303E091B3038091B403E81728F581E0C6
:100810008E0F8093B303F0E0EB54FC4F8081809304
:10082000BB0018C0E091B30381E08E0F8093B30347
:100830008091BB00F0E0EB54FC4F80832091B30328
:1008400030E08091B40390E001972817390714F441
:1008500085EC0EC085E80CC08091B2038160809366
:10086000B20384E905C08091B90080930E0284E050
:100870008093BC00FF91EF919F918F913F912F91B9
:100880000F900BBE0F900FBE0F901F901895E1ECCC
:10089000F3E090910F02990F90831182828363E0BD
:1008A000CF010C948A03E1E0F1E0808182608083D3
:1008B000808180618083E2E0F1E0808180618083DB
:1008C0000E94750380E00C944704882321F08091F6
:1008D0000201826003C0809102018D7F809302013A
:1008E0000895CF93DF93CDB7DEB72A970FB6F8946C
:1008F000DEBF0FBECDBF81E00E94EF000E94530417
:1009000087EBE82E82E0F82ECE0101960E94660168
:100910001B81812F012E000C990B9F931F93FF9237
:10092000EF920E94BB000F900F900F900F90123E1D
:1009300014F480E003C01F3124F081E00E946504BC
:1009400001C010E0812F110F990B97FF03C0919503
:10095000819591090E9447042FEF85EA9EE021507E
:1009600080409040E1F700C00000CECFCF93DF93EE
:10097000CDB7DEB72A970FB6F894DEBF0FBECDBF56
:100980000E94B20281E00E94EF000E9453040E9484
:10099000B60587EBC82E82E0D82E91ECE92E92E0C6
:1009A000F92ECE0101960E9466011B81812F012E36
:1009B000000C990B9F931F93DF92CF920E94BB0074
:1009C0000F900F900F900F90123E14F480E003C030
:1009D0001F3124F081E00E94650401C010E0812FE6
:1009E000110F990B97FF03C09195819591090E9472
:1009F00047042FEF83ED90E3215080409040E1F7D2
:100A000000C000000E94C7059F938F93FF92EF9252
:100A10000E94BB000F900F900F900F90C2CF0E94CA
:100A20006507C2EDD2E00E946707DF93CF930E9473
:100A3000BB009FEF23E284EF915020408040E1F71C
:100A400000C000000F900F90EECF0E944903C0E05D
:100A5000D0E082EFE82E82E0F82E90EEC92E92E0F0
:100A6000D92E06E013E02FEF87EA91E6215080406F
:100A70009040E1F700C000000E946603009719F45F
:100A8000DF92CF9204C0019731F4FF92EF920E945F
:100A9000BB000F900F90DF93CF931F930F930E9493
:100AA000BB0021960F900F900F900F90DCCFCF934B
:100AB000DF93CDB7DEB72A970FB6F894DEBF0FBE2F
:100AC000CDBF81E00E94EF0083E1C82E83E0D82EE5
:100AD00095E3A92E93E0B92E2EE8E22E23E0F22E24
:100AE00084E292E00E9429012FEF87EA91E62150EB
:100AF00080409040E1F700C00000CE0101960E94C6
:100B000066018A811F928F938981282F082E000CFD
:100B1000330B3F938F93DF92CF920E94BB00FE0175
:100B200033964F010F900F900F900F900F900F90F2
:100B300000E010E08A8190E00817190784F4F401BE
:100B400081914F011F928F93BF92AF920E94BB0081
:100B50000F5F1F4F0F900F900F900F90EBCFFF92F2
:100B6000EF920E94BB000F900F90BACFE1E0F1E04E
:100B700080818860808380818062808380818064BE
:100B80008083E2E0F1E08081806480830895E2E088
:100B9000F1E080818F7D80838081877F80832AE65A
:100BA0002A95F1F700C0A6E0B1E08C9190E0982F73
:100BB00088272081286020832AE62A95F1F700C043
:100BC0003C9120812F7B20832AE62A95F1F700C0F3
:100BD000208120642083208120622083832B08953C
:100BE0008AE393E09F938F930E94BB001092CB0304
:100BF0001092CA031092C9031092C80381E090E0DA
:100C00009093DA038093D9038AEF90E09093D20314
:100C10008093D10388EE93E09093C5038093C4033F
:100C200082E390E09093D6038093D5031092CE0395
:100C30001092CD031092D8031092D7031092D003D4
:100C40001092CF030F900F9008958091D4038F934B
:100C50008091D3038F938DE593E09F938F930E94B0
:100C6000BB008091D0038F938091CF038F938AE64E
:100C700093E09F938F930E94BB008091C9038F9351
:100C80008091C8038F938FE793E09F938F930E9487
:100C9000BB008091CB038F938091CA038F9380E92F
:100CA00093E09F938F930E94BB008091C603909125
:100CB000C7036091C4037091C5030E944D087F93E0
:100CC0006F9380EA93E09F938F930E94BB008EE81E
:100CD00093E09F938F930E94BB008DB79EB746967B
:100CE0000FB6F8949EBF0FBE8DBF08958091CF03BD
:100CF0009091D0031816190614F480E001C081E029
:100D00000E9465048091CF039091D00397FF03C0A8
:100D10009195819591098B3591050CF08AE50C949C
:100D20004704F894E1E9F0E080818B7F8083808143
:100D300082608083808181608083A0E9B0E08C91B3
:100D40008D7F8C938C918E7F8C9380818860808343
:100D5000808180618083E1E7F0E080818260808330
:100D6000789488E893E1909397008093960081E0CF
:100D70008093CC03089524E2829FC00111248856F9
:100D800091409093C9038093C80308951092CC03B7
:100D9000089581E08093CC0308952091BE033CED3B
:100DA0003203C001112484529C4D9093C903809357
:100DB000C8030E94C7052091CA033091CB03820F5C
:100DC000931F9093CB038093CA030895CF93DF932F
:100DD0000E94CD062091C8033091C9038091CA03B7
:100DE0009091CB03281B390B3093D4032093D3036A
:100DF000C091D503D091D603C901BE010E944D0810
:100E00008091D7039091D803860F971F9093D803B2
:100E10008093D7038091CD039091CE03A901481B05
:100E2000590B4C9FF0014D9FF00D5C9FF00D11246C
:100E3000F093C703E093C6033093CE032093CD0312
:100E40006091D9037091DA03C9010E944D089B019A
:100E50006091C4037091C503CF010E944D08620FD9
:100E6000731F7093D0036093CF03DF91CF910C94E5
:100E700076061F920F920FB60F9211240BB60F92A7
:100E80002F933F934F935F936F937F938F939F9392
:100E9000AF93BF93EF93FF938091CC03813011F414
:100EA0000E94E606FF91EF91BF91AF919F918F91C4
:100EB0007F916F915F914F913F912F910F900BBE5A
:100EC0000F900FBE0F901F901895819A0895899AE0
:100ED0002FEF81EE94E0215080409040E1F700C078
:100EE0000000899808950E946603892B71F48AE1B5
:100EF00092E00E9429012FEF89E698E1215080407D
:100F00009040E1F700C00000EECF80E192E00E9447
:100F1000290181E08093DB031092DC030E94C90663
:100F20008091BA030E9472020E946603892B39F0F5
:100F30008091BB038823A1F30E946707F1CF109231
:100F4000DB030E94C60680E00E9447048091DC0318
:100F50000895F894E1EAF0E08081846080838081E4
:100F60008D7F8083808181608083A0EAB0E08C9156
:100F70008D7F8C938C918E7F8C9380818860808311
:100F8000808180618083E2E7F0E0808182608083FD
:100F9000789489E09DE39093A7008093A60081E078
:100FA0008093DB0308950E9449030E9453048AE55D
:100FB0000E94470481E00E9465042FEF8BE792E9CD
:100FC000215080409040E1F700C0000080E00E9486
:100FD00047040E94B6050E94C7050E94F0050E94C2
:100FE00091060E94C6060E9416020E9465070C9494
:100FF000A9071092DB03089581E08093DB03089535
:101000001F920F920FB60F9211248F938091DB03E2
:10101000813029F48091DC038F5F8093DC038F9112
:101020000F900FBE0F901F90189587E690E00E94DA
:10103000B00085B7806885BF81E00E94EF000E9404
:10104000B2028EE292E09F938F930E94BB000F90BA
:101050000F90CEE3D2E08091BD03813091F4DF9315
:10106000CF930E94BB001092BD030E94D3070E9441
:1010700073078093260284E292E00E9429010F9078
:101080000F900E9466039FEF29E688E1915020406F
:101090008040E1F700C00000DECF97FB072E16F47A
:1010A000009407D077FD09D00E94610807FC05D0A5
:1010B0003EF4909581959F4F0895709561957F4F6F
:1010C0000895AA1BBB1B51E107C0AA1FBB1FA6178F
:1010D000B70710F0A61BB70B881F991F5A95A9F7E1
:1010E00080959095BC01CD0108955058BB27AA2743
:1010F0000E948D080C94070A0E94F90938F00E949A
:10110000000A20F039F49F3F19F426F40C94F609F4
:101110000EF4E095E7FB0C94F009E92F0E94180A01
:1011200058F3BA17620773078407950720F079F41C
:10113000A6F50C943A0A0EF4E0950B2EBA2FA02DCA
:101140000B01B90190010C01CA01A0011124FF2774
:10115000591B99F0593F50F4503E68F11A16F0406F
:10116000A22F232F342F4427585FF3CF469537956E
:101170002795A795F0405395C9F77EF41F16BA0B33
:10118000620B730B840BBAF09150A1F0FF0FBB1FE1
:10119000661F771F881FC2F70EC0BA0F621F731F2A
:1011A000841F48F4879577956795B795F7959E3F87
:1011B00008F0B0CF9395880F08F09927EE0F979518
:1011C000879508950E94CC0908F481E008950E9453
:1011D000FB080C94070A0E94000A58F00E94F909C3
:1011E00040F029F45F3F29F00C94F00951110C9460
:1011F0003B0A0C94F6090E94180A68F39923B1F38C
:10120000552391F3951B550BBB27AA27621773072C
:10121000840738F09F5F5F4F220F331F441FAA1FC0
:10122000A9F335D00E2E3AF0E0E832D0915050407C
:10123000E695001CCAF72BD0FE2F29D0660F771F2A
:10124000881FBB1F261737074807AB07B0E809F010
:10125000BB0B802DBF01FF2793585F4F3AF09E3F95
:10126000510578F00C94F0090C943B0A5F3FE4F3CD
:10127000983ED4F3869577956795B795F7959F5FD8
:10128000C9F7880F911D9695879597F90895E1E024
:10129000660F771F881FBB1F621773078407BA0783
:1012A00020F0621B730B840BBA0BEE1F88F7E095DE
:1012B00008950E9460096894B1110C943B0A089546
:1012C0000E94200A88F09F5798F0B92F9927B751AC
:1012D000B0F0E1F0660F771F881F991F1AF0BA95DA
:1012E000C9F714C0B13091F00E943A0AB1E00895F4
:1012F0000C943A0A672F782F8827B85F39F0B93FE6
:10130000CCF3869577956795B395D9F73EF490958C
:101310008095709561957F4F8F4F9F4F0895E8940A
:1013200009C097FB3EF490958095709561957F4F2D
:101330008F4F9F4F9923A9F0F92F96E9BB279395DB
:10134000F695879577956795B795F111F8CFFAF4EB
:10135000BB0F11F460FF1BC06F5F7F4F8F4F9F4F1C
:1013600016C0882311F096E911C0772321F09EE87A
:10137000872F762F05C0662371F096E8862F70E0E0
:1013800060E02AF09A95660F771F881FDAF7880FBA
:101390009695879597F90895990F0008550FAA0B10
:1013A000E0E8FEEF16161706E807F907C0F0121678
:1013B0001306E407F50798F0621B730B840B950B7B
:1013C00039F40A2661F0232B242B252B21F40895D0
:1013D0000A2609F4A140A6958FEF811D811D08956D
:1013E00097F99F6780E870E060E008959FEF80ECD8
:1013F000089500240A94161617061806090608957B
:1014000000240A9412161306140605060895092EE0
:101410000394000C11F4882352F0BB0F40F4BF2B4F
:1014200011F460FF04C06F5F7F4F8F4F9F4F08958F
:1014300057FD9058440F551F59F05F3F71F0479585
:10144000880F97FB991F61F09F3F79F0879508956A
:10145000121613061406551FF2CF4695F1DF08C089
:10146000161617061806991FF1CF869571056105A6
:1014700008940895E894BB2766277727CB0197F94E
:1014800008950E94CC0908F48FEF08950E94590A2C
:101490000C94070A0E94F90938F00E94000A20F013
:1014A000952311F00C94F0090C94F60911240C9476
:1014B0003B0A0E94180A70F3959FC1F3950F50E004
:1014C000551F629FF001729FBB27F00DB11D639FF6
:1014D000AA27F00DB11DAA1F649F6627B00DA11D9C
:1014E000661F829F2227B00DA11D621F739FB00D42
:1014F000A11D621F839FA00D611D221F749F3327B2
:10150000A00D611D231F849F600D211D822F762F4A
:101510006A2F11249F5750409AF0F1F088234AF027
:10152000EE0FFF1FBB1F661F771F881F9150504093
:10153000A9F79E3F510580F00C94F0090C943B0AEA
:101540005F3FE4F3983ED4F3869577956795B7951A
:10155000F795E7959F5FC1F7FE2B880F911D969534
:10156000879597F908952F923F924F925F926F92CD
:101570007F928F929F92AF92BF92CF92DF92EF9223
:10158000FF920F931F93CF93DF93CDB7DEB72C97C6
:101590000FB6F894DEBF0FBECDBF7C016B018A0190
:1015A000FC0117821682838181FFBDC1CE010196A5
:1015B0004C01F7019381F60193FD859193FF819191
:1015C0006F01882309F4ABC1853239F493FD85910D
:1015D00093FF81916F01853229F4B70190E00E9459
:1015E000C40CE7CF512C312C20E02032A0F48B32F8
:1015F00069F030F4803259F0833269F420612CC0F4
:101600008D3239F0803339F4216026C022602460A5
:1016100023C0286021C027FD27C030ED380F3A30A5
:1016200078F426FF06C0FAE05F9E300D1124532E99
:1016300013C08AE0389E300D1124332E20620CC076
:101640008E3221F426FD6BC1206406C08C3611F465
:10165000206802C0883641F4F60193FD859193FF1E
:1016600081916F018111C1CF982F9F7D9554933047
:1016700028F40C5F1F4FFFE3F9830DC0833631F070
:10168000833771F0833509F05BC022C0F801808197
:1016900089830E5F1F4F44244394512C540115C07D
:1016A0003801F2E06F0E711CF801A080B18026FFB6
:1016B00003C0652D70E002C06FEF7FEFC5012C877E
:1016C0000E94B90C2C0183012C852F77222E17C084
:1016D0003801F2E06F0E711CF801A080B18026FF86
:1016E00003C0652D70E002C06FEF7FEFC5012C874E
:1016F0000E94AE0C2C012C852068222E830123FC35
:101700001BC0832D90E048165906B0F4B70180E263
:1017100090E00E94C40C3A94F4CFF50127FC859127
:1017200027FE81915F01B70190E00E94C40C311047
:101730003A94F1E04F1A51084114510471F7E5C091
:10174000843611F0893639F5F80127FF07C060812A
:101750007181828193810C5F1F4F08C0608171810C
:10176000072E000C880B990B0E5F1F4F2F76722EE1
:1017700097FF09C090958095709561957F4F8F4F29
:101780009F4F2068722E2AE030E0A4010E94FC0CDA
:10179000A82EA81844C0853729F42F7EB22E2AE03F
:1017A00030E025C0F22FF97FBF2E8F36C1F018F43C
:1017B000883579F0B4C0803719F0883721F0AFC090
:1017C0002F2F2061B22EB4FE0DC08B2D8460B82E59
:1017D00009C024FF0AC09F2F9660B92E06C028E0DA
:1017E00030E005C020E130E002C020E132E0F80145
:1017F000B7FE07C060817181828193810C5F1F4FAA
:1018000006C06081718180E090E00E5F1F4FA401EF
:101810000E94FC0CA82EA818FB2DFF777F2E76FEC9
:101820000BC0372D3E7FA51450F474FE0AC072FC25
:1018300008C0372D3E7E05C0BA2C372D03C0BA2C08
:1018400001C0B52C34FF0DC0FE01EA0DF11D8081F1
:10185000803311F4397E09C032FF06C0B394B394CB
:1018600004C0832F867809F0B39433FD13C030FF92
:1018700006C05A2CB31418F4530C5B18B32CB314D1
:1018800068F4B70180E290E03C870E94C40CB394F6
:101890003C85F5CFB31410F43B1801C0312C34FF54
:1018A00012C0B70180E390E03C870E94C40C3C85E5
:1018B00032FF17C031FD03C088E790E002C088E521
:1018C00090E0B7010CC0832F867859F031FF02C039
:1018D0008BE201C080E237FD8DE2B70190E00E940B
:1018E000C40CA51438F4B70180E390E00E94C40C46
:1018F0005A94F7CFAA94F401EA0DF11D8081B70143
:1019000090E00E94C40CA110F5CF332009F451CE11
:10191000B70180E290E00E94C40C3A94F6CFF70140
:101920008681978102C08FEF9FEF2C960FB6F894B7
:10193000DEBF0FBECDBFDF91CF911F910F91FF9002
:10194000EF90DF90CF90BF90AF909F908F907F905F
:101950006F905F904F903F902F900895FC010590FD
:10196000615070400110D8F7809590958E0F9F1FA1
:101970000895FC016150704001900110D8F78095E6
:1019800090958E0F9F1F08950F931F93CF93DF9312
:10199000FB01238121FD03C08FEF9FEF28C022FFB1
:1019A00016C046815781248135814217530744F47C
:1019B000A081B1819D012F5F3F4F318320838C93A4
:1019C000268137812F5F3F4F3783268310C0EB017D
:1019D000092F182F0084F185E02D1995892BE1F648
:1019E0008E819F8101969F838E83812F902FDF911F
:1019F000CF911F910F910895FA01AA27283051F134
:101A0000203181F1E8946F936E7F6E5F7F4F8F4F2F
:101A10009F4FAF4FB1E03ED0B4E03CD0670F781F8E
:101A2000891F9A1FA11D680F791F8A1F911DA11D73
:101A30006A0F711D811D911DA11D20D009F46894AC
:101A40003F912AE0269F11243019305D3193DEF654
:101A5000CF010895462F4770405D4193B3E00FD00A
:101A6000C9F7F6CF462F4F70405D4A3318F0495DF5
:101A700031FD4052419302D0A9F7EACFB4E0A695D8
:101A80009795879577956795BA95C9F700976105FA
:101A9000710508959B01AC010A2E06945795479550
:101AA00037952795BA95C9F7620F731F841F951F45
:081AB000A01D0895F894FFCF7A
:101AB80000000003000000009900A8000000F828BA
:101AC80032000000000000000000310000000000AB
:101AD8000000000030010000000000000000537406
:101AE800617274696E67206E6F6465320A0067619F
:101AF8006D65207374617274696E670A004D435096
:101B0800204E4F5420696E204E6F726D616C206DAF
:101B18006F646520616674657220696E697420253A
:101B280064200A004D4350204E4F5420696E2063B4
:101B38006F6E666967206D6F646520616674657293
:101B4800207265736574202564200A0047616D65FD
:101B58002073686F756C6420737461727420696493
:101B6800203D2025780A007678203D202564200A2B
:101B780000656E636F6465722076616C203A20257B
:101B8800640054696E6773206B6A657221210A00CC
:101B9800596F75206C6F73742061206C69666520BD
:101BA8000A006E65772067616D65207374617274D1
:101BB800696E67200A00636F756E7465722025640C
:101BC800200A002863616E5F6D73675F74297B6903
:101BD800643A25782C206C656E3A25642C20646163
:101BE80074613A7B002C202578002D2D2D2D2D2D6C
:101BF8002D2D2D2D2D2D2D2D2D2D2D2D2D535441AC
:101C080052542D2D2D2D2D2D2D2D2D0A006572723E
:101C18006F72203D202564200A00636F6E74726F16
:101C28006C5F696E707574203D202564200A00720F
:101C380065666572656E6365203D202564200A002F
:101C4800706F736974696F6E203D202564200A00E7
:101C580064657269766174697665203D2025642023
:021C68000A0070
:00000001FF
