:100000000C9476000C9497000C9497000C94C10209
:100010000C9497000C9497000C9497000C94970004
:100020000C9497000C9497000C9497000C949700F4
:100030000C9497000C9497000C9497000C949700E4
:100040000C9497000C9497000C9497000C949700D4
:100050000C9497000C9497000C9497000C949700C4
:100060000C9497000C9497000C9497000C949700B4
:100070000C9497000C9497000C9497000C949700A4
:100080000C9444070C9497000C9497000C949700E0
:100090000C9497000C9497000C9497000C94D80340
:1000A0000C9497000C9497000C94D5070C9497002F
:1000B0000C9497000C9497000C9497000C94970064
:1000C0000C9497000C9497000C9497000C94970054
:1000D0000C9497000C9497000C9497000C94970044
:1000E0000C9497000C94A8000C94990011241FBE46
:1000F000CFEFD1E2DEBFCDBF00E00CBF13E0A0E048
:10010000B2E0E2EBFAE100E00BBF02C007900D9213
:10011000A03BB107D9F723E0A0EBB3E001C01D92EB
:10012000A93DB207E1F70E9408080C94570D0C9402
:100130000000CF93C82F8A3019F48DE00E949900F7
:100140008091C00085FFFCCFC093C600CF91089579
:100150008091C00087FFFCCF8091C60090E0089599
:100160009093C5008093C40088E18093C1008EE025
:100170008093C2000895CF93DF93CDB7DEB7AE0171
:100180004A5F5F4FFA0161917191AF0180E092E0A7
:100190000E94B00ADF91CF910895209A229A219A65
:1001A000289A8CB580618CBD8CB580648CBD8CB573
:1001B00081608CBD08958EBD0DB407FEFDCF8EB558
:1001C00008958EBD0DB407FEFDCF089581E60E940F
:1001D000E1008EB50895289A089528980895CF9340
:1001E000DF931F92CDB7DEB789830E94CD000E94B6
:1001F000F7018981882321F0813039F440E001C082
:1002000040E460EE8FE00E94D7018EE00E94A101E1
:10021000982F907E61F01F928F938AE492E09F93D3
:100220008F930E94BB000F900F900F900F9040E6AD
:1002300060E680E60E94D70140E064E080E60E942C
:10024000D70143E06FEF8BE20F90DF91CF910C94D9
:10025000D701EF92FF920F931F93CF93DF93EC019F
:1002600080E30E94A10183FDFBCF688165956595C0
:10027000659581E30E94AF0168816295660F607E9B
:1002800082E30E94AF0169816F7085E30E94AF0134
:100290007E0182E0E80EF11C00E010E0898190E030
:1002A0000817190754F4F70161917F0186E3800F65
:1002B0000E94AF010F5F1F4FF1CF81E0DF91CF911F
:1002C0001F910F91FF90EF900C94C8010F931F9313
:1002D000CF938C018CE20E94A10180FF2EC081E6A9
:1002E0000E94A101C82F82E60E94A10198E0C99F47
:1002F00090011124829586958770282BF801208320
:1003000085E60E94A1018F70F8018183C0E0F801A9
:100310008181C81750F486E68C0F0E94A101F80174
:10032000EC0FF11D8283CF5FF2CF40E061E08CE201
:10033000CF911F910F910C94D701CF911F910F91E5
:100340000895CF93C82F289883E00E94E1008C2F56
:100350000E94E1000E94E600289ACF9108951F9321
:10036000CF93DF931F92CDB7DEB7182F289882E086
:1003700069830E94E100812F0E94E1006981862F3C
:100380000E94E100289A0F90DF91CF911F9108956C
:100390002898877080680E94E100289A089528981C
:1003A00080EA0E94E1000E94E600289A08951F93C7
:1003B000CF93DF931F921F92CDB7DEB7182F2898E7
:1003C00085E04A8369830E94E100812F0E94E10059
:1003D0006981862F0E94E1004A81842F0E94E100FA
:1003E000289A0F900F90DF91CF911F910895289830
:1003F00080EC0E94E100289A8FE39CE90197F1F7D5
:1004000000C000008EE00E94A101982F907E9038DD
:1004100061F01F928F9381E792E09F938F930E94E8
:10042000BB000F900F900F900F900895259AA0E8B1
:10043000B0E08C9182608C938C918E7F8C93E1E8FC
:10044000F0E08081886080838081806180838C91EE
:1004500080688C938C918F7B8C9380818B7F808341
:1004600080818260808380818160808388E893E1DD
:10047000909387008093860087E791E090938900AE
:10048000809388000895CF92DF92EF92FF926B01E4
:100490007C0120E030E0A9010E943E0A87FF0AC0EB
:1004A00020E030E048EC52E4C701B6010E94DF08CA
:1004B00018167CF020E030E048E452E4C701B601B1
:1004C0000E94430A0E945609709389006093880035
:1004D00004C01092890010928800FF90EF90DF9086
:1004E000CF900895CF92DF92EF92FF92682F880FFE
:1004F000770B880B990B0E948E0920E030E040E4D6
:1005000050E40E94430A20E030E048EC52E40E94AC
:10051000E40820E030E040EF50E40E9473086B01F3
:100520007C0120E030E040E950E40E943E0A87FD73
:1005300012C020E030E048E251E4C701B6010E9459
:10054000DF08181644F0C701B601FF90EF90DF9066
:10055000CF900C944302FF90EF90DF90CF900895DE
:100560001092BB038FB780688FBFF894EA9AE9E6D0
:10057000F0E080818F7E80838081806280837894A8
:1005800008951F920F920FB60F9211240BB60F927F
:100590002F933F934F935F936F937F938F939F938B
:1005A000AF93BF93EF93FF93CF93DF93CDB7DEB7B6
:1005B0002A97DEBFCDBFCE0101960E9466018981D8
:1005C000803119F0813199F018C08B818093B80384
:1005D0008C818093BE038D818093B7038E8180933D
:1005E000BA038F818093BC0388858093B90381E02F
:1005F0008093BB038B818093BD032A960FB6F8943A
:10060000DEBF0FBECDBFDF91CF91FF91EF91BF91C4
:10061000AF919F918F917F916F915F914F913F919A
:100620002F910F900BBE0F900FBE0F901F9018953B
:10063000EAE7F0E0808180688083ACE7B0E08C91ED
:1006400080628C93808182608083808184608083DB
:1006500080818160808380818260808380818460EA
:1006600080838C9180688C938C9180648C938C9126
:10067000807E8C9308950C941803EAE7F0E0808163
:10068000806880838081806480830895EAE7F0E059
:1006900080818F778083089580917A008064809331
:1006A0007A0080917A0086FDFCCF809179000895D0
:1006B000CF93DF931F92CDB7DEB70E944C031F92FA
:1006C0008F9329E932E03F932F9389830E94BB00E7
:1006D0000F900F900F900F9089818F3B28F48639EF
:1006E00030F08FEF9FEF05C080E090E002C081E026
:1006F00090E00F90DF91CF9108958CE08093B80047
:100700008FEF8093BB0084E08093BC0008958091BC
:10071000BC00817008958091BC0080FDFCCF809169
:100720000E0208952091BC0020FDFCCF6093B2031F
:10073000FC0120812093B30320FF09C01092B00375
:1007400088EF80930E0285EA8093BC000895FC0137
:10075000319623EB33E0D90111968A2F821B86173D
:1007600068F781918C93F8CF8091BC0080FDFCCF1D
:100770001092B00388EF80930E0285EA8093BC004C
:1007800008952091BC0020FDFCCF2091B00320FDF6
:1007900004C08091B0038170089523EB33E0FC0125
:1007A000D9018A2F821B8617A0F78D918193F9CFEB
:1007B0001F920F920FB60F9211240BB60F922F9328
:1007C0003F938F939F93EF93FF938091B90088326B
:1007D00001F140F48031D9F08831D9F0883009F046
:1007E0004AC015C0803491F128F4883309F043C021
:1007F00085EA46C08035F1F08835E9F58091BB0087
:10080000E091B103F0E0ED54FC4F80832DC01092D5
:10081000B103E091B1038091B203E81728F581E0BC
:100820008E0F8093B103F0E0ED54FC4F80818093F4
:10083000BB0018C0E091B10381E08E0F8093B1033B
:100840008091BB00F0E0ED54FC4F80832091B10318
:1008500030E08091B20390E001972817390714F433
:1008600085EC0EC085E80CC08091B0038160809358
:10087000B00384E905C08091B90080930E0284E042
:100880008093BC00FF91EF919F918F913F912F91A9
:100890000F900BBE0F900FBE0F901F901895EFEBAF
:1008A000F3E090910F02990F90831182828363E0AD
:1008B000CF010C949203E1E0F1E0808182608083BB
:1008C000808180618083E2E0F1E0808180618083CB
:1008D0000E947D0380E00C944F04882321F08091D6
:1008E0000201826003C0809102018D7F809302012A
:1008F0000895CF93DF93CDB7DEB72A970FB6F8945C
:10090000DEBF0FBECDBF81E00E94EF000E945B04FE
:1009100083EAE82E82E0F82ECE0101960E9466015D
:100920001B81812F012E000C990B9F931F93FF9227
:10093000EF920E94BB000F900F900F900F90123E0D
:1009400014F480E003C01F3124F081E00E946D04A4
:1009500001C010E0812F110F990B97FF03C09195F3
:10096000819591090E944F042FEF85EA9EE0215066
:1009700080409040E1F700C00000CECFCF93DF93DE
:10098000CDB7DEB72A970FB6F894DEBF0FBECDBF46
:100990000E94B00281E00E94EF000E945B040E946E
:1009A000CB0583EAC82E82E0D82E9DEAE92E92E09C
:1009B000F92ECE0101960E9466011B81812F012E26
:1009C000000C990B9F931F93DF92CF920E94BB0064
:1009D0000F900F900F900F90123E14F480E003C020
:1009E0001F3124F081E00E946D0401C010E0812FCE
:1009F000110F990B97FF03C09195819591090E9462
:100A00004F042FEF83ED90E3215080409040E1F7B9
:100A100000C000000E94DC059F938F93FF92EF922D
:100A20000E94BB000F900F900F900F90C2CF0E94BA
:100A30006C07CEEBD2E00E946E07DF93CF930E944B
:100A4000BB009FEF23E284EF915020408040E1F70C
:100A500000C000000F900F90EECF0E943B03C0E05B
:100A6000D0E082E2E82E82E0F82E90E1C92E92E0FA
:100A7000D92E0CEC12E02FEF87EA91E6215080404E
:100A80009040E1F700C000000E945803009719F45D
:100A9000DF92CF9204C0019731F4FF92EF920E944F
:100AA000BB000F900F90DF93CF931F930F930E9483
:100AB000BB0021960F900F900F900F90DCCFCF933B
:100AC000DF93CDB7DEB764970FB6F894DEBF0FBEE5
:100AD000CDBF81E00E94EF0081E0898383E08A83BB
:100AE00087E08B8382E08C831D8211E089EDC82E24
:100AF00082E0D82E9BEFA92E92E0B92E28E4E22EB8
:100B000022E0F22ECE0101960E9429012FEF87EA02
:100B100091E6215080409040E1F700C000001D8325
:100B2000CE010B960E9466018C851F928F938B8558
:100B3000282F082E000C330B3F938F93DF92CF9218
:100B40000E94BB00FE013D964F010F900F900F9049
:100B50000F900F900F90612C712C8C8590E068168F
:100B600079068CF4F40181914F011F928F93BF920B
:100B7000AF920E94BB00FFEF6F1A7F0A0F900F9099
:100B80000F900F90EACFFF92EF920E94BB001F5F81
:100B90000F900F90B7CFE1E0F1E080818860808313
:100BA000808180628083808180648083E2E0F1E0E4
:100BB0008081806480830895E2E0F1E080818F7D10
:100BC00080838081877F80832AE62A95F1F700C0A1
:100BD000A6E0B1E08C9190E0982F882720812860D2
:100BE00020832AE62A95F1F700C03C9120812F7BD3
:100BF00020832AE62A95F1F700C020812064208313
:100C0000208120622083832B089580E093E09F93CE
:100C10008F930E94BB001092C9031092C8031092D8
:100C2000C7031092C60381E090E09093D7038093AE
:100C3000D6038AEF90E09093CF038093CE0388EEA3
:100C400093E09093C3038093C20384E690E0909373
:100C5000D3038093D2031092CB031092CA03109255
:100C6000D5031092D4031092CD031092CC030F90B1
:100C70000F9008958091D1038F938091D0038F932B
:100C800083E293E09F938F930E94BB008091CD03FA
:100C90008F938091CC038F9380E393E09F938F9306
:100CA0000E94BB008091C7038F938091C6038F93EE
:100CB00085E493E09F938F930E94BB008091C903CA
:100CC0008F938091C8038F9386E593E09F938F93D2
:100CD0000E94BB008091C4039091C5036091C20340
:100CE0007091C3030E944A087F936F9386E693E056
:100CF0009F938F930E94BB0088E492E09F938F9311
:100D00000E94BB008DB79EB746960FB6F8949EBF63
:100D10000FBE8DBF08958091CC039091CD0318161E
:100D2000190614F480E001C081E00E946D048091F6
:100D3000CC039091CD0397FF03C0919581959109C4
:100D40008B3591050CF08AE50C944F04F894E1E999
:100D5000F0E080818B7F80838081826080838081CE
:100D600081608083A0E9B0E08C918D7F8C938C9121
:100D70008E7F8C9380818860808380818061808376
:100D8000E1E7F0E0808182608083789484E699E1F5
:100D90009093970080939600089524E2829FC0016B
:100DA0001124885691409093C7038093C6030895F9
:100DB0002091BC033CED3203C001112484529C4DB0
:100DC0009093C7038093C6030E94DC052091C8035B
:100DD0003091C903820F931F9093C9038093C80376
:100DE0000895CF93DF930E94D8062091C6033091D7
:100DF000C7038091C8039091C903281B390B309316
:100E0000D1032093D003C091D203D091D303C90161
:100E1000BE010E944A088091D4039091D503860FA9
:100E2000971F9093D5038093D4038091CA03909128
:100E3000CB03A901481B590B4C9FF0014D9FF00DAE
:100E40005C9FF00D1124F093C503E093C40330932D
:100E5000CB032093CA036091D6037091D703C901D5
:100E60000E944A089B016091C2037091C303CF01A5
:100E70000E944A08620F731F7093CD036093CC03E6
:100E8000DF91CF910C948B061F920F920FB60F92A9
:100E900011240BB60F922F933F934F935F936F9351
:100EA0007F938F939F93AF93BF93EF93FF930E9492
:100EB000F106FF91EF91BF91AF919F918F917F913B
:100EC0006F915F914F913F912F910F900BBE0F90BB
:100ED0000FBE0F901F901895819A0895899A2FEF51
:100EE00081EE94E0215080409040E1F700C0000086
:100EF00089980895F894E1EAF0E080818460808325
:100F000080818D7F8083808181608083A0EAB0E0D2
:100F10008C918D7F8C938C918E7F8C938081886057
:100F20008083808180618083E2E7F0E0808182605D
:100F30008083789489E09DE39093A7008093A60036
:100F400008950C947A07E2E7F0E080818D7F80833A
:100F50000895E2E7F0E08081826080830895CF9376
:100F6000DF93C8E7D3E00E945803892B31F4DF9365
:100F7000CF930E94BB000F900F900E9458030197DF
:100F800091F780E993E09F938F930E94BB000E94AA
:100F9000A9071092D8030F900F900E945803892B35
:100FA000E1F7DF91CF910C94A3071F920F920FB638
:100FB0000F9211240BB60F922F933F934F935F9391
:100FC0006F937F938F939F93AF93BF93EF93FF9311
:100FD00086EA93E09F938F930E94BB008091D80391
:100FE0008F5F8093D8030F900F90FF91EF91BF9187
:100FF000AF919F918F917F916F915F914F913F91B1
:101000002F910F900BBE0F900FBE0F901F90189551
:1010100087E690E00E94B00085B7806885BF81E0D8
:101020000E94EF000E943B030E94B0020E94CB0589
:101030000E9405060E94A6060E945B040E941602FA
:101040000E946C0702E212E080E1E82E82E0F82EB6
:10105000C6E3D2E08091B8030E9472020E94580356
:10106000009719F4FF92EF9204C0019731F41F9397
:101070000F930E94BB000F900F908091B9038823BB
:1010800049F30E946E07DF93CF930E94BB000F903D
:101090000F90E0CF97FB072E16F4009407D077FD52
:1010A00009D00E945E0807FC05D03EF4909581951A
:1010B0009F4F0895709561957F4F0895AA1BBB1BA4
:1010C00051E107C0AA1FBB1FA617B70710F0A61B48
:1010D000B70B881F991F5A95A9F780959095BC0169
:1010E000CD0108955058BB27AA270E948A080C9466
:1010F000040A0E94F60938F00E94FD0920F039F434
:101100009F3F19F426F40C94F3090EF4E095E7FBE5
:101110000C94ED09E92F0E94150A58F3BA176207DB
:1011200073078407950720F079F4A6F50C94370A25
:101130000EF4E0950B2EBA2FA02D0B01B9019001F2
:101140000C01CA01A0011124FF27591B99F0593F36
:1011500050F4503E68F11A16F040A22F232F342F7E
:101160004427585FF3CF469537952795A795F040CC
:101170005395C9F77EF41F16BA0B620B730B840BE1
:10118000BAF09150A1F0FF0FBB1F661F771F881F99
:10119000C2F70EC0BA0F621F731F841F48F48795F1
:1011A00077956795B795F7959E3F08F0B0CF9395E3
:1011B000880F08F09927EE0F9795879508950E945C
:1011C000C90908F481E008950E94F8080C94040A03
:1011D0000E94FD0958F00E94F60940F029F45F3F93
:1011E00029F00C94ED0951110C94380A0C94F30970
:1011F0000E94150A68F39923B1F3552391F3951BC7
:10120000550BBB27AA2762177307840738F09F5F27
:101210005F4F220F331F441FAA1FA9F335D00E2E94
:101220003AF0E0E832D091505040E695001CCAF701
:101230002BD0FE2F29D0660F771F881FBB1F2617C4
:1012400037074807AB07B0E809F0BB0B802DBF019B
:10125000FF2793585F4F3AF09E3F510578F00C946A
:10126000ED090C94380A5F3FE4F3983ED4F3869579
:1012700077956795B795F7959F5FC9F7880F911D8B
:101280009695879597F90895E1E0660F771F881F77
:10129000BB1F621773078407BA0720F0621B730B2A
:1012A000840BBA0BEE1F88F7E09508950E945D0944
:1012B0006894B1110C94380A08950E941D0A88F0B0
:1012C0009F5798F0B92F9927B751B0F0E1F0660F0A
:1012D000771F881F991F1AF0BA95C9F714C0B1304B
:1012E00091F00E94370AB1E008950C94370A672FF5
:1012F000782F8827B85F39F0B93FCCF3869577957A
:101300006795B395D9F73EF4909580957095619562
:101310007F4F8F4F9F4F0895E89409C097FB3EF48D
:1013200090958095709561957F4F8F4F9F4F992332
:10133000A9F0F92F96E9BB279395F69587957795B0
:101340006795B795F111F8CFFAF4BB0F11F460FF70
:101350001BC06F5F7F4F8F4F9F4F16C0882311F0C8
:1013600096E911C0772321F09EE8872F762F05C0DC
:10137000662371F096E8862F70E060E02AF09A9577
:10138000660F771F881FDAF7880F9695879597F96C
:101390000895990F0008550FAA0BE0E8FEEF161606
:1013A0001706E807F907C0F012161306E407F50759
:1013B00098F0621B730B840B950B39F40A2661F0CD
:1013C000232B242B252B21F408950A2609F4A14070
:1013D000A6958FEF811D811D089597F99F6780E87D
:1013E00070E060E008959FEF80EC089500240A9477
:1013F0001616170618060906089500240A941216F0
:101400001306140605060895092E0394000C11F422
:10141000882352F0BB0F40F4BF2B11F460FF04C0CF
:101420006F5F7F4F8F4F9F4F089557FD9058440F28
:10143000551F59F05F3F71F04795880F97FB991F33
:1014400061F09F3F79F087950895121613061406F0
:10145000551FF2CF4695F1DF08C01616170618067D
:10146000991FF1CF86957105610508940895E89458
:10147000BB2766277727CB0197F908950E94C909F2
:1014800008F48FEF08950E94560A0C94040A0E94F3
:10149000F60938F00E94FD0920F0952311F00C9414
:1014A000ED090C94F30911240C94380A0E94150AD2
:1014B00070F3959FC1F3950F50E0551F629FF001A7
:1014C000729FBB27F00DB11D639FAA27F00DB11DC0
:1014D000AA1F649F6627B00DA11D661F829F222749
:1014E000B00DA11D621F739FB00DA11D621F839FD0
:1014F000A00D611D221F749F3327A00D611D231FA6
:10150000849F600D211D822F762F6A2F11249F57F3
:1015100050409AF0F1F088234AF0EE0FFF1FBB1FF6
:10152000661F771F881F91505040A9F79E3F5105B5
:1015300080F00C94ED090C94380A5F3FE4F3983E78
:10154000D4F3869577956795B795F795E7959F5F5F
:10155000C1F7FE2B880F911D9695879597F90895F1
:101560002F923F924F925F926F927F928F929F92B3
:10157000AF92BF92CF92DF92EF92FF920F931F93A1
:10158000CF93DF93CDB7DEB72C970FB6F894DEBFBD
:101590000FBECDBF7C016B018A01FC011782168250
:1015A000838181FFBDC1CE0101964C01F70193817A
:1015B000F60193FD859193FF81916F01882309F4D2
:1015C000ABC1853239F493FD859193FF81916F0111
:1015D000853229F4B70190E00E94C10CE7CF512C6D
:1015E000312C20E02032A0F48B3269F030F48032CC
:1015F00059F0833269F420612CC08D3239F0803388
:1016000039F4216026C02260246023C0286021C0F4
:1016100027FD27C030ED380F3A3078F426FF06C09A
:10162000FAE05F9E300D1124532E13C08AE0389EDD
:10163000300D1124332E20620CC08E3221F426FD91
:101640006BC1206406C08C3611F4206802C0883655
:1016500041F4F60193FD859193FF81916F01811112
:10166000C1CF982F9F7D9554933028F40C5F1F4F66
:10167000FFE3F9830DC0833631F0833771F0833592
:1016800009F05BC022C0F801808189830E5F1F4F83
:1016900044244394512C540115C03801F2E06F0EDC
:1016A000711CF801A080B18026FF03C0652D70E099
:1016B00002C06FEF7FEFC5012C870E94B60C2C0192
:1016C00083012C852F77222E17C03801F2E06F0E90
:1016D000711CF801A080B18026FF03C0652D70E069
:1016E00002C06FEF7FEFC5012C870E94AB0C2C016D
:1016F0002C852068222E830123FC1BC0832D90E0C3
:1017000048165906B0F4B70180E290E00E94C10C7F
:101710003A94F4CFF50127FC859127FE81915F0172
:10172000B70190E00E94C10C31103A94F1E04F1AD9
:1017300051084114510471F7E5C0843611F089361F
:1017400039F5F80127FF07C060817181828193819B
:101750000C5F1F4F08C060817181072E000C880B41
:10176000990B0E5F1F4F2F76722E97FF09C0909531
:101770008095709561957F4F8F4F9F4F2068722E97
:101780002AE030E0A4010E94F90CA82EA81844C059
:10179000853729F42F7EB22E2AE030E025C0F22FC3
:1017A000F97FBF2E8F36C1F018F4883579F0B4C0B8
:1017B000803719F0883721F0AFC02F2F2061B22E6B
:1017C000B4FE0DC08B2D8460B82E09C024FF0AC062
:1017D0009F2F9660B92E06C028E030E005C020E1BA
:1017E00030E002C020E132E0F801B7FE07C06081BE
:1017F0007181828193810C5F1F4F06C0608171816E
:1018000080E090E00E5F1F4FA4010E94F90CA82E0B
:10181000A818FB2DFF777F2E76FE0BC0372D3E7F5D
:10182000A51450F474FE0AC072FC08C0372D3E7E29
:1018300005C0BA2C372D03C0BA2C01C0B52C34FF1B
:101840000DC0FE01EA0DF11D8081803311F4397E57
:1018500009C032FF06C0B394B39404C0832F8678C6
:1018600009F0B39433FD13C030FF06C05A2CB314F3
:1018700018F4530C5B18B32CB31468F4B70180E26E
:1018800090E03C870E94C10CB3943C85F5CFB31423
:1018900010F43B1801C0312C34FF12C0B70180E3B3
:1018A00090E03C870E94C10C3C8532FF17C031FD9F
:1018B00003C088E790E002C088E590E0B7010CC063
:1018C000832F867859F031FF02C08BE201C080E29D
:1018D00037FD8DE2B70190E00E94C10CA51438F4E9
:1018E000B70180E390E00E94C10C5A94F7CFAA940C
:1018F000F401EA0DF11D8081B70190E00E94C10C56
:10190000A110F5CF332009F451CEB70180E290E069
:101910000E94C10C3A94F6CFF7018681978102C0EC
:101920008FEF9FEF2C960FB6F894DEBF0FBECDBFA2
:10193000DF91CF911F910F91FF90EF90DF90CF90AB
:10194000BF90AF909F908F907F906F905F904F90DF
:101950003F902F900895FC01059061507040011058
:10196000D8F7809590958E0F9F1F0895FC016150C8
:10197000704001900110D8F7809590958E0F9F1FB1
:1019800008950F931F93CF93DF93FB01238121FDD4
:1019900003C08FEF9FEF28C022FF16C046815781FA
:1019A000248135814217530744F4A081B1819D0100
:1019B0002F5F3F4F318320838C93268137812F5FA8
:1019C0003F4F3783268310C0EB01092F182F008467
:1019D000F185E02D1995892BE1F68E819F81019685
:1019E0009F838E83812F902FDF91CF911F910F9135
:1019F0000895FA01AA27283051F1203181F1E894A5
:101A00006F936E7F6E5F7F4F8F4F9F4FAF4FB1E0F1
:101A10003ED0B4E03CD0670F781F891F9A1FA11DEC
:101A2000680F791F8A1F911DA11D6A0F711D811DED
:101A3000911DA11D20D009F468943F912AE0269FB2
:101A400011243019305D3193DEF6CF010895462F11
:101A50004770405D4193B3E00FD0C9F7F6CF462FF2
:101A60004F70405D4A3318F0495D31FD405241935B
:101A700002D0A9F7EACFB4E0A69597958795779518
:101A80006795BA95C9F700976105710508959B019F
:101A9000AC010A2E06945795479537952795BA9528
:101AA000C9F7620F731F841F951FA01D0895F89436
:021AB000FFCF66
:101AB20000000003000000009900A8000000F828C0
:101AC200596F75206C6F73742061206C6966652094
:101AD2000A006E65772067616D65207374617274A8
:101AE200696E67200A00534F4C454E4F4944204BC4
:101AF20049434B204F4646200A004D4350204E4F4B
:101B02005420696E204E6F726D616C206D6F64653A
:101B120020616674657220696E6974202564200AEA
:101B2200004D4350204E4F5420696E20636F6E6605
:101B32006967206D6F6465206166746572207265E5
:101B4200736574202564200A0041444320202564E3
:101B5200200A007678203D202564200A00656E6305
:101B62006F6465722076616C203A202564005469A6
:101B72006E6773206B6A657221210A00636F756E4E
:101B8200746572202564200A002863616E5F6D739C
:101B9200675F74297B69643A25782C206C656E3AFC
:101BA20025642C20646174613A7B002C2025780026
:101BB2002D2D2D2D2D2D2D2D2D2D2D2D2D2D2D2D53
:101BC2002D2D2D53544152542D2D2D2D2D2D2D2D96
:101BD2002D0A006572726F72203D202564200A0072
:101BE200636F6E74726F6C5F696E707574203D20E6
:101BF2002564200A007265666572656E6365203D24
:101C0200202564200A00706F736974696F6E203D2D
:101C1200202564200A0064657269766174697665BC
:101C2200203D202564200A0052454D4F5645204252
:101C3200414C4C20594F55204D4F524F4E200A00D7
:101C42006F6B206E6F7720796F752063616E2070E5
:101C52006C6179200A00776F726B696E67200A00E7
:00000001FF
