:100000000C9460030C94CD060C947D030C947D033A
:100010000C947D030C947D030C947D030C947D0360
:100020000C947D030C947D030C947D030C947D0350
:100030000C947D030C947D030C947D030C947D0340
:100040000C947D030C947D030C947D030C947D0330
:100050000C947D030C947D030C947D030C947D0320
:100060000C947D030C947D030C947D030C947D0310
:1000700000000000005C00000C000C007C287C28C4
:1000800058DC68002410480028542840000C000068
:10009000007884008478000054385400107C1000EC
:1000A00080400000101010000040000060100C00A4
:1000B00038543800487C40004864580044542C00B0
:1000C0001C107C005C5424003854240064140C0080
:1000D00068542C0048543800004800008048000054
:1000E0001028440028282800442810000454080040
:1000F00038445C00781478007C5428003844280088
:100100007C4438007C5444007C140400384474005F
:100110007C107C00447C440020403C007C106C003F
:100120007C4040007C187C0078103C00384438004B
:100130007C1408003844B8007C146800485424003B
:10014000047C04007C407C003C603C007C307C00F3
:100150006C106C000C700C0064544C00007C44006B
:100160000C106000447C00000804080080808000BF
:1001700000040800304878007C48300030484800CF
:1001800030487C00306850001078140090A8780047
:100190007C08700050744000808074007C106800FF
:1001A000447C4000781078007808700030483000B7
:1001B000F82810003048F80078100800505828003F
:1001C000083C4800384078003840380078207800F3
:1001D0004830480098A0780048685800107884009B
:1001E000007C00008478100008040804000000006F
:1001F0000000005F00000007000700147F147F1458
:10020000242A7F2A1223130864623649552250009B
:1002100005030000001C2241000041221C00082AA6
:100220001C2A0808083E080800503000000808088A
:100230000808006060000020100804023E51494593
:100240003E00427F400042615149462141454B31C9
:100250001814127F1027454545393C4A4949300159
:10026000710905033649494936064949291E0036B0
:100270003600000056360000000814224114141401
:10028000141441221408000201510906324979412F
:100290003E7E1111117E7F494949363E414141223E
:1002A0007F4141221C7F494949417F090901013EA3
:1002B000414151327F0808087F00417F41002040C2
:1002C000413F017F081422417F404040407F0204AB
:1002D000027F7F0408107F3E4141413E7F090909AA
:1002E000063E4151215E7F09192946464949493157
:1002F00001017F01013F4040403F1F2040201F7F00
:100300002018207F631408146303047804036151E8
:1003100049454300007F4141020408102041417FCC
:100320000000040201020440404040400001020479
:100330000020545454787F4844443838444444207E
:10034000384444487F3854545418087E0901020840
:100350001454543C7F0804047800447D400020403D
:10036000443D00007F10284400417F40007C041879
:1003700004787C0804047838444444387C14141409
:1003800008081414187C7C080404084854545420A9
:10039000043F4440203C4040207C1C2040201C3C2A
:1003A0004030403C44281028440C5050503C446499
:1003B000544C44000836410000007F0000004136E4
:1003C000080002010302010000000000000000001C
:1003D000065F5F0600000000070700070700001423
:1003E0007F7F147F7F1400242E6B6B3A120000462F
:1003F0006630180C666200307A4F5D377A48000428
:1004000007030000000000001C3E634100000000E4
:1004100041633E1C000000082A3E1C1C3E2A0808BE
:10042000083E3E0808000000A0E060000000000850
:100430000808080808000000006060000000006074
:1004400030180C060301003E7F594D7F3E000042EC
:10045000427F7F40400000627359496F660000226E
:100460006349497F360000181C16137F7F10002750
:100470006745457D3900003C7E4B497930000003DB
:100480006371190F070000367F49497F3600000667
:100490004F49693F1E000000006C6C000000000026
:1004A000A0EC6C00000000081C3663410000001442
:1004B00014141414140000004163361C08000002D8
:1004C0000351590F0600003E7F415D5D1F1E007CF9
:1004D0007E13137E7C0000417F7F49497F36001CDC
:1004E0003E634141632200417F7F41637F1C0041A5
:1004F0007F7F495D416300417F7F491D0103001CEF
:100500003E6341517372007F7F08087F7F000000C7
:10051000417F7F41000000307040417F3F0100413A
:100520007F7F081C776300417F7F41406070007FC0
:100530007F060C067F7F007F7F060C187F7F001CE4
:100540003E6341633E1C00417F7F49090F06001E48
:100550003F21717F5E0000417F7F19396F46002681
:10056000674D597B32000003417F7F410300007FCC
:100570007F40407F7F00001F3F60603F1F00007F83
:100580007F3018307F7F0063771C081C776300077B
:100590004F78784F0700006773594D47637100002B
:1005A0007F7F41410000000103060C18306000000D
:1005B00041417F7F000000080C0603060C08008004
:1005C000808080808080800000030704000000207D
:1005D0007454543C784000413F7F44447C38003898
:1005E0007C44446C280000307848493F7F40003804
:1005F0007C54545C180000487E7F49030200009838
:10060000BCA4A4F87C0400417F7F08047C7800002F
:10061000447D7D4000000040C484FD7D0000004119
:100620007F7F10386C440000417F7F400000007CD9
:100630007C0C180C7C78007C7C04047C78000038EE
:100640007C44447C38000084FCF8A4243C18001846
:100650003C24A4F8FC8400447C78441C1800004826
:100660005C54547424000000043E7F442400003C89
:100670007C40403C7C40001C3C60603C1C00003CDA
:100680007C6030607C3C00446C3810386C44009CCA
:10069000BCA0A0FC7C00004C64745C4C64000008AE
:1006A000083E7741410000000000777700000041DC
:1006B00041773E0808000002030103020301000025
:1006C00011241FBECFEFD4E0DEBFCDBF13E0A0E00A
:1006D000B1E0E6E6F5E202C005900D92A831B1075F
:1006E000D9F723E0A8E1B3E001C01D92A139B20718
:1006F000E1F70E94E00C0C94B1120C940000CF932F
:10070000C82F8A3019F48DE00E947F035D9BFECFD5
:10071000CCB9CF9108955F9BFECF8CB190E0089546
:1007200090BD89B988E18AB98EE880BD0895CF93DC
:10073000DF93CDB7DEB7AE014B5F5F4FFA0161913A
:100740007191AF0180E091E00E94990FDF91CF910C
:1007500008950F931F93CF93DF930E94890F8C010D
:100760000E948E0FC0E0D8E10E94890F8883899192
:10077000C11580E2D807C1F7C8010E948E0FC0E002
:10078000D8E10E94890F8991C11580E2D807C9F785
:10079000DF91CF911F910F9108958FEF8ABBDE9A61
:1007A00008950E9470040E947E042FEF8FE797E067
:1007B000215080409040E1F700C00000F4CF8FEF5F
:1007C0008ABB319A8BBB399A2FEF8FEF9DE1215075
:1007D00080409040E1F700C0000039981BBA2FEF2D
:1007E0008FEF9AE4215080409040E1F700C0000074
:1007F000399A0895CF93DF93CDB7DEB764970FB6DC
:10080000F894DEBF0FBECDBF81E00E941B0681E0E1
:100810008B8783E08C8787E08D8782E08E8710E06E
:100820001F87CE010B960E9446062FEF8FEF9DE1AA
:10083000215080409040E1F700C00000CE010196B9
:100840000E9483068A8190E020E030E02817390773
:100850001CF42F5F3F4FFACF1F5FE2CF0E940106CB
:100860000E94F3052FEF8FEF9DE1215080409040D3
:10087000E1F700C000006DE783E00E94AC0583E073
:100880000E949E05EFCF0E944D090E9470040E94B5
:10089000620598321CF00E946F0904C0993D14F45F
:1008A0000E9459090E94730581110E9479092FEF56
:1008B0008FEF9EE0215080409040E1F700C00000A3
:1008C000E6CFE0910E01F0910F01808380E090EF80
:1008D0000197F1F7E0910E01F0910F0180810895E9
:1008E000E8E1F3E090E892838FEF808311829583B3
:1008F00083831482B998C19A08950895CF92DF92A4
:10090000EF92FF920F931F93CF93DF9386E090E0D7
:100910000E946104282F30E000911A0310E00217B2
:10092000130734F5C0911803D0E0BE01621B730BAE
:10093000072E000C880B990B0E94440E6B017C0162
:10094000CE01801B910BBC01990F880B990B0E9463
:10095000440E9B01AC01C701B6010E949A0D9B0198
:10096000AC0160E070E080E89FE30E942D0D26C09E
:10097000C0911903D0E0BE01621B730B072E000C5F
:10098000880B990B0E94440E6B017C01CE01801BE9
:10099000910BBC01990F880B990B0E94440E9B018F
:1009A000AC01C701B6010E949A0D9B01AC0160E049
:1009B00070E080E89FE30E942D0D905820E030E029
:1009C00048EC52E40E94D00E0E940C0ECB01DF9145
:1009D000CF911F910F91FF90EF90DF90CF900895EE
:1009E000CF92DF92EF92FF920F931F93CF93DF93FB
:1009F00087E090E00E946104282F30E000911D0301
:100A000010E00217130734F5C0911B03D0E0BE01BC
:100A1000621B730B072E000C880B990B0E94440E6F
:100A20006B017C01CE01801B910BBC01990F880BDF
:100A3000990B0E94440E9B01AC01C701B6010E94B4
:100A40009A0D9B01AC0160E070E080E89FE30E949A
:100A50002D0D26C0C0911C03D0E0BE01621B730B9C
:100A6000072E000C880B990B0E94440E6B017C0131
:100A7000CE01801B910BBC01990F880B990B0E9432
:100A8000440E9B01AC01C701B6010E949A0D9B0167
:100A9000AC0160E070E080E89FE30E942D0D90586B
:100AA00020E030E048EC52E40E94D00E0E940C0E90
:100AB000CB01DF91CF911F910F91FF90EF90DF90CD
:100AC000CF900895CF93DF930E947E04CEE1D3E0D0
:100AD00088830E94F004898380911E0390911F03F4
:100AE000DF91CF91089586B38695817091E0892733
:100AF000089584E090E00C94610485E090E00C940B
:100B0000610485B7806885BF0895FC01F85E608345
:100B10000895CF93DF931F92CDB7DEB7FC01F85E47
:100B200080811F9290E29F9389830E94970389811D
:100B30000F900F900F90DF91CF910895CF93C82F12
:100B4000C49883E00E940E068C2F0E940E060E941D
:100B50001206C49ACF9108951F93CF93DF931F92EB
:100B6000CDB7DEB7182FC49882E069830E940E06C5
:100B7000812F0E940E066981862F0E940E06C49A5C
:100B80000F90DF91CF911F910895C498877080686E
:100B90000E940E06C49A0895C49880EA0E940E0628
:100BA0000E941206C49A08951F93CF93DF9300D03A
:100BB000CDB7DEB7182FC49885E04A8369830E94B9
:100BC0000E06812F0E940E066981862F0E940E0656
:100BD0004A81842F0E940E06C49A0F900F90DF91D5
:100BE000CF911F910895C49880EC0E940E06C49A7C
:100BF0008FEF9FE20197F1F700C000008EE00C94A8
:100C00009E05BC9ABD9ABF9AC49A6C9A6E9A689ACD
:100C100008958FB9779BFECF8FB108958FB9779BD9
:100C2000FECF089581E60E940E068FB10895C49A02
:100C30000895C4980895CF93DF931F92CDB7DEB780
:100C400089830E9401060E94F3058981882321F08F
:100C5000813039F440E001C040E460EE8FE00E9452
:100C6000D4058EE00E949E0540E660E680E60E9484
:100C7000D40540E064E080E60E94D40543E06FEFD5
:100C80008BE20F90DF91CF910C94D405EF92FF92FD
:100C90000F931F93CF93DF93EC0180E30E949E0597
:100CA00083FDFBCF688165956595659581E30E941D
:100CB000AC0568816295660F607E82E30E94AC0598
:100CC00069816F7085E30E94AC057E0182E0E80EC9
:100CD000F11C00E010E0898190E00817190754F436
:100CE000F70161917F0186E3800F0E94AC050F5FE1
:100CF0001F4FF1CF81E0DF91CF911F910F91FF90B6
:100D0000EF900C94C5050F931F93CF938C018CE249
:100D10000E949E0580FF2EC081E60E949E05C82F7E
:100D200082E60E949E0598E0C99F90011124829559
:100D300086958770282BF801208385E60E949E0502
:100D40008F70F8018183C0E0F8018181C81750F4E9
:100D500086E68C0F0E949E05F801EC0FF11D828340
:100D6000CF5FF2CF40E061E08CE2CF911F910F9115
:100D70000C94D405CF911F910F9108958FB780687F
:100D80008FBFF8948BB780648BBF85B78E7F85BF8C
:100D900085B7826085BF789408951F920F920FB631
:100DA0000F9211242F933F934F935F936F937F93F1
:100DB0008F939F93AF93BF93EF93FF93CF93DF9363
:100DC000CDB7DEB72A97DEBFCDBFCE0101960E9418
:100DD00083062A960FB6F894DEBF0FBECDBFDF9113
:100DE000CF91FF91EF91BF91AF919F918F917F91A3
:100DF0006F915F914F913F912F910F900FBE0F9088
:100E00001F901895CF93DF930E946205CAE1D1E04D
:100E10008A839B830E9473058C830E9479058D834E
:100E20000E947D058E83CE01DF91CF910C94460602
:100E3000E0E0F0E18EEA808381EA80838AED8083BE
:100E400082E1808388EC808388EA80838FE38083DB
:100E500085ED808380E8808381E8808380E58083DE
:100E600089ED808381E2808380E2808392E09083B9
:100E70009BED908390E390839DEA9083108294EAA7
:100E8000908396EA90839FEA90838083108282E227
:100E90008083108287E080838CE48093200310920B
:100EA0002103109222030895CF93DF93C0E0D0E096
:100EB00060E0CE010E9485052196C11584E0D80727
:100EC000B9F7DF91CF910895E0912003EC54E83019
:100ED00028F4F0E0E45BFD4F8081089584E00895FC
:100EE000DF92EF92FF920F931F93CF93DF938A309D
:100EF00049F4809122038F5F8770809322031092C0
:100F0000210344C0C82FC052D12C0C2F10E035E073
:100F1000C39FE00111247801EE0CFF1CEE0CFF1CB6
:100F200093E0000F111F9A95E1F70E946407D8160D
:100F300068F590912003809121039D3451F0933501
:100F400071F09C34E1F4F801ED0DF11DE953FC4F13
:100F50000BC0FE01ED0DF11DE451FE4F05C0F70180
:100F6000ED0DF11DE059FF4F64912091220390E0B7
:100F700030E8239F800D911D11240E9485058091EA
:100F800021038F5F80932103D394CFCFDF91CF9143
:100F90001F910F91FF90EF90DF900895CF93DF9313
:100FA000C0E0D0E06FEFCE010E9485052196C1150B
:100FB00084E0D807B9F7DF91CF9108951F93CF93BD
:100FC000DF93EC0110E0212F30E0FE0101900020C2
:100FD000E9F73197EC1BFD0B2E173F0740F4FE019C
:100FE000E20FF31F80810E9470071F5FECCFDF913B
:100FF000CF911F910895CF93DF93C0E0D0E0CE0151
:101000000E948905809300122196C11584E0D807BB
:10101000B1F71092220310922103DF91CF9108952E
:101020008093220308958093210308950F931F93C3
:10103000CF93DF9304E012E0C0E0D0E080910302A0
:1010400090E0C817D907C4F480912803082E000C3B
:10105000990BC817D90721F48BE692E00E94DE07AE
:10106000F801819191918F010E94DE078DE592E058
:101070000E94DE072196E2CFDF91CF911F910F9161
:101080000C94FB078091280308950F931F93CF932F
:10109000DF9304EA11E0C0E0D0E08091A30190E08A
:1010A000C817D90764F4F801819191918F010E94CA
:1010B000DE078DE592E00E94DE072196EECFDF91FC
:1010C000CF911F910F910C94FB07E0912603F091B3
:1010D000270385899689009741F090932703809391
:1010E0002603109228030C9476080895AF92BF92BD
:1010F000CF92DF92EF92FF920F931F93CF93DF93E4
:101100000E945407E0912603F091270380818130EB
:1011100009F4B7C048F0853009F0B3C0C7E0D0E0AB
:1011200038E0C32ED12C05C004E312E0C0E0D0E0CB
:101130007FC00E94540724E4E22E21E0F22E00E05A
:1011400010E05601AC1ABD0A0A151B0594F4C8013B
:101150008C0F9D1F0E94100880E090E00E941308F1
:10116000F701819191917F010E94DE070F5F1F4F70
:10117000EBCF0E94FB07FFEF2FE787E0F150204005
:101180008040E1F700C00000219798F601E010E0F0
:101190008091430190E080179107ACF10E945407C1
:1011A0007801EE0CFF1CC0E0D0E0CE010E941008D8
:1011B00080E090E00E9413088091430190E09E013E
:1011C000200F311F2817390774F00E94FB07EFEF3B
:1011D000FFE727E0E150F0402040E1F700C00000C9
:1011E0000F5F1F4FD5CFFE01EE0FFF1FEE0DFF1D4E
:1011F000EC5DFE4F80A191A10E94DE072196C830D0
:10120000D10599F6E2CFDF91CF911F910F91FF9019
:10121000EF90DF90CF90BF90AF900C946508F801ED
:10122000808191818E56924051F421960E5F1F4F1E
:101230008091330290E0C817D9078CF316C08091D3
:101240002803082E000C990BC817D90721F48BE648
:1012500092E00E94DE07F801808191810E94DE0702
:101260008DE592E00E94DE07E0CFDF91CF911F91E4
:101270000F91FF90EF90DF90CF90BF90AF900C94C4
:10128000FB07DF91CF911F910F91FF90EF90DF90BF
:10129000CF90BF90AF900C9416080E94D009109286
:1012A000280384E192E090932703809326030C9413
:1012B000760820912803422F022E000C550BE09156
:1012C0002603F0912703878D90E00197481759076F
:1012D0002CF42F5F209328030C94760808958091B6
:1012E000280318162CF48150809328030C94760858
:1012F0000895E0912603F0912703E93E2FEFF207CE
:1013000009F44DC08081811136C00E9454071092AB
:10131000280383E090E00E9410088AE090E00E9499
:10132000130880E792E00E94DE0783E293E00E94C8
:10133000DE070E94FB078FEF9FEF2EE08150904069
:101340002040E1F700C0000084E090E00E94100817
:101350008AE090E00E94130889E792E00E94DE078D
:101360000E94FB078FEF9FE726E1815090402040CD
:10137000E1F700C000C08091260390912703E0911F
:101380002803EE0FFF0BE80FF91F8789908D9093CC
:10139000270380932603109228030C94760808955F
:1013A0000F931F93CF93DF9304E312E0C0E0D0E0EC
:1013B0002091330230E0C9010297C817D9074CF4D5
:1013C000CE010E94130AF801819391938F01219617
:1013D000EFCFF901EE0FFF1FE05DFD4F83E892E0D4
:1013E00091838083220F331FF901EE5CFD4F87E864
:1013F00092E09183808304EA11E0C0E0D0E0809124
:10140000A30190E0C817D9074CF4CE010E941B0A33
:10141000F801819391938F012196F1CFDF91CF91C4
:101420001F910F910895880F991F880F991F0E948F
:10143000AE0A90E008950F931F93CF93DF9300D0EF
:1014400000D0CDB7DEB70A968C01000F111F000F38
:10145000111FC8010E94AE0A8983C80101960E942B
:10146000AE0A8A83C80102960E94AE0ACE01019696
:101470000F900F900F900F90DF91CF911F910F91D0
:101480000895880F991F880F991F8B960C94AE0AA8
:101490000F931F93CF93DF938B01EC01CC0FDD1FD4
:1014A000CC0FDD1FFB016081CE010E94A60AF8016E
:1014B0006181CE0101960E94A60AF8016281CE01E7
:1014C0000296DF91CF911F910F910C94A60AEF9293
:1014D000FF920F931F93CF93DF931F92CDB7DEB789
:1014E0008B010A967C01EE0CFF1CEE0CFF1CFB012D
:1014F0006081C70149830E94A60AF8016181C70182
:1015000001960E94A60AF8016281C70102960E9414
:10151000A60A4981642FC70103960F90DF91CF91EE
:101520001F910F91FF90EF900C94A60ACF93DF9339
:10153000C0E0D0E06EE672E0CE010E94480A21963B
:10154000C630D105B9F7DF91CF910895E199FECF6B
:101550009FBB8EBB6DBBE29AE19A0895E199FECFE5
:101560009FBB8EBBE09A8DB308950E9462058333C2
:101570006CF48E3C0CF0089580912A03181614F434
:10158000815001C083E080932A03089580912A034B
:10159000833014F48F5FF7CF10922A030895181642
:1015A000190654F08E3F2FEF920721F0019631F08B
:1015B00080E208958FE408958FE6089588E5089500
:1015C000AF92BF92CF92DF92EF92FF920F931F9351
:1015D000CF93DF93C0E0D0E08BEFE82E82E0F82ECF
:1015E0009DE5C92E92E0D92E80914702082E000C6D
:1015F000990BC817D907B4F500E010E0CE01855D5E
:101600009C4F5C0180914602082E000C990B081734
:10161000190704F5209147022003F001219FF00DE6
:101620001124EA0DFB1D8081082E000C990B0E94ED
:10163000CF0A282F082E000C330B3F938F93FF9275
:10164000EF920E9497030F5F1F4F0F900F900F9024
:101650000F90D8CFDF92CF920E94970321960F90E0
:101660000F90C2CFDF91CF911F910F91FF90EF901C
:10167000DF90CF90BF90AF900895CF93DF930E94FB
:10168000890F60914702062E000C770B625071099A
:101690000E94050DEC0121960E94890F609146027F
:1016A000062E000C770B625071090E94050DAC01EB
:1016B0004F5F5F4F6091470264039001659F300D5B
:1016C0001124FE01E20FF31FE55DFC4F80818111C3
:1016D000D6CF8EEF8083DF91CF910895CF93DF93A4
:1016E00090914702E92F97FF02C0E1E0E90FE595ED
:1016F000E0938F0380914602282F87FF02C021E0EC
:10170000280F259520939003492F092E000C550B87
:101710000E2E000CFF0BE55DFC4F2902E00DF11DC4
:10172000112491E09083082E000C990BABE2B3E0FA
:101730009C0121503109249FF001259FF00D349F19
:10174000F00D1124E55DFC4FED012FEFBE016B5252
:101750007340641775071CF429932193F7CF20E099
:1017600030E06FEFFA0131972817390754F46C9382
:10177000ED01CE0FDF1F68832F5F3F4FA40FB51F12
:10178000F3CFDF91CF910C943D0B0F931F93CF9329
:10179000DF9320918F03EC01C20FD11D27FDDA9555
:1017A000809190038B01080F111D87FD1A952091E0
:1017B00047022003C001219F900D1124FE01E55D29
:1017C000FC4FE80FF91F80818E3F41F48091440265
:1017D0008F5F809344020E943D0B03C081111092E1
:1017E0002903C0938F0300939003809147020C2E2E
:1017F000000CDD0BC55DDC4F0802C00DD11D1124AE
:10180000809144028F5F8883DF91CF911F910F9168
:10181000089580912A03813079F03CF4811118C039
:1018200060E070E08FEF9FEF11C0823041F08330B5
:1018300079F46FEF7FEF08C061E070E005C060E011
:1018400070E081E090E002C080E090E00E94C50B73
:1018500020914502022E000C330BEBE2F3E0CF01A6
:101860008B529340821793073CF48081181614F42E
:10187000815080833196F3CF08950895EF92FF92BF
:101880000F931F93CF93DF930E945407C0E0D0E0E3
:1018900080914702082E000C990BC817D9073CF518
:1018A00000E010E0CE01855D9C4F7C0180914602F6
:1018B000082E000C990B08171907A4F42091470271
:1018C0002003F001219FF00D1124EE0DFF1D8081FA
:1018D000082E000C990B0E94CF0A0E9470070F5F20
:1018E0001F4FE4CF8AE00E9470072196D1CFC0E05D
:1018F000D0E080914702082E000C990BC817D90739
:101900005CF580E490E00E94130800E010E0CE0156
:10191000855D9C4F7C0180914602082E000C990B3E
:1019200008171907A4F4209147022003F001219F12
:10193000F00D1124EE0DFF1D8081082E000C990B77
:101940000E94CF0A0E9470070F5F1F4FE4CF8AE00A
:101950000E9470072196CDCFDF91CF911F910F91FB
:10196000FF90EF900C94FB070E946E0B81E0809338
:10197000290380912903882381F00E94B50A0E94DF
:10198000090C0E943E0C2FEF8FEF9DE1215080400B
:101990009040E1F700C00000ECCF80914402282F76
:1019A000082E000C330B3F938F938EEF92E09F93A2
:1019B0008F930E9497030F900F900F900F900895B0
:1019C0008FE190E00E94900385B7806885BF0E94F8
:1019D000180784E592E09F938F930E9497038FE509
:1019E00092E09F938F930E94970381E00E941B06D1
:1019F0000E9470040F900F900F900F9080E090EF76
:101A00000197F1F70E940207F9CF97FB072E16F412
:101A1000009407D077FD09D00E94190D07FC05D06E
:101A20003EF4909581959F4F0895709561957F4FF5
:101A30000895AA1BBB1B51E107C0AA1FBB1FA61715
:101A4000B70710F0A61BB70B881F991F5A95A9F767
:101A500080959095BC01CD0108955058BB27AA27C9
:101A60000E94450D0C94960E0E94880E38F00E943C
:101A70008F0E20F039F49F3F19F426F40C94850E54
:101A80000EF4E095E7FB0C947F0EE92F0E94A70E61
:101A900058F3BA17620773078407950720F079F4A3
:101AA000A6F50C94C90E0EF4E0950B2EBA2FA02DBE
:101AB0000B01B90190010C01CA01A0011124FF27FB
:101AC000591B99F0593F50F4503E68F11A16F040F6
:101AD000A22F232F342F4427585FF3CF46953795F5
:101AE0002795A795F0405395C9F77EF41F16BA0BBA
:101AF000620B730B840BBAF09150A1F0FF0FBB1F68
:101B0000661F771F881FC2F70EC0BA0F621F731FB0
:101B1000841F48F4879577956795B795F7959E3F0D
:101B200008F0B0CF9395880F08F09927EE0F97959E
:101B3000879508950E94AE0D0C94960E0E948F0E0C
:101B400058F00E94880E40F029F45F3F29F00C9471
:101B50007F0E51110C94CA0E0C94850E0E94A70E94
:101B600068F39923B1F3552391F3951B550BBB27CC
:101B7000AA2762177307840738F09F5F5F4F220F11
:101B8000331F441FAA1FA9F335D00E2E3AF0E0E808
:101B900032D091505040E695001CCAF72BD0FE2F52
:101BA00029D0660F771F881FBB1F261737074807E6
:101BB000AB07B0E809F0BB0B802DBF01FF2793589E
:101BC0005F4F3AF09E3F510578F00C947F0E0C94D5
:101BD000CA0E5F3FE4F3983ED4F3869577956795F8
:101BE000B795F7959F5FC9F7880F911D96958795D3
:101BF00097F90895E1E0660F771F881FBB1F6217F2
:101C000073078407BA0720F0621B730B840BBA0BAF
:101C1000EE1F88F7E09508950E94130E6894B111A5
:101C20000C94CA0E08950E94AF0E88F09F5798F04A
:101C3000B92F9927B751B0F0E1F0660F771F881FD1
:101C4000991F1AF0BA95C9F714C0B13091F00E94EB
:101C5000C90EB1E008950C94C90E672F782F88271C
:101C6000B85F39F0B93FCCF3869577956795B39512
:101C7000D9F73EF490958095709561957F4F8F4F81
:101C80009F4F0895E89409C097FB3EF49095809586
:101C9000709561957F4F8F4F9F4F9923A9F0F92F32
:101CA00096E9BB279395F695879577956795B795B0
:101CB000F111F8CFFAF4BB0F11F460FF1BC06F5F96
:101CC0007F4F8F4F9F4F16C0882311F096E911C0A8
:101CD000772321F09EE8872F762F05C0662371F0C9
:101CE00096E8862F70E060E02AF09A95660F771FDD
:101CF000881FDAF7880F9695879597F9089597F9D1
:101D00009F6780E870E060E008959FEF80EC0895A1
:101D100000240A94161617061806090608950024CA
:101D20000A9412161306140605060895092E039444
:101D3000000C11F4882352F0BB0F40F4BF2B11F4B8
:101D400060FF04C06F5F7F4F8F4F9F4F089557FD17
:101D50009058440F551F59F05F3F71F04795880F19
:101D600097FB991F61F09F3F79F0879508951216B0
:101D700013061406551FF2CF4695F1DF08C016165C
:101D800017061806991FF1CF86957105610508940D
:101D90000895E894BB2766277727CB0197F9089524
:101DA0000E94E30E0C94960E0E94880E38F00E945A
:101DB0008F0E20F0952311F00C947F0E0C94850E5D
:101DC00011240C94CA0E0E94A70E70F3959FC1F3C4
:101DD000950F50E0551F629FF001729FBB27F00DD9
:101DE000B11D639FAA27F00DB11DAA1F649F66272E
:101DF000B00DA11D661F829F2227B00DA11D621F7D
:101E0000739FB00DA11D621F839FA00D611D221F36
:101E1000749F3327A00D611D231F849F600D211D1A
:101E2000822F762F6A2F11249F5750409AF0F1F09D
:101E300088234AF0EE0FFF1FBB1F661F771F881F06
:101E400091505040A9F79E3F510580F00C947F0EB1
:101E50000C94CA0E5F3FE4F3983ED4F386957795D1
:101E60006795B795F795E7959F5FC1F7FE2B880FAC
:101E7000911D9695879597F908958F929F92AF92AD
:101E8000BF92CF92DF92EF92FF92CF93DF93EC015C
:101E9000688179818A819B81611571058105910530
:101EA00021F464E279ED8BE597E02DE133EF41E039
:101EB00050E00E94171249015A019B01AC01A7EAA8
:101EC000B1E40E9436126B017C01ACEEB4EFA501C7
:101ED00094010E944412DC01CB018C0D9D1DAE1DAE
:101EE000BF1DB7FF03C00197A109B048888399833C
:101EF000AA83BB839F77DF91CF91FF90EF90DF9014
:101F0000CF90BF90AF909F908F9008950E943D0F0B
:101F1000089588E492E00E943D0F0895A0E0B0E0AB
:101F20008093480290934902A0934A02B0934B02D7
:101F30000895ACE0B0E0EFE9FFE00C9449127C01B9
:101F40006B018A01FC0117821682838181FFBDC16A
:101F5000CE0101964C01F7019381F60193FD859125
:101F600093FF81916F01882309F4ABC1853239F465
:101F700093FD859193FF81916F01853229F4B7011B
:101F800090E00E948111E7CF512C312C20E02032CB
:101F9000A0F48B3269F030F4803259F0833269F466
:101FA00020612CC08D3239F0803339F4216026C095
:101FB0002260246023C0286021C027FD27C030EDA7
:101FC000380F3A3078F426FF06C0FAE05F9E300DF5
:101FD0001124532E13C08AE0389E300D1124332E65
:101FE00020620CC08E3221F426FD6BC1206406C035
:101FF0008C3611F4206802C0883641F4F60193FD56
:10200000859193FF81916F018111C1CF982F9F7DA1
:102010009554933028F40C5F1F4FFFE3F9830DC0F4
:10202000833631F0833771F0833509F05BC022C00D
:10203000F801808189830E5F1F4F44244394512C03
:10204000540115C03801F2E06F0E711CF801A08038
:10205000B18026FF03C0652D70E002C06FEF7FEFF7
:10206000C5012C870E9476112C0183012C852F77C6
:10207000222E17C03801F2E06F0E711CF801A0800B
:10208000B18026FF03C0652D70E002C06FEF7FEFC7
:10209000C5012C870E946B112C012C852068222EF3
:1020A000830123FC1BC0832D90E048165906B0F431
:1020B000B70180E290E00E9481113A94F4CFF501DB
:1020C00027FC859127FE81915F01B70190E00E9476
:1020D000811131103A94F1E04F1A51084114510422
:1020E00071F7E5C0843611F0893639F5F80127FF1C
:1020F00007C060817181828193810C5F1F4F08C08E
:1021000060817181072E000C880B990B0E5F1F4FA9
:102110002F76722E97FF09C09095809570956195E6
:102120007F4F8F4F9F4F2068722E2AE030E0A4012E
:102130000E94B911A82EA81844C0853729F42F7E13
:10214000B22E2AE030E025C0F22FF97FBF2E8F3665
:10215000C1F018F4883579F0B4C0803719F08837A9
:1021600021F0AFC02F2F2061B22EB4FE0DC08B2DF9
:102170008460B82E09C024FF0AC09F2F9660B92E34
:1021800006C028E030E005C020E130E002C020E1D8
:1021900032E0F801B7FE07C06081718182819381CE
:1021A0000C5F1F4F06C06081718180E090E00E5F80
:1021B0001F4FA4010E94B911A82EA818FB2DFF776C
:1021C0007F2E76FE0BC0372D3E7FA51450F474FE93
:1021D0000AC072FC08C0372D3E7E05C0BA2C372DD0
:1021E00003C0BA2C01C0B52C34FF0DC0FE01EA0DAE
:1021F000F11D8081803311F4397E09C032FF06C0A1
:10220000B394B39404C0832F867809F0B39433FD5C
:1022100013C030FF06C05A2CB31418F4530C5B18CB
:10222000B32CB31468F4B70180E290E03C870E94BD
:102230008111B3943C85F5CFB31410F43B1801C061
:10224000312C34FF12C0B70180E390E03C870E943C
:1022500081113C8532FF17C031FD03C088E790E053
:1022600002C088E590E0B7010CC0832F867859F052
:1022700031FF02C08BE201C080E237FD8DE2B70181
:1022800090E00E948111A51438F4B70180E390E03A
:102290000E9481115A94F7CFAA94F401EA0DF11D1E
:1022A0008081B70190E00E948111A110F5CF332009
:1022B00009F451CEB70180E290E00E9481113A9476
:1022C000F6CFF7018681978102C08FEF9FEF2C96A2
:1022D000E2E10C946512FC01059061507040011020
:1022E000D8F7809590958E0F9F1F0895FC0161503F
:1022F000704001900110D8F7809590958E0F9F1F28
:1023000008950F931F93CF93DF93FB01238121FD4A
:1023100003C08FEF9FEF28C022FF16C04681578170
:10232000248135814217530744F4A081B1819D0176
:102330002F5F3F4F318320838C93268137812F5F1E
:102340003F4F3783268310C0EB01092F182F0084DD
:10235000F185E02D0995892BE1F68E819F8101960B
:102360009F838E83812F902FDF91CF911F910F91AB
:102370000895FA01AA27283051F1203181F1E8941B
:102380006F936E7F6E5F7F4F8F4F9F4FAF4FB1E068
:102390003ED0B4E03CD0670F781F891F9A1FA11D63
:1023A000680F791F8A1F911DA11D6A0F711D811D64
:1023B000911DA11D20D009F468943F912AE0269F29
:1023C00011243019305D3193DEF6CF010895462F88
:1023D0004770405D4193B3E00FD0C9F7F6CF462F69
:1023E0004F70405D4A3318F0495D31FD40524193D2
:1023F00002D0A9F7EACFB4E0A6959795879577958F
:102400006795BA95C9F700976105710508959B0115
:10241000AC010A2E06945795479537952795BA959E
:10242000C9F7620F731F841F951FA01D0895052E05
:1024300097FB1EF400940E942E1257FD07D00E94B5
:10244000801207FC03D04EF40C942E125095409548
:10245000309521953F4F4F4F5F4F08959095809550
:10246000709561957F4F8F4F9F4F08950E94A212E4
:10247000A59F900DB49F900DA49F800D911D1124D8
:102480000895B7FF0C9436120E943612821B930BEC
:1024900008952F923F924F925F926F927F928F9208
:1024A0009F92AF92BF92CF92DF92EF92FF920F93E3
:1024B0001F93CF93DF93CDB7DEB7CA1BDB0B0FB6ED
:1024C000F894DEBF0FBECDBF09942A8839884888AA
:1024D0005F846E847D848C849B84AA84B984C88440
:1024E000DF80EE80FD800C811B81AA81B981CE0F37
:1024F000D11D0FB6F894DEBF0FBECDBFED0108951C
:10250000A1E21A2EAA1BBB1BFD010DC0AA1FBB1FF7
:10251000EE1FFF1FA217B307E407F50720F0A21B69
:10252000B30BE40BF50B661F771F881F991F1A94D6
:1025300069F760957095809590959B01AC01BD0100
:10254000CF010895A29FB001B39FC001A39F700D5A
:10255000811D1124911DB29F700D811D1124911DAB
:062560000895F894FFCF7E
:1025660000000003000000007F038B03000000143E
:10257600110100000000000000001005000000002E
:1025860000000000059002000000000000000000AE
:10259600000000000000000000E401000000000050
:1025A600000000089802A402AB02B402BB02C302F8
:1025B600CA02D10204000000000000000000000072
:1025C6000000000000000000000000000000000005
:1025D60000000000000000000000000000000000F5
:1025E6000000000003D80200000000000000000008
:1025F600000000000000000000E4010000000000F0
:1026060000000005000000000000000000000000BF
:102616000000000002E302000000000000000000CD
:1026260000000000000000000000000000000000A4
:102636000000000000000000000000000000000094
:102646000000000001E80200000000000000000099
:102656000000000000000000001402B401840154D0
:1026660001240104E302D802F202900200000000F5
:102676000000000000000000000000000000000054
:102686000000000000000000000000E4010000005F
:10269600000000080000000000000000000000002C
:1026A6000000000003640808010000000805040497
:1026B600040404045354415254494E47200A0074FA
:1026C600657374204D6F746F720A002D3E002D00E5
:1026D60057656C636F6D65200046554E2054494D15
:1026E60045210047535400416464207573657200A8
:1026F60043726564697473004265726E74204A6F32
:1027060068616E00566567617264004B6F6C626A41
:102716006F726E0057617365656D004A6F20417276
:1027260076650042656E64696B00456976696E641C
:1027360000526F6265727400486967682073636F40
:10274600726500506C6179004D61696E206D656E31
:10275600750053657474696E67730025630067615D
:102766006D65206F7665722C2073636F72652069C4
:0827760073202564200A000015
:00000001FF
