:100000000C948D030C940D070C94AA030C94AA0372
:100010000C94AA030C94AA030C94AA030C94AA03AC
:100020000C94AA030C94AA030C94AA030C94AA039C
:100030000C94AA030C94AA030C94AA030C94AA038C
:100040000C94AA030C94AA030C94AA030C94AA037C
:100050000C94AA030C94AA030C94AA030C94AA036C
:100060000C94AA030C94AA030C94AA030C94AA035C
:1000700008000000BE922449123EABAAAA2ABECDB7
:10008000CCCC4C3E00000080BEABAAAAAA3E000029
:100090000000BF000000803F000000000008417821
:1000A000D3BB4387D1133D190E3CC3BD4282AD2B58
:1000B0003E68EC8276BED98FE1A93E4C80EFFFBE50
:1000C00001C4FF7F3F000000000000000000005C52
:1000D00000000C000C007C287C2858DC68002410F0
:1000E000480028542840000C0000007884008478E0
:1000F000000054385400107C1000804000001010A4
:1001000010000040000060100C0038543800487C9B
:1001100040004864580044542C001C107C005C547F
:1001200024003854240064140C0068542C004854F3
:1001300038000048000080480000102844002828AB
:100140002800442810000454080038445C00781447
:1001500078007C542800384428007C4438007C54C3
:1001600044007C140400384474007C107C00447CFF
:10017000440020403C007C106C007C4040007C1817
:100180007C0078103C00384438007C140800384467
:10019000B8007C14680048542400047C04007C40AF
:1001A0007C003C603C007C307C006C106C000C706F
:1001B0000C0064544C00007C44000C106000447C33
:1001C0000000080408008080800000040800304817
:1001D00078007C4830003048480030487C00306867
:1001E00050001078140090A878007C0870005074BB
:1001F0004000808074007C106800447C40007810CF
:1002000078007808700030483000F8281000304836
:10021000F8007810080050582800083C4800384082
:10022000780038403800782078004830480098A09E
:1002300078004868580010788400007C00008478BA
:10024000100008040804000000000000005F000027
:100250000007000700147F147F14242A7F2A12232A
:100260001308646236495522500005030000001C43
:100270002241000041221C00082A1C2A0808083ECE
:1002800008080050300000080808080800606000F6
:100290000020100804023E5149453E00427F4000C4
:1002A00042615149462141454B311814127F1027B4
:1002B000454545393C4A49493001710905033649EC
:1002C000494936064949291E00363600000056368F
:1002D00000000008142241141414141441221408BC
:1002E000000201510906324979413E7E1111117E09
:1002F0007F494949363E414141227F4141221C7F8D
:10030000494949417F090901013E414151327F0874
:1003100008087F00417F41002040413F017F0814D1
:1003200022417F404040407F0204027F7F0408104A
:100330007F3E4141413E7F090909063E4151215E10
:100340007F09192946464949493101017F01013F89
:100350004040403F1F2040201F7F2018207F631413
:100360000814630304780403615149454300007F86
:100370004141020408102041417F000004020102B3
:10038000044040404040000102040020545454788E
:100390007F484444383844444420384444487F38F3
:1003A00054545418087E090102081454543C7F0820
:1003B00004047800447D40002040443D00007F104C
:1003C000284400417F40007C041804787C08040421
:1003D0007838444444387C14141408081414187CE5
:1003E0007C080404084854545420043F4440203CF2
:1003F0004040207C1C2040201C3C4030403C442895
:100400001028440C5050503C4464544C440008366E
:10041000410000007F000000413608000201030295
:1004200001000000000000000000065F5F06000001
:10043000000007070007070000147F7F147F7F1468
:1004400000242E6B6B3A120000466630180C666270
:1004500000307A4F5D377A4800040703000000003F
:1004600000001C3E63410000000041633E1C000090
:1004700000082A3E1C1C3E2A0808083E3E080800C8
:100480000000A0E06000000000080808080808005C
:100490000000006060000000006030180C060301DE
:1004A000003E7F594D7F3E000042427F7F4040002A
:1004B00000627359496F660000226349497F360024
:1004C00000181C16137F7F1000276745457D3900F3
:1004D000003C7E4B4979300000036371190F07001F
:1004E00000367F49497F360000064F49693F1E00AC
:1004F0000000006C6C0000000000A0EC6C0000002C
:1005000000081C3663410000001414141414140075
:1005100000004163361C080000020351590F060019
:10052000003E7F415D5D1F1E007C7E13137E7C00BC
:1005300000417F7F49497F36001C3E634141632271
:1005400000417F7F41637F1C00417F7F495D4163A4
:1005500000417F7F491D0103001C3E6341517372BE
:10056000007F7F08087F7F000000417F7F410000FF
:1005700000307040417F3F0100417F7F081C77635E
:1005800000417F7F41406070007F7F060C067F7FC7
:10059000007F7F060C187F7F001C3E6341633E1C7A
:1005A00000417F7F49090F06001E3F21717F5E00D9
:1005B00000417F7F19396F460026674D597B320015
:1005C0000003417F7F410300007F7F40407F7F0029
:1005D000001F3F60603F1F00007F7F3018307F7F2B
:1005E0000063771C081C776300074F78784F07007B
:1005F000006773594D47637100007F7F41410000E0
:10060000000103060C183060000041417F7F0000AC
:1006100000080C0603060C08008080808080808023
:10062000800000030704000000207454543C78400C
:1006300000413F7F44447C3800387C44446C2800AF
:1006400000307848493F7F4000387C54545C1800A3
:1006500000487E7F490302000098BCA4A4F87C04F3
:1006600000417F7F08047C780000447D7D400000CD
:100670000040C484FD7D000000417F7F10386C4441
:100680000000417F7F400000007C7C0C180C7C78CF
:10069000007C7C04047C780000387C44447C380076
:1006A0000084FCF8A4243C1800183C24A4F8FC8422
:1006B00000447C78441C180000485C5454742400A6
:1006C0000000043E7F442400003C7C40403C7C40D1
:1006D000001C3C60603C1C00003C7C6030607C3C4A
:1006E00000446C3810386C44009CBCA0A0FC7C001A
:1006F000004C64745C4C64000008083E7741410083
:100700000000000077770000004141773E080800B4
:100710000002030103020301000011241FBECFEFFA
:10072000D4E0DEBFCDBF14E0A0E0B1E0E2E6FDE240
:1007300002C005900D92A634B107D9F724E0A6E4D3
:10074000B4E001C01D92AA35B207E1F70E945C0F28
:100750000C94AF160C940000CF93C82F8A3019F474
:100760008DE00E94AC035D9BFECFCCB9CF91089584
:100770005F9BFECF8CB190E0089590BD89B988E170
:100780008AB98EE880BD0895CF93DF93CDB7DEB7E9
:10079000AE014B5F5F4FFA0161917191AF0180E053
:1007A00091E00E949713DF91CF9108950F931F93CB
:1007B000CF93DF930E9464138C010E946913C0E001
:1007C000D8E10E94641388838991C11580E2D8071B
:1007D000C1F7C8010E946913C0E0D8E10E94641308
:1007E0008991C11580E2D807C9F7DF91CF911F9198
:1007F0000F9108958FEF8ABBDE9A08950E949D04A1
:100800000E94AF042FEF8FE797E021508040904087
:10081000E1F700C00000F4CF8FEF8ABB319A8BBBA9
:10082000399A2FEF8FEF9DE1215080409040E1F702
:1008300000C0000039981BBA2FEF8FEF9AE42150C7
:1008400080409040E1F700C00000399A0895CF93AE
:10085000DF93CDB7DEB764970FB6F894DEBF0FBE57
:10086000CDBF81E00E94560681E08B8783E08C87B4
:1008700087E08D8782E08E8710E01F87CE010B9680
:100880000E9481062FEF8FEF9DE121508040904024
:10089000E1F700C00000CE0101960E94BE068A81E9
:1008A00090E020E030E0281739071CF42F5F3F4F1D
:1008B000FACF1F5FE2CF0E943C060E942E062FEF68
:1008C0008FEF9DE1215080409040E1F700C0000093
:1008D0006DE783E00E94E70583E00E94D905EFCF32
:1008E0000E949A0E0E949D040E94930598321CF06B
:1008F0000E94BA0E04C0993D14F40E94A40E0E94F6
:10090000A40581110E94C40E2FEF8FEF9EE02150AD
:1009100080409040E1F700C00000E6CFE0910E017A
:10092000F0910F01808380E090EF0197F1F7E09163
:100930000E01F0910F0180810895E6E4F4E090E863
:1009400092838FEF80831182958383831482B99879
:10095000C19ABA98C29ABB98C39A08950895CF9243
:10096000DF92EF92FF920F931F93CF93DF9386E076
:1009700090E00E948E04282F30E00091480410E09F
:100980000217130734F5C0914604D0E0BE01621B84
:10099000730B072E000C880B990B0E945F116B01E3
:1009A0007C01CE01801B910BBC01990F880B990B28
:1009B0000E945F119B01AC01C701B6010E94B510F6
:1009C0009B01AC0160E070E080E89FE30E94311081
:1009D00026C0C0914704D0E0BE01621B730B072EF6
:1009E000000C880B990B0E945F116B017C01CE01FA
:1009F000801B910BBC01990F880B990B0E945F1112
:100A00009B01AC01C701B6010E94B5109B01AC016E
:100A100060E070E080E89FE30E943110905820E091
:100A200030E048EC52E40E9484120E942711CB016E
:100A3000DF91CF911F910F91FF90EF90DF90CF90BA
:100A40000895CF92DF92EF92FF920F931F93CF936F
:100A5000DF9387E090E00E948E04282F30E0009121
:100A60004B0410E00217130734F5C0914904D0E09D
:100A7000BE01621B730B072E000C880B990B0E94A2
:100A80005F116B017C01CE01801B910BBC01990FA2
:100A9000880B990B0E945F119B01AC01C701B60145
:100AA0000E94B5109B01AC0160E070E080E89FE31C
:100AB0000E94311026C0C0914A04D0E0BE01621BE2
:100AC000730B072E000C880B990B0E945F116B01B2
:100AD0007C01CE01801B910BBC01990F880B990BF7
:100AE0000E945F119B01AC01C701B6010E94B510C5
:100AF0009B01AC0160E070E080E89FE30E94311050
:100B0000905820E030E048EC52E40E9484120E94A9
:100B10002711CB01DF91CF911F910F91FF90EF90A3
:100B2000DF90CF900895CF93DF930E94AF04CCE481
:100B3000D4E088830E942105898380914C049091A0
:100B40004D04DF91CF91089586B382FB882780F909
:100B5000089586B383FB882780F9089586B3869528
:100B6000817091E08927089584E090E00C948E04D0
:100B700085E090E00C948E0485B7806885BF089569
:100B8000FC01F85E60830895CF93DF931F92CDB789
:100B9000DEB7FC01F85E80811F9290E29F9389830B
:100BA0000E94C40389810F900F900F90DF91CF9125
:100BB0000895CF93C82FC49883E00E9449068C2FD4
:100BC0000E9449060E944D06C49ACF9108951F9332
:100BD000CF93DF931F92CDB7DEB7182FC49882E072
:100BE00069830E944906812F0E9449066981862FE8
:100BF0000E944906C49A0F90DF91CF911F910895EA
:100C0000C498877080680E944906C49A0895C49861
:100C100080EA0E9449060E944D06C49A08951F93D7
:100C2000CF93DF9300D0CDB7DEB7182FC49885E0FF
:100C30004A8369830E944906812F0E94490669817F
:100C4000862F0E9449064A81842F0E944906C49A31
:100C50000F900F90DF91CF911F910895C49880EC71
:100C60000E944906C49A8FEF9FE20197F1F700C0F6
:100C700000008EE00C94D905BC9ABD9ABF9AC49A24
:100C80006C9A6E9A689A08958FB9779BFECF8FB150
:100C900008958FB9779BFECF089581E60E9449069B
:100CA0008FB10895C49A0895C4980895CF93DF939F
:100CB0001F92CDB7DEB789830E943C060E942E06A4
:100CC0008981882321F0813039F440E001C040E47B
:100CD00060EE8FE00E940F068EE00E94D90540E68C
:100CE00060E680E60E940F0640E064E080E60E9435
:100CF0000F0643E06FEF8BE20F90DF91CF910C94E2
:100D00000F06EF92FF920F931F93CF93DF93EC01A7
:100D100080E30E94D90583FDFBCF688165956595C9
:100D2000659581E30E94E70568816295660F607EA4
:100D300082E30E94E70569816F7085E30E94E70501
:100D40007E0182E0E80EF11C00E010E0898190E075
:100D50000817190754F4F70161917F0186E3800FAA
:100D60000E94E7050F5F1F4FF1CF81E0DF91CF9128
:100D70001F910F91FF90EF900C9400060F931F931B
:100D8000CF938C018CE20E94D90580FF2EC081E6B2
:100D90000E94D905C82F82E60E94D90598E0C99F14
:100DA00090011124829586958770282BF801208365
:100DB00085E60E94D9058F70F8018183C0E0F801B3
:100DC0008181C81750F486E68C0F0E94D905F8017E
:100DD000EC0FF11D8283CF5FF2CF40E061E08CE247
:100DE000CF911F910F910C940F06CF911F910F91EE
:100DF000089581E080935804109259048FB7806859
:100E00008FBFF8948BB780648BBF85B78E7F85BF0B
:100E100085B7826085BF789408951F920F920FB6B0
:100E20000F9211242F933F934F935F936F937F9370
:100E30008F939F93AF93BF93EF93FF93CF93DF93E2
:100E4000CDB7DEB72A97DEBFCDBFCE0101960E9497
:100E5000BE068981813329F0823331F4109258041F
:100E600003C081E0809358042A960FB6F894DEBF41
:100E70000FBECDBFDF91CF91FF91EF91BF91AF91A9
:100E80009F918F917F916F915F914F913F912F91A2
:100E90000F900FBE0F901F901895CF93DF930E9475
:100EA0009305CAE1D1E08A839B830E94AE058C83BF
:100EB0000E94B4058D830E94B8058E830E94A4050C
:100EC0008F83CE01DF91CF910C948106E0E0F0E1B9
:100ED0008EEA808381EA80838AED808382E1808349
:100EE00088EC808388EA80838FE3808385ED80832C
:100EF00080E8808381E8808380E5808389ED80833A
:100F000081E2808380E2808392E090839BED9083F6
:100F100090E390839DEA9083108294EA908396EA0E
:100F200090839FEA90838083108282E28083108284
:100F300087E080838CE480934E0410924F041092DB
:100F400050040895CF93DF93C0E0D0E060E0CE017D
:100F50000E94C0052196C11584E0D807B9F7DF913A
:100F6000CF910895E0914E04EC54E83028F4F0E07D
:100F7000EC52FD4F8081089584E00895DF92EF9256
:100F8000FF920F931F93CF93DF938A3049F48091A0
:100F900050048F5F87708093500410924F0444C0B8
:100FA000C82FC052D12C0C2F10E035E0C39FE001B8
:100FB00011247801EE0CFF1CEE0CFF1C93E0000FD7
:100FC000111F9A95E1F70E94B207D81668F5909123
:100FD0004E0480914F049D3451F0933571F09C3450
:100FE000E1F4F801ED0DF11DEF5DFB4F0BC0FE01CB
:100FF000ED0DF11DEA5BFD4F05C0F701ED0DF11D93
:10100000E653FF4F64912091500490E030E8239F15
:10101000800D911D11240E94C00580914F048F5FA7
:1010200080934F04D394CFCFDF91CF911F910F9135
:10103000FF90EF90DF900895CF93DF93C0E0D0E072
:101040006FEFCE010E94C0052196C11584E0D8073C
:10105000B9F7DF91CF9108951F93CF93DF93EC0100
:1010600010E0212F30E0FE0101900020E9F73197D8
:10107000EC1BFD0B2E173F0740F4FE01E20FF31FA0
:1010800080810E94BE071F5FECCFDF91CF911F913F
:101090000895CF93DF93C0E0D0E0CE010E94C40555
:1010A000809300122196C11584E0D807B1F7109201
:1010B000500410924F04DF91CF9108958093500413
:1010C000089580934F04089570E09B0144E0849F4D
:1010D000200D311D1124C9010C94DF0890E00A96FF
:1010E000880F991F880F991F860F911D0C94DF0898
:1010F00024E0829FC00111248B960C94DF080F938B
:101100001F93CF93DF938B0194E0899FE00111241B
:10111000FB016081CE010E94D708F8016181CE01F8
:1011200001960E94D708F8016281CE010296DF91F4
:10113000CF911F910F910C94D708EF92FF920F93CC
:101140001F93CF93DF931F92CDB7DEB78B0190E053
:101150000A967C01EE0CFF1CEE0CFF1CFB0160816B
:10116000C70149830E94D708F8016181C701019630
:101170000E94D708F8016281C70102960E94D70831
:101180004981642FC70103960F90DF91CF911F9182
:101190000F91FF90EF900C94D7086EE873E080E019
:1011A0000E947F086EE873E081E00C947F08E1996B
:1011B000FECF9FBB8EBB6DBBE29AE19A0895E19989
:1011C000FECF9FBB8EBBE09A8DB308950E9493051E
:1011D00083336CF48E3C0CF0089580913302181622
:1011E00014F4815001C083E080933302089580910C
:1011F0003302833014F48F5FF7CF109233020895D7
:101200000E94A40581110FC00E94A905811101C08F
:1012100008958091AA01181614F4815001C083E04A
:101220008093AA0108958091AA01833014F48F5FFE
:10123000F7CF1092AA0108951816190654F08E3FA0
:101240002FEF920721F0019631F080E208958FE4AC
:1012500008958FE6089588E50895AF92BF92CF92E2
:10126000DF92EF92FF920F931F93CF93DF93C0E033
:10127000D0E081E1E82E83E0F82E91E5C92E93E0DD
:10128000D92E8091AE01082E000C990BC817D907F2
:10129000B4F500E010E0CE0183559E4F5C018091D3
:1012A000AF01082E000C990B0817190704F52091BF
:1012B000AE012003F001219FF00D1124EA0DFB1D6A
:1012C0008481082E000C990B0E941C09282F082EDF
:1012D000000C330B3F938F93FF92EF920E94C40355
:1012E0000F5F1F4F0F900F900F900F90D8CFDF928E
:1012F000CF920E94C40321960F900F90C2CFDF912E
:10130000CF911F910F91FF90EF90DF90CF90BF9002
:10131000AF9008950F931F93CF93DF93EC010E943A
:1013200064136981062E000C770B625071090E94CC
:1013300009108C010F5F1F4F0E9464136A81062EF3
:10134000000C770B625071090E940910AC014F5FCD
:101350005F4F698164039001659F300D1124F8018E
:10136000E20FF31FEC0FFD1FDF0114968481811142
:10137000D6CF8EEF8C93DF91CF911F910F9108956F
:10138000EF92FF920F931F93CF93DF93FC01818124
:10139000482F082E000C550B9281692F092E000C46
:1013A000770B890280011124DF011496ED0120E002
:1013B00030E02017310724F419922F5F3F4FF9CF07
:1013C000282F87FF02C021E0280F2595EF01CC5779
:1013D000DF4F288397FD9F5F9595EF01CB57DF4F38
:1013E0009883EF01C20FD11D27FDDA959802C00D39
:1013F000D11D112481E08C83CB010197849F700162
:10140000859FF00C949FF00C11249D0180E090E0EA
:101410001FEF841795075CF4E90119939E01EC0115
:10142000CE0DDF1DCE0FDF1F1C830196F2CF80E0B3
:1014300090E02FEF7A01D1E0ED1AF10886179707B7
:1014400054F42C938D010E0D1F1DE8012883019685
:10145000A40FB51FF3CFCF01DF91CF911F910F9153
:10146000FF90EF900C948A09CF93DF93EC010E94D8
:10147000C009C857DF4F81E08883DF91CF9108957D
:101480008F929F92AF92BF92CF92DF92EF92FF9294
:101490000F931F93CF93DF93EA014A0124E8820E52
:1014A000911CF40120816C01C20ED11C27FDDA943D
:1014B0005A01F5E8AF0EB11CF50180818B01080FD0
:1014C000111D87FD1A9529812003C001219F900DD0
:1014D0001124FA01EC0DFD1DE80FF91F84819A011A
:1014E00029573F4F79018E3F41F4F90180818F5F89
:1014F0008083CA010E948A0906C0882321F0FA016C
:10150000E857FF4F1082F401C082F5010083898102
:10151000CC0DD11DC7FCDA950802C00DD11D1124D8
:10152000F70180818F5F8C83DF91CF911F910F91A5
:10153000FF90EF90DF90CF90BF90AF909F908F90F3
:101540000895CF93DF93EC01FC01EA57FF4F8081B0
:10155000813089F044F481111CC0AE0160E070E07C
:101560008FEF9FEF14C0823051F0833091F4AE01C1
:101570006FEF7FEF0AC0AE0161E070E006C0AE0120
:1015800060E070E081E090E002C080E090E00E94C6
:10159000400A2B8130E0249640E050E04217530788
:1015A0004CF48881181614F4815088834F5F5F4F84
:1015B0002196F4CFDF91CF9108950895EF92FF9295
:1015C0000F931F93CF93DF93C0E0D0E08091AE01E3
:1015D000082E000C990BC817D9073CF500E010E065
:1015E000CE0183559E4F7C018091AF01082E000CE7
:1015F000990B08171907A4F42091AE012003F001FC
:10160000219FF00D1124EE0DFF1D8481082E000C8A
:10161000990B0E941C090E94BE070F5F1F4FE4CF69
:101620008AE00E94BE072196D1CFDF91CF911F9112
:101630000F91FF90EF900C944908CF93C82F80E151
:101640008093AF0188E08093AE0180E88093B00181
:101650008DEA91E00E94C00981E08093350280917B
:101660003502882341F10E94E6088DEA91E00E944C
:10167000A10A0E94DE0AC23061F0C33091F42FEF5C
:101680008FEF92E0215080409040E1F700C000C011
:10169000E6CF2FEF8FE797E0215080409040E1F7B1
:1016A00007C02FEF8FEF9EE0215080409040E1F780
:1016B00000C00000D4CF80913402CF910895EF9202
:1016C000FF920F931F93CF93DF93C0E0D0E0809100
:1016D0002501082E000C990BC817D9075CF580E48A
:1016E00090E00E94610800E010E0CE018C5D9E4F0A
:1016F0007C0180912601082E000C990B0817190710
:10170000A4F4209125012003F001219FF00D112464
:10171000EE0DFF1D8481082E000C990B0E941C0900
:101720000E94BE070F5F1F4FE4CF8AE00E94BE07F2
:101730002196CDCFDF91CF911F910F91FF90EF9028
:101740000C944908CF93DF93EC018881813029F014
:10175000823029F40E94000902C00E94E608CE01EE
:101760000E94A10A8881813031F0823041F4DF91FA
:10177000CF910C945F0BDF91CF910C94DE0ADF9137
:10178000CF910895CF938DEA91E00E94340A84E2CC
:1017900091E00E94340AC0E0809135028823C9F0AC
:1017A000C0FD04C08DEA91E00E94A20B8091AC01C3
:1017B000882321F084E291E00E94A20B2FEF8FEFAB
:1017C0009EE0215080409040E1F700C00000CF5FD4
:1017D000E3CF8091AC018111E9CF84E193E09F9345
:1017E0008F930E94C4030F900F90CF910895EF92B2
:1017F000FF920F931F93CF93DF93082F0E94A207AE
:101800002FEF8FE797E0215080409040E1F700C034
:10181000000081E090E00E945E088EE193E00E946B
:101820002C0883E090E00E945E0880E090E00E9437
:1018300061088EE50E94BE0785E090E00E945E0888
:1018400080E090E00E94610886E70E94BE0784E085
:1018500090E00E945E0810E0C1E484E090E00E9405
:101860005E08E12EF12CC70123E0880F991F2A950D
:10187000E1F70E9461088C2F0E94BE070E94930529
:10188000983214F0CF5F03C0993D0CF4C1500E9410
:10189000AE05882309F451C0F701EE5AFB4FC0830F
:1018A0001F5F1330D1F42FEF8FE797E02150804076
:1018B0009040E1F700C000000E94490862E574E032
:1018C000802F90E00E947F0800935104DF91CF9118
:1018D0001F910F91FF90EF90089583E090E00E9498
:1018E0005E08C12FD0E0219783E0CC0FDD1F8A95E1
:1018F000E1F7CE010E94610880E20E94BE078EE5FA
:101900000E94BE0785E090E00E945E08CE010E9422
:10191000610880E20E94BE0786E70E94BE0784E05D
:1019200090E00E945E082FEF8FE797E02150804003
:101930009040E1F700C00000C1E40E9449082FEF89
:101940008FE791E0215080409040E1F700C000C057
:1019500084CF809157040895E0915504F091560486
:1019600081819281009741F09093560480935504B1
:10197000109257040C94BD0C08958F929F92AF92D1
:10198000BF92CF92DF92EF92FF920F931F93CF936C
:10199000DF9300D000D01F92CDB7DEB70E94A20720
:1019A000E0915504F09156048081823009F403C11E
:1019B00068F4882309F4B2C0813009F0A9C176E542
:1019C000E72E72E0F72E00E010E025C0853099F197
:1019D000863009F478C1833009F09AC180E493E03D
:1019E0000E942C08B12C9CE5C92E93E0D92ECE0183
:1019F00001967C010AC1F701819191917F010E94BA
:101A00002C0881E593E00E942C080F5F1F4F0530E2
:101A1000110509F4CDC080915704082E000C990BD4
:101A20009801215031092817390729F787E293E0F7
:101A30000E942C08E0CF07E010E067E0862E912C92
:101A40000E94A20758E4C52E52E0D52EE12CF12CBD
:101A50005401A01AB10AEA14FB049CF4C701800FD8
:101A6000911F0E945E0880E090E00E946108F601EC
:101A7000819191916F010E942C08FFEFEF1AFF0AEC
:101A8000EACF0E9449082FEF8FE797E0215080406E
:101A90009040E1F700C000000150110988F601E014
:101AA00010E080916D0290E080179107A4F10E94F0
:101AB000A2076801CC0CDD1CE12CF12CC7010E94AF
:101AC0005E0880E090E00E94610880916D0290E0E5
:101AD0009701200F311F821793077CF0F701EE0F5B
:101AE000FF1FEC0DFD1DE85BFD4F808191810E9481
:101AF0002C08FFEFEF1AFF0AE1CF0E9449082FEFF1
:101B00008FE797E0215080409040E1F700C000004F
:101B10000F5F1F4FC6CF0E94AC0CFAC08AE293E061
:101B20000E942C088AE00E94BE0700E010E080912D
:101B30005704082E000C990B0817190721F487E2A7
:101B400093E00E942C08E12CF12CB701C8010E94FF
:101B500064080E94BE07EFEFEE1AFE0AF3E0EF16EC
:101B6000F10499F781E593E00E942C0801301105FA
:101B700019F001E010E0DBCF80915704823021F4AE
:101B800087E293E00E942C088CE393E00E942C08EB
:101B900081E593E00E942C0880915704833021F462
:101BA00087E293E00E942C088EE193E00E942C08CB
:101BB0000E944908ADC020E4E22E22E0F22E00E0AF
:101BC00010E080915704082E000C990B98012150C9
:101BD00031092817390721F487E293E00E942C0885
:101BE000F701819191917F010E942C0881E593E09A
:101BF0000E942C080F5F1F4F0430110511F7D8CF3A
:101C000081E593E00E942C08B39480918902B81674
:101C100008F043C000E010E08B2C912CB801C40107
:101C20000E946E080E94BE070F5F1F4F0330110510
:101C3000A9F783E593E00E942C08C4010E9478086C
:101C40008C0111271F930F93DF92CF92FF92EF9297
:101C50000E947413B8016F5F7F4F072E000C880B32
:101C6000990B0E945F110E942C120E949E100E94EC
:101C70002E110F900F900F900F900F900F908701E3
:101C8000802F8E19861708F0BBCFF80181918F0144
:101C90006D830E94BE076D81F3CF0E944908FFEF5C
:101CA0002FEF8AE4F15020408040E1F700C00000AF
:101CB0001092570484EB92E090935604809355045D
:101CC0000E94BD0C25C086E3E82E82E0F82E00E0DD
:101CD00010E080915704082E000C990B98012150B8
:101CE00031092817390721F487E293E00E942C0874
:101CF000F701819191917F010E942C0881E593E089
:101D00000E942C080F5F1F4F0530110511F750CFAF
:101D10000F900F900F900F900F90DF91CF911F9128
:101D20000F91FF90EF90DF90CF90BF90AF909F907A
:101D30008F9008951092570484EB92E0909356048C
:101D4000809355040C94BD0C20915704422F022E11
:101D5000000C550BE0915504F0915604858590E0F8
:101D60000197481759072CF42F5F209357040C94C0
:101D7000BD0C08958091570418162CF4815080935F
:101D800057040C94BD0C08950F931F93CF93DF93CA
:101D9000E0915504F0915604908180915704992365
:101DA00021F0963009F44EC06DC0833021F480E0FC
:101DB0000E94F70B02C080935104109257040E94B6
:101DC000A2070091510483E090E00E945E088AE03F
:101DD00090E00E9461088FE593E00E942C08023099
:101DE00018F10E9449082FEF8FEF9EE021508040AC
:101DF0009040E1F700C0000084E090E00E945E089F
:101E00008AE090E00E94610888E693E00E942C0836
:101E10000E9449082FEF8FE796E1215080409040C3
:101E2000E1F700C000C02EC0C0E0D0E010E0BE016D
:101E3000C8010E9464080E94BE072196C330D105E4
:101E4000B1F7CFCF81111AC00E941D0B84E090E042
:101E50000E945E0888E090E00E94610882E793E0BB
:101E60000E942C080E9449082FEF8FEF9BE321501E
:101E700080409040E1F700C0000004C0813011F4C0
:101E80000E94C20B8091550490915604E091570432
:101E9000EE0FFF0BE80FF91F83819481009721F06B
:101EA000909356048093550410925704DF91CF917C
:101EB0001F910F910C94BD0CCF93DF9300D000D0F5
:101EC00000D0CDB7DEB78FE190E00E94BD0385B7AB
:101ED000806885BF0E949D040E9466078CED92E099
:101EE0009F938F930E94C40385E68C8389E68D833C
:101EF00086E78E8382E789838FE68A8382E68B83F7
:101F0000BE016C5F7F4F80E00E947F08BE016F5F63
:101F10007F4F81E00E947F08BE016C5F7F4F81E0B0
:101F20000E947F080E94A2074EEF67EE72E080E0F9
:101F30000E949D084AE06BEE72E081E00E949D08DD
:101F400047E06FEE72E082E00E949D0844E067EE99
:101F500072E083E00E949D0841E06FEE72E084E051
:101F60000E949D080F900F9010E083EFE82E82E012
:101F7000F82E612F81E00E946408282F082E000CA3
:101F8000330B3F938F93FF92EF920E94C4031F5F26
:101F90000F900F900F900F90133059F781E00E942F
:101FA00078081F928F9388EF92E09F938F930E94FF
:101FB000C4032FEF8FEF9DE1215080409040E1F767
:101FC00000C000000E94700485E093E09F938F930F
:101FD0000E94C40381E00E9456060E949D042FEFD8
:101FE0008FEF9DE1215080409040E1F700C000005C
:101FF00080E191E00E9481060F900F900F900F906A
:102000000F900F9080E090EF0197F1F70E944D073D
:10201000F9CF97FB072E16F4009407D077FD09D06F
:102020000E941D1007FC05D03EF4909581959F4FAE
:102030000895709561957F4F0895AA1BBB1B51E1D0
:1020400007C0AA1FBB1FA617B70710F0A61BB70B28
:10205000881F991F5A95A9F780959095BC01CD01CD
:1020600008955058BB27AA270E9449100C94DA11F2
:102070000E94CC1138F00E94D31120F039F49F3F18
:1020800019F426F40C94C9110EF4E095E7FB0C94B6
:102090009A11E92F0E94EB1158F3BA1762077307E0
:1020A0008407950720F079F4A6F50C9425120EF418
:1020B000E0950B2EBA2FA02D0B01B90190010C0158
:1020C000CA01A0011124FF27591B99F0593F50F470
:1020D000503E68F11A16F040A22F232F342F4427C8
:1020E000585FF3CF469537952795A795F0405395C0
:1020F000C9F77EF41F16BA0B620B730B840BBAF090
:102100009150A1F0FF0FBB1F661F771F881FC2F7FA
:102110000EC0BA0F621F731F841F48F4879577950E
:102120006795B795F7959E3F08F0B0CF9395880FC8
:1021300008F09927EE0F9795879508950E940D1244
:1021400090F09F3748F4911116F40C94261260E039
:1021500070E080E89FE3089526F01B16611D711D55
:10216000811D0C94A0110C94BB110E94C9100C94F9
:10217000DA110E94D31158F00E94CC1140F029F4DA
:102180005F3F29F00C949A1151110C9426120C9473
:10219000C9110E94EB1168F39923B1F3552391F310
:1021A000951B550BBB27AA2762177307840738F0C6
:1021B0009F5F5F4F220F331F441FAA1FA9F335D023
:1021C0000E2E3AF0E0E832D091505040E695001CD7
:1021D000CAF72BD0FE2F29D0660F771F881FBB1F91
:1021E000261737074807AB07B0E809F0BB0B802D6F
:1021F000BF01FF2793585F4F3AF09E3F510578F09B
:102200000C949A110C9426125F3FE4F3983ED4F399
:10221000869577956795B795F7959F5FC9F7880F6E
:10222000911D9695879597F90895E1E0660F771FC0
:10223000881FBB1F621773078407BA0720F0621B51
:10224000730B840BBA0BEE1F88F7E09508950E947C
:102250002E116894B1110C94261208950E94F31166
:1022600088F09F5798F0B92F9927B751B0F0E1F057
:10227000660F771F881F991F1AF0BA95C9F714C007
:10228000B13091F00E942512B1E008950C9425120E
:10229000672F782F8827B85F39F0B93FCCF3869540
:1022A00077956795B395D9F73EF49095809570959D
:1022B00061957F4F8F4F9F4F0895E89409C097FB1A
:1022C0003EF490958095709561957F4F8F4F9F4F0D
:1022D0009923A9F0F92F96E9BB279395F695879551
:1022E00077956795B795F111F8CFFAF4BB0F11F414
:1022F00060FF1BC06F5F7F4F8F4F9F4F16C08823BB
:1023000011F096E911C0772321F09EE8872F762FF0
:1023100005C0662371F096E8862F70E060E02AF031
:102320009A95660F771F881FDAF7880F969587951D
:1023300097F9089597F99F6780E870E060E0089545
:10234000882371F4772321F09850872B762F07C0CC
:10235000662311F499270DC09051862B70E060E040
:102360002AF09A95660F771F881FDAF7880F9695DF
:10237000879597F908959F3F31F0915020F4879504
:1023800077956795B795880F911D9695879597F9DD
:1023900008959FEF80EC089500240A9416161706FE
:1023A00018060906089500240A9412161306140646
:1023B00005060895092E0394000C11F4882352F0A9
:1023C000BB0F40F4BF2B11F460FF04C06F5F7F4F61
:1023D0008F4F9F4F089557FD9058440F551F59F048
:1023E0005F3F71F04795880F97FB991F61F09F3F02
:1023F00079F087950895121613061406551FF2CF2B
:102400004695F1DF08C0161617061806991FF1CF7A
:10241000869571056105089408950E94F311A0F056
:10242000BEE7B91788F4BB279F3860F41616B11DB4
:10243000672F782F8827985FF7CF869577956795D0
:10244000B11D93959639C8F30895E894BB27662784
:102450007727CB0197F908950E943C1229ED3BE5BF
:102460004EED5EE30C94841216F00C94BB110C94A8
:10247000C91168940C949A110E94F311A8F399233E
:10248000C1F3AEF3DF93CF931F930F93FF92C92F46
:10249000DD2788232AF02197660F771F881FDAF738
:1024A00020E030E040E85FEB9FE3883920F0803E99
:1024B00038F021968F770E943210E0E7F0E004C0F8
:1024C0000E943210EDE9F0E00E94F1128B01BE0192
:1024D000EC01FB2E6F5771097595771F880B990BCF
:1024E0000E945F1128E132E741E35FE30E94971207
:1024F000AF2D9801AE01FF900F911F91CF91DF9109
:102500000E9449100C94DA110E9497120C94DA116F
:102510000E94CC1138F00E94D31120F0952311F0C5
:102520000C949A110C94C91111240C9426120E9437
:10253000EB1170F3959FC1F3950F50E0551F629F0B
:10254000F001729FBB27F00DB11D639FAA27F00D0C
:10255000B11DAA1F649F6627B00DA11D661F829F33
:102560002227B00DA11D621F739FB00DA11D621F18
:10257000839FA00D611D221F749F3327A00D611D35
:10258000231F849F600D211D822F762F6A2F112417
:102590009F5750409AF0F1F088234AF0EE0FFF1F4A
:1025A000BB1F661F771F881F91505040A9F79E3FA1
:1025B000510580F00C949A110C9426125F3FE4F3BD
:1025C000983ED4F3869577956795B795F795E795F7
:1025D0009F5FC1F7FE2B880F911D9695879597F900
:1025E0000895DF93CF931F930F93FF92EF92DF92A3
:1025F0007B018C01689406C0DA2EEF010E949712CD
:10260000FE01E894A5912591359145915591A6F348
:10261000EF010E944910FE019701A801DA9469F7C1
:10262000DF90EF90FF900F911F91CF91DF91089570
:102630008F929F92AF92BF92CF92DF92EF92FF92D2
:10264000CF93DF93EC01688179818A819B81611549
:1026500071058105910521F464E279ED8BE597E040
:102660002DE133EF41E050E00E94151649015A0177
:102670009B01AC01A7EAB1E40E9434166B017C0116
:10268000ACEEB4EFA50194010E944216DC01CB012F
:102690008C0D9D1DAE1DBF1DB7FF03C00197A10985
:1026A000B04888839983AA83BB839F77DF91CF91BA
:1026B000FF90EF90DF90CF90BF90AF909F908F9062
:1026C00008950E941813089580ED92E00E94181357
:1026D0000895A0E0B0E08093D0029093D102A0933F
:1026E000D202B093D3020895AEE0B0E0EAE7F3E19E
:1026F0000C9455160D891E8986E08C831A830983F4
:102700008FEF9FE79E838D83AE01475E5F4F6F899A
:10271000788DCE0101960E9497132F813885F8019C
:10272000E20FF31F10822E96E4E00C947116ACE0D9
:10273000B0E0EDE9F3E10C9447167C016B018A01EE
:10274000FC0117821682838181FFBDC1CE010196F3
:102750004C01F7019381F60193FD859193FF8191DF
:102760006F01882309F4ABC1853239F493FD85915B
:1027700093FF81916F01853229F4B70190E00E94A7
:102780007F15E7CF512C312C20E02032A0F48B3282
:1027900069F030F4803259F0833269F420612CC042
:1027A0008D3239F0803339F4216026C022602460F4
:1027B00023C0286021C027FD27C030ED380F3A30F4
:1027C00078F426FF06C0FAE05F9E300D1124532EE8
:1027D00013C08AE0389E300D1124332E20620CC0C5
:1027E0008E3221F426FD6BC1206406C08C3611F4B4
:1027F000206802C0883641F4F60193FD859193FF6D
:1028000081916F018111C1CF982F9F7D9554933095
:1028100028F40C5F1F4FFFE3F9830DC0833631F0BE
:10282000833771F0833509F05BC022C0F8018081E5
:1028300089830E5F1F4F44244394512C540115C0CB
:102840003801F2E06F0E711CF801A080B18026FF04
:1028500003C0652D70E002C06FEF7FEFC5012C87CC
:102860000E9474152C0183012C852F77222E17C00E
:102870003801F2E06F0E711CF801A080B18026FFD4
:1028800003C0652D70E002C06FEF7FEFC5012C879C
:102890000E9469152C012C852068222E830123FCBF
:1028A0001BC0832D90E048165906B0F4B70180E2B2
:1028B00090E00E947F153A94F4CFF50127FC8591B2
:1028C00027FE81915F01B70190E00E947F153110D2
:1028D0003A94F1E04F1A51084114510471F7E5C0E0
:1028E000843611F0893639F5F80127FF07C0608179
:1028F0007181828193810C5F1F4F08C0608171815B
:10290000072E000C880B990B0E5F1F4F2F76722E2F
:1029100097FF09C090958095709561957F4F8F4F77
:102920009F4F2068722E2AE030E0A4010E94B71564
:10293000A82EA81844C0853729F42F7EB22E2AE08D
:1029400030E025C0F22FF97FBF2E8F36C1F018F48A
:10295000883579F0B4C0803719F0883721F0AFC0DE
:102960002F2F2061B22EB4FE0DC08B2D8460B82EA7
:1029700009C024FF0AC09F2F9660B92E06C028E028
:1029800030E005C020E130E002C020E132E0F80193
:10299000B7FE07C060817181828193810C5F1F4FF8
:1029A00006C06081718180E090E00E5F1F4FA4013E
:1029B0000E94B715A82EA818FB2DFF777F2E76FE54
:1029C0000BC0372D3E7FA51450F474FE0AC072FC74
:1029D00008C0372D3E7E05C0BA2C372D03C0BA2C57
:1029E00001C0B52C34FF0DC0FE01EA0DF11D808140
:1029F000803311F4397E09C032FF06C0B394B3941A
:102A000004C0832F867809F0B39433FD13C030FFE0
:102A100006C05A2CB31418F4530C5B18B32CB3141F
:102A200068F4B70180E290E03C870E947F15B39480
:102A30003C85F5CFB31410F43B1801C0312C34FFA2
:102A400012C0B70180E390E03C870E947F153C856F
:102A500032FF17C031FD03C088E790E002C088E56F
:102A600090E0B7010CC0832F867859F031FF02C087
:102A70008BE201C080E237FD8DE2B70190E00E9459
:102A80007F15A51438F4B70180E390E00E947F150C
:102A90005A94F7CFAA94F401EA0DF11D8081B70191
:102AA00090E00E947F15A110F5CF332009F451CE9C
:102AB000B70180E290E00E947F153A94F6CFF701CB
:102AC0008681978102C08FEF9FEF2C96E2E10C94F4
:102AD0006316FC010590615070400110D8F7809595
:102AE00090958E0F9F1F0895FC01615070400190DA
:102AF0000110D8F7809590958E0F9F1F08950F9322
:102B00001F93CF93DF93FB01238121FD03C08FEF40
:102B10009FEF28C022FF16C046815781248135814E
:102B20004217530744F4A081B1819D012F5F3F4FAD
:102B3000318320838C93268137812F5F3F4F3783EA
:102B4000268310C0EB01092F182F0084F185E02D9A
:102B50000995892BE1F68E819F8101969F838E8353
:102B6000812F902FDF91CF911F910F910895FA013E
:102B7000AA27283051F1203181F1E8946F936E7FBC
:102B80006E5F7F4F8F4F9F4FAF4FB1E03ED0B4E0AD
:102B90003CD0670F781F891F9A1FA11D680F791FEE
:102BA0008A1F911DA11D6A0F711D811D911DA11DFF
:102BB00020D009F468943F912AE0269F112430190F
:102BC000305D3193DEF6CF010895462F4770405DAA
:102BD0004193B3E00FD0C9F7F6CF462F4F70405D59
:102BE0004A3318F0495D31FD4052419302D0A9F7B4
:102BF000EACFB4E0A6959795879577956795BA95AE
:102C0000C9F700976105710508959B01AC010A2E73
:102C100006945795479537952795BA95C9F7620F4A
:102C2000731F841F951FA01D0895052E97FB1EF48A
:102C300000940E942C1657FD07D00E947E1607FCB8
:102C400003D04EF40C942C16509540953095219558
:102C50003F4F4F4F5F4F08959095809570956195C8
:102C60007F4F8F4F9F4F08950E94A016A59F900DF4
:102C7000B49F900DA49F800D911D11240895B7FF5E
:102C80000C9434160E943416821B930B08952F92D5
:102C90003F924F925F926F927F928F929F92AF92EC
:102CA000BF92CF92DF92EF92FF920F931F93CF9339
:102CB000DF93CDB7DEB7CA1BDB0B0FB6F894DEBFD0
:102CC0000FBECDBF09942A88398848885F846E84F6
:102CD0007D848C849B84AA84B984C884DF80EE8040
:102CE000FD800C811B81AA81B981CE0FD11D0FB649
:102CF000F894DEBF0FBECDBFED010895A1E21A2EFC
:102D0000AA1BBB1BFD010DC0AA1FBB1FEE1FFF1F8F
:102D1000A217B307E407F50720F0A21BB30BE40BDF
:102D2000F50B661F771F881F991F1A9469F7609526
:102D30007095809590959B01AC01BD01CF010895E0
:102D4000A29FB001B39FC001A39F700D811D1124EC
:102D5000911DB29F700D811D1124911D0895F8944D
:022D6000FFCFA3
:102D62000000000300000000AC03B80300000014E0
:102D72001101000000000000000010060000000029
:102D820000000000020808400000000000000000EF
:102D92000000000000000000000000000000000031
:102DA2000000000000000000000000000000000021
:102DB2000000000000000000000000000000000011
:102DC2000000000000000000000000000000000001
:102DD20000000000000000000000000000000000F1
:102DE20000000000000000000000000000000000E1
:102DF20000000000000000000000000000000000D1
:102E020000000000000000000000000300010808AC
:102E12004000000000000000000000000000000070
:102E220000000000000000000000000000000000A0
:102E32000000000000000000000000000000000090
:102E42000000000000000000000000000000000080
:102E52000000000000000000000000000000000070
:102E62000000000000000000000000000000000060
:102E72000000000000000000000000000000000050
:102E82000000000000000000000000000000000040
:102E9200000000000300810390039E03AB03B40310
:102EA200B903C803D103B403D703E103ED03F40369
:102EB200FD0304040B041204210426043104390422
:102EC20005B402000000000000000000000604003B
:102ED20000000000000000000000000003B4020037
:102EE2000000000000000000000506A6020000002D
:102EF200000000A60200000407A602A602000000CD
:102F020000000000000002B40298028A02B402002B
:102F12000000000301C202A6027C026002C202009B
:102F22000004000000B402000000000000000004E1
:102F3200010000000805040404040404535441522F
:102F420054494E47200A0065697600726F6200623A
:102F5200656E002563200A0076616C7565203D2050
:102F62002564200A0074657374204D6F746F720AB1
:102F720000256300596F75206C6F73740A00414419
:102F8200442055534552002D3E002D2D2D43484FD0
:102F92004F534520555345522D2D2D004753540074
:102FA2002D2D48414C4C204F462046414D452D2D5C
:102FB200200A002073636F72653A2000256400576F
:102FC200656C636F6D65200046554E2054494D4532
:102FD2002100534F52525920594F55204C4F5354B0
:102FE200002D2D2D2D534E414B452D2D2D2D2D00D8
:102FF20053494E474C4520504C41594552004D557E
:103002004C544920504C415945520053455454495F
:103012004E4753004241434B002D2D2D2D2D504C38
:1030220041592D2D2D2D2D0050494E47504F4E47C1
:1030320000534E414B45005448414E4B5320544F90
:10304200004245524E54204A4F48414E0056454791
:10305200415244004B4F4C424A4F524E0042454E61
:1030620044494B00454956494E4400524F4245524D
:1030720054002D2D2D2D2D4D41494E2D2D2D2D2D13
:1030820000504C415900484947485F53434F52450D
:103092000043524544495453004348414E4745205A
:0630A200555345520000E9
:00000001FF
