:100000000C9460030C94D2090C947D030C947D0332
:100010000C947D030C947D030C947D030C947D0360
:100020000C947D030C947D030C947D030C947D0350
:100030000C947D030C947D030C947D030C947D0340
:100040000C947D030C947D030C947D030C947D0330
:100050000C947D030C947D030C947D030C947D0320
:100060000C947D030C947D030C947D030C947D0310
:1000700000000000005C00000C000C007C287C28C4
:1000800058DC68002410480028542840000C000068
:10009000007884008478000054385400107C1000EC
:1000A00080400000101010000040000060100C00A4
:1000B00038543800487C40004864580044542C00B0
:1000C0001C107C005C5424003854240064140C0080
:1000D00068542C0048543800004800008048000054
:1000E0001028440028282800442810000454080040
:1000F00038445C00781478007C5428003844280088
:100100007C4438007C5444007C140400384474005F
:100110007C107C00447C440020403C007C106C003F
:100120007C4040007C187C0078103C00384438004B
:100130007C1408003844B8007C146800485424003B
:10014000047C04007C407C003C603C007C307C00F3
:100150006C106C000C700C0064544C00007C44006B
:100160000C106000447C00000804080080808000BF
:1001700000040800304878007C48300030484800CF
:1001800030487C00306850001078140090A8780047
:100190007C08700050744000808074007C106800FF
:1001A000447C4000781078007808700030483000B7
:1001B000F82810003048F80078100800505828003F
:1001C000083C4800384078003840380078207800F3
:1001D0004830480098A0780048685800107884009B
:1001E000007C00008478100008040804000000006F
:1001F0000000005F00000007000700147F147F1458
:10020000242A7F2A1223130864623649552250009B
:1002100005030000001C2241000041221C00082AA6
:100220001C2A0808083E080800503000000808088A
:100230000808006060000020100804023E51494593
:100240003E00427F400042615149462141454B31C9
:100250001814127F1027454545393C4A4949300159
:10026000710905033649494936064949291E0036B0
:100270003600000056360000000814224114141401
:10028000141441221408000201510906324979412F
:100290003E7E1111117E7F494949363E414141223E
:1002A0007F4141221C7F494949417F090901013EA3
:1002B000414151327F0808087F00417F41002040C2
:1002C000413F017F081422417F404040407F0204AB
:1002D000027F7F0408107F3E4141413E7F090909AA
:1002E000063E4151215E7F09192946464949493157
:1002F00001017F01013F4040403F1F2040201F7F00
:100300002018207F631408146303047804036151E8
:1003100049454300007F4141020408102041417FCC
:100320000000040201020440404040400001020479
:100330000020545454787F4844443838444444207E
:10034000384444487F3854545418087E0901020840
:100350001454543C7F0804047800447D400020403D
:10036000443D00007F10284400417F40007C041879
:1003700004787C0804047838444444387C14141409
:1003800008081414187C7C080404084854545420A9
:10039000043F4440203C4040207C1C2040201C3C2A
:1003A0004030403C44281028440C5050503C446499
:1003B000544C44000836410000007F0000004136E4
:1003C000080002010302010000000000000000001C
:1003D000065F5F0600000000070700070700001423
:1003E0007F7F147F7F1400242E6B6B3A120000462F
:1003F0006630180C666200307A4F5D377A48000428
:1004000007030000000000001C3E634100000000E4
:1004100041633E1C000000082A3E1C1C3E2A0808BE
:10042000083E3E0808000000A0E060000000000850
:100430000808080808000000006060000000006074
:1004400030180C060301003E7F594D7F3E000042EC
:10045000427F7F40400000627359496F660000226E
:100460006349497F360000181C16137F7F10002750
:100470006745457D3900003C7E4B497930000003DB
:100480006371190F070000367F49497F3600000667
:100490004F49693F1E000000006C6C000000000026
:1004A000A0EC6C00000000081C3663410000001442
:1004B00014141414140000004163361C08000002D8
:1004C0000351590F0600003E7F415D5D1F1E007CF9
:1004D0007E13137E7C0000417F7F49497F36001CDC
:1004E0003E634141632200417F7F41637F1C0041A5
:1004F0007F7F495D416300417F7F491D0103001CEF
:100500003E6341517372007F7F08087F7F000000C7
:10051000417F7F41000000307040417F3F0100413A
:100520007F7F081C776300417F7F41406070007FC0
:100530007F060C067F7F007F7F060C187F7F001CE4
:100540003E6341633E1C00417F7F49090F06001E48
:100550003F21717F5E0000417F7F19396F46002681
:10056000674D597B32000003417F7F410300007FCC
:100570007F40407F7F00001F3F60603F1F00007F83
:100580007F3018307F7F0063771C081C776300077B
:100590004F78784F0700006773594D47637100002B
:1005A0007F7F41410000000103060C18306000000D
:1005B00041417F7F000000080C0603060C08008004
:1005C000808080808080800000030704000000207D
:1005D0007454543C784000413F7F44447C38003898
:1005E0007C44446C280000307848493F7F40003804
:1005F0007C54545C180000487E7F49030200009838
:10060000BCA4A4F87C0400417F7F08047C7800002F
:10061000447D7D4000000040C484FD7D0000004119
:100620007F7F10386C440000417F7F400000007CD9
:100630007C0C180C7C78007C7C04047C78000038EE
:100640007C44447C38000084FCF8A4243C18001846
:100650003C24A4F8FC8400447C78441C1800004826
:100660005C54547424000000043E7F442400003C89
:100670007C40403C7C40001C3C60603C1C00003CDA
:100680007C6030607C3C00446C3810386C44009CCA
:10069000BCA0A0FC7C00004C64745C4C64000008AE
:1006A000083E7741410000000000777700000041DC
:1006B00041773E0808000002030103020301000025
:1006C00011241FBECFEFD4E0DEBFCDBF13E0A0E00A
:1006D000B1E0E4EBFFE102C005900D92A231B10759
:1006E000D9F723E0A2E1B3E001C01D92AB32B2071B
:1006F000E1F70E940C0A0C94D80F0C940000CF93E1
:10070000C82F8A3019F48DE00E947F035D9BFECFD5
:10071000CCB9CF9108955F9BFECF8CB190E0089546
:1007200090BD89B988E18AB98EE880BD0895CF93DC
:10073000DF93CDB7DEB7AE014B5F5F4FFA0161913A
:100740007191AF0180E091E00E94C00CDF91CF91E8
:100750000895CF92DF92EF92FF920F931F93CF9362
:10076000DF938CE391E09F938F930E9497030E9405
:100770009A0C7C010E949F0C0F900F90C0E0D0E07B
:1007800000E010E093E5C92E91E0D92E0E949A0C6A
:100790009C01FE01F85E808380818217A9F03327D7
:1007A0003F932F931F928F93DF93CF93DF92CF923C
:1007B0000E9497030F5F1F4F8DB79EB708960FB625
:1007C000F8949EBF0FBE8DBF2196C11598E0D90742
:1007D000E9F6C7010E949F0CC0E0D0E0E12CF12CAB
:1007E0008CE8C82E81E0D82E0E949A0CFE01F85E9B
:1007F00020812817B1F099279F938F931F922F93F1
:10080000DF93CF93DF92CF920E9497038FEFE81A86
:10081000F80A8DB79EB708960FB6F8949EBF0FBE24
:100820008DBF2196C11598E0D907F1F6FF92EF929E
:100830001F930F9389EC91E09F938F930E949703EE
:100840000F900F900F900F900F900F90DF91CF911E
:100850001F910F91FF90EF90DF90CF9008958FEF51
:100860008ABBDE9A08950E941005C2E2D2E00E947F
:1008700046059F938F93DF93CF930E94AA0C9FEF1F
:100880002FE787E0915020408040E1F700C0000052
:100890000F900F900F900F90EACF8FEF8ABB319A95
:1008A0008BBB399A2FEF8FEF9DE121508040904014
:1008B000E1F700C0000039981BBA2FEF8FEF9AE4E0
:1008C000215080409040E1F700C00000399A08951F
:1008D000CF93DF93CDB7DEB764970FB6F894DEBF42
:1008E0000FBECDBF81E00E94090981E08B8783E0C4
:1008F0008C8787E08D8782E08E871F868FE392E06A
:100900009F938F930E9497030F900F9010E081E5C3
:10091000C82E82E0D82E93E7A92E92E0B92E20E2CD
:10092000E22E22E0F22E1F87CE010B960E94430991
:100930002FEF8FEF9DE1215080409040E1F700C004
:100940000000CE0101960E9480098A811F928F9338
:100950008981282F082E000C330B3F938F93DF9251
:10096000CF920E949703FE0133964F010F900F9094
:100970000F900F900F900F90612C712C8A8190E056
:10098000681679068CF4F40181914F011F928F93C0
:10099000BF92AF920E949703FFEF6F1A7F0A0F90EA
:1009A0000F900F900F90EACFFF92EF920E94970363
:1009B0001F5F0F900F90B7CF0E94EF080E94C808EA
:1009C000C5E7D2E02FEF8FEF9DE1215080409040AE
:1009D000E1F700C000006DE770E083E090E00E9466
:1009E000810883E090E00E94730899279F938F937A
:1009F000DF93CF930E9497030F900F900F900F906B
:100A0000E1CFE0910E01F0910F01808380E090EF43
:100A10000197F1F7E0910E01F0910F0180810895A7
:100A2000E4E1F3E090E892838FEF80831182958375
:100A300083831482B998C19A1092130310921203FF
:100A40000895089580911A0390911B0318161CF4C1
:100A500089172CF012C0882311F098178CF41916FE
:100A60002CF4981784F082E090E00895992359F0CF
:100A700089174CF083E090E0089581E090E00895BC
:100A800080E090E0089584E090E00895CF92DF92B6
:100A9000EF92FF920F931F93CF93DF9386E090E046
:100AA0000E940105282F30E00091160310E0021784
:100AB000130734F5C0911403D0E0BE01621B730B21
:100AC000072E000C880B990B0E94550B6B017C01C3
:100AD000CE01801B910BBC01990F880B990B0E94D2
:100AE000550B9B01AC01C701B6010E94AB0A9B01EB
:100AF000AC0160E070E080E89FE30E943E0A26C0FF
:100B0000C0911503D0E0BE01621B730B072E000CD1
:100B1000880B990B0E94550B6B017C01CE01801B49
:100B2000910BBC01990F880B990B0E94550B9B01EF
:100B3000AC01C701B6010E94AB0A9B01AC0160E0A9
:100B400070E080E89FE30E943E0A905820E030E089
:100B500048EC52E40E94E10B0E941D0BCB01DF9197
:100B6000CF911F910F91FF90EF90DF90CF9008955C
:100B7000CF92DF92EF92FF920F931F93CF93DF9369
:100B800087E090E00E940105282F30E000911903D2
:100B900010E00217130734F5C0911703D0E0BE012F
:100BA000621B730B072E000C880B990B0E94550BD0
:100BB0006B017C01CE01801B910BBC01990F880B4E
:100BC000990B0E94550B9B01AC01C701B6010E9415
:100BD000AB0A9B01AC0160E070E080E89FE30E94FB
:100BE0003E0A26C0C0911803D0E0BE01621B730B01
:100BF000072E000C880B990B0E94550B6B017C0192
:100C0000CE01801B910BBC01990F880B990B0E94A0
:100C1000550B9B01AC01C701B6010E94AB0A9B01B9
:100C2000AC0160E070E080E89FE30E943E0A9058CB
:100C300020E030E048EC52E40E94E10B0E941D0BE2
:100C4000CB01DF91CF911F910F91FF90EF90DF903B
:100C5000CF900895CF93DF930E944605CAE1D3E079
:100C600088830E94B805898380911A0390911B03A1
:100C7000DF91CF91089586B38695817091E08927A1
:100C8000089584E090E00C94010585E090E00C94D8
:100C9000010586EA8093001008958093001008955E
:100CA0008093001208958093200380558093001054
:100CB00008950E94530680E0109200128F5F8038E2
:100CC000D9F7089580931F03982F9F70E0E0F0E11B
:100CD000908382958F70805F80830895CF9380E0AA
:100CE0000E9462061092200380EB80930010C0E007
:100CF0008C2F0E945906CF5FC830D1F780E00E9448
:100D000062061092200380EB80930010CF9108952B
:100D1000CF93DF931092200380EB8093001080E04C
:100D20000E946206C0E0DFEF8C2F0E94530680E035
:100D3000D09300128F5F8038D9F7CF5FC830A1F70A
:100D40001092200380EB8093001080E0DF91CF9120
:100D50000C946206CF93DF93C0E0D0E18EEA8883E3
:100D600081EA88838AED888382E1888388EC88839E
:100D700088EA88838FE3888385ED888380E8888389
:100D800081E8888380E5888389ED888381E2888390
:100D900080E2888392E098839BED988390E3988328
:100DA0009DEA9883188294EA988396EA98839FEA4A
:100DB00098838883188282E28883188287E08883F8
:100DC00080E00E9462061092200380EB88838CE40E
:100DD00080931E030E9488062FEF8FEF9EE0215024
:100DE00080409040E1F700C00000DF91CF910C946B
:100DF0006E0680931E030895E0911E03EC54E830C4
:100E000028F4F0E0EC5CFE4F8081089584E00895C2
:100E1000CF92DF92EF92FF921F93CF93DF938A30AE
:100E200091F4809120038F5F8770809320030E944C
:100E3000530680E0DF91CF911F91FF90EF90DF90FC
:100E4000CF900C946206805210E0E82EF12C95E0D1
:100E5000899FE00111246701CC0CDD1CCC0CDD1C4A
:100E600093E0EE0CFF1C9A95E1F70E94FC06181720
:100E7000F0F480911E038D3451F0833571F08C3481
:100E8000A1F4F701E10FF11DE953FC4F0BC0FE0186
:100E9000E10FF11DE451FE4F05C0F601E10FF11D18
:100EA000E059FF4FE491E09300121F5FDECFDF9126
:100EB000CF911F91FF90EF90DF90CF900895CF9347
:100EC000DF93CDB7DEB7AE014B5F5F4FFA016191A3
:100ED0007191AF0182E191E00E94C00CDF91CF914E
:100EE00008950F931F93CF93DF93D0E008E010E0B5
:100EF000C0E060E08C2F8D0F0E946908CF5FC03882
:100F0000C1F701501109D0580115110589F7DF917A
:100F1000CF911F910F9108950F931F93CF93DF935C
:100F2000805228E0829F80011124C0E0D0E0FE01C1
:100F3000E00FF11FE953FC4F649190911C038091E5
:100F4000100120E8929F801911248C0F0E946908DB
:100F50002196C830D10559F7809110019091110167
:100F600008969093110180931001DF91CF911F910A
:100F70000F9108950F931F93CF93DF930E946E06F6
:100F8000D0E008E010E0C0E08C2F8D0F0E946E08CA
:100F900080930012CF5FC038B9F701501109D058C3
:100FA0000115110581F7DF91CF911F910F910895E0
:100FB0000F931F93CF93DF9300D0CDB7DEB7898314
:100FC0009A830E9471078981082F9A81192FF8014D
:100FD00081918F01882319F00E948C07F8CF0F9020
:100FE0000F90DF91CF911F910F910C94BA07CF9280
:100FF000DF92EF92FF920F931F93CF93DF9300E264
:1010000011E0C0E0D0E088E7C82E82E0D82E9BE750
:10101000E92E92E0F92E8091230390912403C817C2
:10102000D90731F4DF92CF920E945F070F900F90A3
:10103000F801808191810E5F1F4F9F938F93FF92E4
:10104000EF920E945F0721960F900F900F900F90E4
:10105000C330D10501F7DF91CF911F910F91FF9020
:10106000EF90DF90CF9008950E946E060C94F707E2
:101070001092240310922303109222031092210352
:101080000C943408809123039091240382309105BD
:101090003CF4019690932403809323030C9434082A
:1010A00008958091230390912403181619063CF4A7
:1010B000019790932403809323030C94340808959C
:1010C0008091230390912403089585B7806885BF9C
:1010D0000895E82FF0E0F85E60830895E82FF0E0CF
:1010E000F85E80810895CF93C82FC49883E00E9452
:1010F000FC088C2F0E94FC080E940009C49ACF9122
:1011000008951F93CF93DF931F92CDB7DEB7182FAB
:10111000C49882E069830E94FC08812F0E94FC0829
:101120006981862F0E94FC08C49A0F90DF91CF91AD
:101130001F910895C498877080680E94FC08C49A23
:101140000895C49880EA0E94FC080E940009C49A8D
:1011500008951F93CF93DF9300D0CDB7DEB7182F3C
:10116000C49885E04A8369830E94FC08812F0E940D
:10117000FC086981862F0E94FC084A81842F0E9406
:10118000FC08C49A0F900F90DF91CF911F910895A2
:1011900087EB92E09F938F930E949703C49880EC13
:1011A0000E94FC08C49A8FEF9FE20197F1F700C0FC
:1011B00000008EE00E947308982F907E0F900F9091
:1011C000903861F01F928F9385EC92E09F938F93FC
:1011D0000E9497030F900F900F900F900895BC9A64
:1011E000BD9ABF9AC49A6C9A6E9A689A08958FB9FC
:1011F000779BFECF8FB108958FB9779BFECF08956F
:1012000081E60E94FC088FB10895C49A0895C4989D
:101210000895CF93DF931F92CDB7DEB789830E94E5
:10122000EF080E94C8088981882321F0813039F4B1
:1012300040E001C040E460EE8FE00E94A9088EE02B
:101240000E947308982F907E61F01F928F9385EC17
:1012500092E09F938F930E9497030F900F900F90AF
:101260000F9040E660E680E60E94A90840E064E056
:1012700080E60E94A90843E06FEF8BE20F90DF91B8
:10128000CF910C94A908EF92FF920F931F93CF93E5
:10129000DF93EC0180E30E94730883FDFBCF68813C
:1012A00065956595659581E30E94810868816295E1
:1012B000660F607E82E30E94810869816F7085E31A
:1012C0000E9481087E0182E0E80EF11C00E010E03F
:1012D000898190E00817190754F4F70161917F01A3
:1012E00086E3800F0E9481080F5F1F4FF1CF81E0DE
:1012F000DF91CF911F910F91FF90EF900C949A087E
:101300000F931F93CF938C018CE20E94730880FF90
:1013100036C08DEE92E09F938F930E94970381E6F3
:101320000E947308C82F82E60E94730898E0C99F44
:1013300090011124829586958770282BF8012083CF
:1013400085E60E9473088F70F80181830F900F90DB
:10135000C0E0F8018181C81750F486E68C0F0E9426
:101360007308F801EC0FF11D8283CF5FF2CF40E0EC
:1013700061E08CE2CF911F910F910C94A908CF915D
:101380001F910F9108958FB780688FBFF8948BB726
:1013900080648BBF85B78E7F85BF85B7826085BF30
:1013A000789408951F920F920FB60F9211242F93E5
:1013B0003F934F935F936F937F938F939F93AF93DD
:1013C000BF93EF93FF938EEF92E09F938F930E94D2
:1013D00097030F900F90FF91EF91BF91AF919F9165
:1013E0008F917F916F915F914F913F912F910F90CE
:1013F0000FBE0F901F901895CF93DF930E942A067F
:10140000C6E2D1E08A839B830E943B068C83CE0197
:10141000DF91CF910C9443098FE190E00E949003FB
:1014200085B7806885BF0E94AA060E94A90384E947
:1014300092E09F938F930E9497038FE992E00E941E
:10144000D8070E94C3098BEA92E09F938F930E9472
:10145000970381E00E9409090E9410050F900F90E8
:101460000F900F902FEF8FE791E021508040904038
:10147000E1F700C000C00E94FC09F4CF5058BB2720
:10148000AA270E94560A0C94A70B0E94990B38F0C9
:101490000E94A00B20F039F49F3F19F426F40C941D
:1014A000960B0EF4E095E7FB0C94900BE92F0E944D
:1014B000B80B58F3BA17620773078407950720F033
:1014C00079F4A6F50C94DA0B0EF4E0950B2EBA2FF6
:1014D000A02D0B01B90190010C01CA01A00111243A
:1014E000FF27591B99F0593F50F4503E68F11A16E6
:1014F000F040A22F232F342F4427585FF3CF469577
:1015000037952795A795F0405395C9F77EF41F1698
:10151000BA0B620B730B840BBAF09150A1F0FF0F62
:10152000BB1F661F771F881FC2F70EC0BA0F621F4E
:10153000731F841F48F4879577956795B795F7953E
:101540009E3F08F0B0CF9395880F08F09927EE0FD3
:101550009795879508950E94BF0A0C94A70B0E9447
:10156000A00B58F00E94990B40F029F45F3F29F03E
:101570000C94900B51110C94DB0B0C94960B0E9465
:10158000B80B68F39923B1F3552391F3951B550BD1
:10159000BB27AA2762177307840738F09F5F5F4F46
:1015A000220F331F441FAA1FA9F335D00E2E3AF085
:1015B000E0E832D091505040E695001CCAF72BD09D
:1015C000FE2F29D0660F771F881FBB1F26173707EE
:1015D0004807AB07B0E809F0BB0B802DBF01FF2720
:1015E00093585F4F3AF09E3F510578F00C94900B62
:1015F0000C94DB0B5F3FE4F3983ED4F3869577952C
:101600006795B795F7959F5FC9F7880F911D9695D8
:10161000879597F90895E1E0660F771F881FBB1F34
:10162000621773078407BA0720F0621B730B840BE1
:10163000BA0BEE1F88F7E09508950E94240B68947A
:10164000B1110C94DB0B08950E94C00B88F09F57DA
:1016500098F0B92F9927B751B0F0E1F0660F771FD6
:10166000881F991F1AF0BA95C9F714C0B13091F0CC
:101670000E94DA0BB1E008950C94DA0B672F782FF3
:101680008827B85F39F0B93FCCF386957795679591
:10169000B395D9F73EF490958095709561957F4FFD
:1016A0008F4F9F4F0895E89409C097FB3EF49095A3
:1016B0008095709561957F4F8F4F9F4F9923A9F02B
:1016C000F92F96E9BB279395F695879577956795BA
:1016D000B795F111F8CFFAF4BB0F11F460FF1BC0FE
:1016E0006F5F7F4F8F4F9F4F16C0882311F096E991
:1016F00011C0772321F09EE8872F762F05C066233F
:1017000071F096E8862F70E060E02AF09A95660FF7
:10171000771F881FDAF7880F9695879597F90895B0
:1017200097F99F6780E870E060E008959FEF80EC94
:10173000089500240A941616170618060906089537
:1017400000240A9412161306140605060895092E9D
:101750000394000C11F4882352F0BB0F40F4BF2B0C
:1017600011F460FF04C06F5F7F4F8F4F9F4F08954C
:1017700057FD9058440F551F59F05F3F71F0479542
:10178000880F97FB991F61F09F3F79F08795089527
:10179000121613061406551FF2CF4695F1DF08C046
:1017A000161617061806991FF1CF86957105610563
:1017B00008940895E894BB2766277727CB0197F90B
:1017C00008950E94F40B0C94A70B0E94990B38F01B
:1017D0000E94A00B20F0952311F00C94900B0C9418
:1017E000960B11240C94DB0B0E94B80B70F3959FA1
:1017F000C1F3950F50E0551F629FF001729FBB2708
:10180000F00DB11D639FAA27F00DB11DAA1F649FA3
:101810006627B00DA11D661F829F2227B00DA11D56
:10182000621F739FB00DA11D621F839FA00D611DDC
:10183000221F749F3327A00D611D231F849F600DFD
:10184000211D822F762F6A2F11249F5750409AF026
:10185000F1F088234AF0EE0FFF1FBB1F661F771FB2
:10186000881F91505040A9F79E3F510580F00C947D
:10187000900B0C94DB0B5F3FE4F3983ED4F386951A
:1018800077956795B795F795E7959F5FC1F7FE2B1D
:10189000880F911D9695879597F908958F929F923D
:1018A000AF92BF92CF92DF92EF92FF92CF93DF93EE
:1018B000EC01688179818A819B81611571058105BF
:1018C000910521F464E279ED8BE597E02DE133EFAA
:1018D00041E050E00E943E0F49015A019B01AC01DA
:1018E000A7EAB1E40E945D0F6B017C01ACEEB4EF9E
:1018F000A50194010E946B0FDC01CB018C0D9D1D95
:10190000AE1DBF1DB7FF03C00197A109B048888372
:101910009983AA83BB839F77DF91CF91FF90EF904C
:10192000DF90CF90BF90AF909F908F9008950E94CE
:101930004E0C089580E391E00E944E0C0895A0E0C3
:10194000B0E08093300190933101A0933201B093C5
:1019500033010895A0E0B0E0E0EBFCE00C94800FD0
:10196000AE014B5F5F4FFA0161917191AF018091C0
:101970002703909128030E94C00CE2E00C949C0F76
:10198000ACE0B0E0E6ECFCE00C94700F7C016B0185
:101990008A01FC0117821682838181FFBDC1CE01BD
:1019A00001964C01F7019381F60193FD859193FF18
:1019B00081916F01882309F4ABC1853239F493FD1D
:1019C000859193FF81916F01853229F4B70190E0F1
:1019D0000E94A80EE7CF512C312C20E02032A0F439
:1019E0008B3269F030F4803259F0833269F420612F
:1019F0002CC08D3239F0803339F4216026C022604A
:101A0000246023C0286021C027FD27C030ED380F97
:101A10003A3078F426FF06C0FAE05F9E300D1124BC
:101A2000532E13C08AE0389E300D1124332E2062CD
:101A30000CC08E3221F426FD6BC1206406C08C36AA
:101A400011F4206802C0883641F4F60193FD8591B7
:101A500093FF81916F018111C1CF982F9F7D955484
:101A6000933028F40C5F1F4FFFE3F9830DC08336DA
:101A700031F0833771F0833509F05BC022C0F80183
:101A8000808189830E5F1F4F44244394512C54015D
:101A900015C03801F2E06F0E711CF801A080B18012
:101AA00026FF03C0652D70E002C06FEF7FEFC50118
:101AB0002C870E949D0E2C0183012C852F77222ECE
:101AC00017C03801F2E06F0E711CF801A080B180E0
:101AD00026FF03C0652D70E002C06FEF7FEFC501E8
:101AE0002C870E94920E2C012C852068222E8301C7
:101AF00023FC1BC0832D90E048165906B0F4B701B3
:101B000080E290E00E94A80E3A94F4CFF50127FC01
:101B1000859127FE81915F01B70190E00E94A80E98
:101B200031103A94F1E04F1A51084114510471F701
:101B3000E5C0843611F0893639F5F80127FF07C072
:101B400060817181828193810C5F1F4F08C0608129
:101B50007181072E000C880B990B0E5F1F4F2F769B
:101B6000722E97FF09C090958095709561957F4F73
:101B70008F4F9F4F2068722E2AE030E0A4010E9410
:101B8000E00EA82EA81844C0853729F42F7EB22E67
:101B90002AE030E025C0F22FF97FBF2E8F36C1F04A
:101BA00018F4883579F0B4C0803719F0883721F0FF
:101BB000AFC02F2F2061B22EB4FE0DC08B2D8460DC
:101BC000B82E09C024FF0AC09F2F9660B92E06C008
:101BD00028E030E005C020E130E002C020E132E042
:101BE000F801B7FE07C060817181828193810C5F2B
:101BF0001F4F06C06081718180E090E00E5F1F4F33
:101C0000A4010E94E00EA82EA818FB2DFF777F2EBE
:101C100076FE0BC0372D3E7FA51450F474FE0AC02B
:101C200072FC08C0372D3E7E05C0BA2C372D03C08C
:101C3000BA2C01C0B52C34FF0DC0FE01EA0DF11D18
:101C40008081803311F4397E09C032FF06C0B3941D
:101C5000B39404C0832F867809F0B39433FD13C086
:101C600030FF06C05A2CB31418F4530C5B18B32C75
:101C7000B31468F4B70180E290E03C870E94A80E9C
:101C8000B3943C85F5CFB31410F43B1801C0312C4C
:101C900034FF12C0B70180E390E03C870E94A80E99
:101CA0003C8532FF17C031FD03C088E790E002C0D9
:101CB00088E590E0B7010CC0832F867859F031FF9A
:101CC00002C08BE201C080E237FD8DE2B70190E0F7
:101CD0000E94A80EA51438F4B70180E390E00E949A
:101CE000A80E5A94F7CFAA94F401EA0DF11D808151
:101CF000B70190E00E94A80EA110F5CF332009F49F
:101D000051CEB70180E290E00E94A80E3A94F6CF3F
:101D1000F7018681978102C08FEF9FEF2C96E2E159
:101D20000C948C0FFC010590615070400110D8F7A5
:101D3000809590958E0F9F1F0895FC016150704013
:101D400001900110D8F7809590958E0F9F1F0895F0
:101D50000F931F93CF93DF93FB01238121FD03C0DA
:101D60008FEF9FEF28C022FF16C046815781248144
:101D700035814217530744F4A081B1819D012F5F43
:101D80003F4F318320838C93268137812F5F3F4FD4
:101D90003783268310C0EB01092F182F0084F185AB
:101DA000E02D0995892BE1F68E819F8101969F8315
:101DB0008E83812F902FDF91CF911F910F910895E6
:101DC000FA01AA27283051F1203181F1E8946F936C
:101DD0006E7F6E5F7F4F8F4F9F4FAF4FB1E03ED012
:101DE000B4E03CD0670F781F891F9A1FA11D680FB0
:101DF000791F8A1F911DA11D6A0F711D811D911DE3
:101E0000A11D20D009F468943F912AE0269F112457
:101E10003019305D3193DEF6CF010895462F4770BB
:101E2000405D4193B3E00FD0C9F7F6CF462F4F7016
:101E3000405D4A3318F0495D31FD4052419302D074
:101E4000A9F7EACFB4E0A69597958795779567951A
:101E5000BA95C9F700976105710508959B01AC011A
:101E60000A2E06945795479537952795BA95C9F741
:101E7000620F731F841F951FA01D0895052E97FBE9
:101E80001EF400940E94550F57FD07D00E94A70F23
:101E900007FC03D04EF40C94550F509540953095A7
:101EA00021953F4F4F4F5F4F0895909580957095C6
:101EB00061957F4F8F4F9F4F08950E94C90FA59F37
:101EC000900DB49F900DA49F800D911D1124089535
:101ED000B7FF0C945D0F0E945D0F821B930B08955A
:101EE0002F923F924F925F926F927F928F929F922A
:101EF000AF92BF92CF92DF92EF92FF920F931F9318
:101F0000CF93DF93CDB7DEB7CA1BDB0B0FB6F894C8
:101F1000DEBF0FBECDBF09942A88398848885F8408
:101F20006E847D848C849B84AA84B984C884DF8079
:101F3000EE80FD800C811B81AA81B981CE0FD11D5D
:101F40000FB6F894DEBF0FBECDBFED010895A1E23C
:101F50001A2EAA1BBB1BFD010DC0AA1FBB1FEE1F23
:101F6000FF1FA217B307E407F50720F0A21BB30B6E
:101F7000E40BF50B661F771F881F991F1A9469F7EA
:101F800060957095809590959B01AC01BD01CF0146
:101F90000895A29FB001B39FC001A39F700D811D42
:101FA0001124911DB29F700D811D1124911D089562
:041FB000F894FFCFD3
:101FB40000000003000000007F038B0300000014F6
:101FC40028000000000200000000080700000000D4
:101FD4007E0286028E02330300000000000000002F
:101FE400010000000805040404040404537461722D
:101FF40074696E67205352414D20746573742E2E9C
:102004002E0A0057726974652070686173652065D3
:1020140072726F723A206578745F72616D5B2534F9
:10202400645D203D2025303258202873686F756C1C
:10203400642062652025303258290A005265747282
:10204400696576616C207068617365206572726F72
:10205400723A206578745F72616D5B2534645D202B
:102064003D2025303258202873686F756C642062D7
:10207400652025303258290A005352414D20746599
:10208400737420636F6D706C657465642077697414
:1020940068200A253464206572726F727320696E39
:1020A40020777269746520706861736520616E645D
:1020B400200A253464206572726F727320696E2061
:1020C40072657472696576616C2070686173650A03
:1020D4000A007468697320697320746865207661E6
:1020E4006C75652078203D2025303264200A004339
:1020F400414E2054455354205354415254494E4761
:10210400002863616E5F6D73675F74297B69643A4D
:1021140025782C206C656E3A25642C2064617461EA
:102124003A7B002C202578002D3E0025730045695C
:1021340076696E640A00526F626572740A004172B5
:102144006E650A005354415254494E47200A0068B0
:10215400656C6C6F20776F726C64007465737420A7
:102164004D6F746F720A00726573657420737461C5
:102174007274200A004D4350204E4F5420696E2043
:10218400636F6E666967206D6F6465206166746550
:1021940072207265736574202564200A0067657473
:1021A40020736F6D65206D65737361676500496E9B
:1021B40074657272757074207669726B6572200A28
:0221C400000019
:00000001FF
