:100000000C9460030C947D030C947D030C947D038D
:100010000C947D030C947D030C947D030C947D0360
:100020000C947D030C947D030C947D030C947D0350
:100030000C947D030C947D030C947D030C947D0340
:100040000C947D030C947D030C947D030C947D0330
:100050000C947D030C947D030C947D030C947D0320
:100060000C947D030C947D030C947D030C947D0310
:1000700000000000005C00000C000C007C287C28C4
:1000800058DC68002410480028542840000C000068
:10009000007884008478000054385400107C1000EC
:1000A00080400000101010000040000060100C00A4
:1000B00038543800487C40004864580044542C00B0
:1000C0001C107C005C5424003854240064140C0080
:1000D00068542C0048543800004800008048000054
:1000E0001028440028282800442810000454080040
:1000F00038445C00781478007C5428003844280088
:100100007C4438007C5444007C140400384474005F
:100110007C107C00447C440020403C007C106C003F
:100120007C4040007C187C0078103C00384438004B
:100130007C1408003844B8007C146800485424003B
:10014000047C04007C407C003C603C007C307C00F3
:100150006C106C000C700C0064544C00007C44006B
:100160000C106000447C00000804080080808000BF
:1001700000040800304878007C48300030484800CF
:1001800030487C00306850001078140090A8780047
:100190007C08700050744000808074007C106800FF
:1001A000447C4000781078007808700030483000B7
:1001B000F82810003048F80078100800505828003F
:1001C000083C4800384078003840380078207800F3
:1001D0004830480098A0780048685800107884009B
:1001E000007C00008478100008040804000000006F
:1001F0000000005F00000007000700147F147F1458
:10020000242A7F2A1223130864623649552250009B
:1002100005030000001C2241000041221C00082AA6
:100220001C2A0808083E080800503000000808088A
:100230000808006060000020100804023E51494593
:100240003E00427F400042615149462141454B31C9
:100250001814127F1027454545393C4A4949300159
:10026000710905033649494936064949291E0036B0
:100270003600000056360000000814224114141401
:10028000141441221408000201510906324979412F
:100290003E7E1111117E7F494949363E414141223E
:1002A0007F4141221C7F494949417F090901013EA3
:1002B000414151327F0808087F00417F41002040C2
:1002C000413F017F081422417F404040407F0204AB
:1002D000027F7F0408107F3E4141413E7F090909AA
:1002E000063E4151215E7F09192946464949493157
:1002F00001017F01013F4040403F1F2040201F7F00
:100300002018207F631408146303047804036151E8
:1003100049454300007F4141020408102041417FCC
:100320000000040201020440404040400001020479
:100330000020545454787F4844443838444444207E
:10034000384444487F3854545418087E0901020840
:100350001454543C7F0804047800447D400020403D
:10036000443D00007F10284400417F40007C041879
:1003700004787C0804047838444444387C14141409
:1003800008081414187C7C080404084854545420A9
:10039000043F4440203C4040207C1C2040201C3C2A
:1003A0004030403C44281028440C5050503C446499
:1003B000544C44000836410000007F0000004136E4
:1003C000080002010302010000000000000000001C
:1003D000065F5F0600000000070700070700001423
:1003E0007F7F147F7F1400242E6B6B3A120000462F
:1003F0006630180C666200307A4F5D377A48000428
:1004000007030000000000001C3E634100000000E4
:1004100041633E1C000000082A3E1C1C3E2A0808BE
:10042000083E3E0808000000A0E060000000000850
:100430000808080808000000006060000000006074
:1004400030180C060301003E7F594D7F3E000042EC
:10045000427F7F40400000627359496F660000226E
:100460006349497F360000181C16137F7F10002750
:100470006745457D3900003C7E4B497930000003DB
:100480006371190F070000367F49497F3600000667
:100490004F49693F1E000000006C6C000000000026
:1004A000A0EC6C00000000081C3663410000001442
:1004B00014141414140000004163361C08000002D8
:1004C0000351590F0600003E7F415D5D1F1E007CF9
:1004D0007E13137E7C0000417F7F49497F36001CDC
:1004E0003E634141632200417F7F41637F1C0041A5
:1004F0007F7F495D416300417F7F491D0103001CEF
:100500003E6341517372007F7F08087F7F000000C7
:10051000417F7F41000000307040417F3F0100413A
:100520007F7F081C776300417F7F41406070007FC0
:100530007F060C067F7F007F7F060C187F7F001CE4
:100540003E6341633E1C00417F7F49090F06001E48
:100550003F21717F5E0000417F7F19396F46002681
:10056000674D597B32000003417F7F410300007FCC
:100570007F40407F7F00001F3F60603F1F00007F83
:100580007F3018307F7F0063771C081C776300077B
:100590004F78784F0700006773594D47637100002B
:1005A0007F7F41410000000103060C18306000000D
:1005B00041417F7F000000080C0603060C08008004
:1005C000808080808080800000030704000000207D
:1005D0007454543C784000413F7F44447C38003898
:1005E0007C44446C280000307848493F7F40003804
:1005F0007C54545C180000487E7F49030200009838
:10060000BCA4A4F87C0400417F7F08047C7800002F
:10061000447D7D4000000040C484FD7D0000004119
:100620007F7F10386C440000417F7F400000007CD9
:100630007C0C180C7C78007C7C04047C78000038EE
:100640007C44447C38000084FCF8A4243C18001846
:100650003C24A4F8FC8400447C78441C1800004826
:100660005C54547424000000043E7F442400003C89
:100670007C40403C7C40001C3C60603C1C00003CDA
:100680007C6030607C3C00446C3810386C44009CCA
:10069000BCA0A0FC7C00004C64745C4C64000008AE
:1006A000083E7741410000000000777700000041DC
:1006B00041773E0808000002030103020301000025
:1006C00011241FBECFEFD4E0DEBFCDBF12E0A0E00B
:1006D000B1E0EAE0FEE102C005900D92AC35B10751
:1006E000D9F722E0ACE5B2E001C01D92A937B2070C
:1006F000E1F70E947F030C94030F0C9400008FE13C
:1007000090E00E94B80385B7806885BF6BEC73E00A
:100710008FEB93E00E94030A0E949B040E945806FC
:100720000E946007CAE1D1E00E94B505923330F023
:100730000E9488078CE091E00E946B0A0E94C60527
:10074000892B61F00E9492079F938F93DF93CF9341
:100750000E944E0A0F900F900F900F909FEF2FE77F
:1007600087E0915020408040E1F700C00000DCCFDE
:1007700090BD89B988E18AB98EE880BD0895CF938C
:10078000C82F8A3019F48DE00E94BF035D9BFECF15
:10079000CCB9CF9108955F9BFECF8CB190E00895C6
:1007A000CF92DF92EF92FF920F931F93CF93DF933D
:1007B0008CE291E00E946B0A0E94F3097C010E9486
:1007C000F809C12CD12CC0E0D0E002E411E00E9475
:1007D000F309F601F85E808320812817A1F099279C
:1007E0009F938F931F922F93DF92CF921F930F931C
:1007F0000E944E0A21968DB79EB708960FB6F894C0
:100800009EBF0FBE8DBF9FEFC91AD90AC11488E0E1
:10081000D806E9F6C7010E94F80900E010E0E12CD3
:10082000F12C0F2EFBE7CF2EF1E0DF2EF02D0E94F2
:10083000F309F801F85E20812817B1F099279F93FA
:100840008F931F922F931F930F93DF92CF920E944B
:100850004E0A9FEFE91AF90A8DB79EB708960FB6B0
:10086000F8949EBF0FBE8DBF0F5F1F4F011598E01C
:100870001907E9F6FF92EF92DF93CF9388EB91E0AF
:100880009F938F930E944E0A0F900F900F900F909E
:100890000F900F90DF91CF911F910F91FF90EF90EC
:1008A000DF90CF9008958FEF8ABBDE9A08950E9463
:1008B0009B04C1E1D2E00E94C1049F938F93DF9318
:1008C000CF930E944E0A9FEF2FE787E09150204080
:1008D0008040E1F700C000000F900F900F900F9044
:1008E000EACF8FEF8ABB319A8BBB399A2FEF8FEF0C
:1008F0009DE1215080409040E1F700C00000399810
:100900001BBA2FEF8FEF9AE4215080409040E1F71F
:1009100000C00000399A0895E0910001F0910101B2
:10092000808380E090EF0197F1F7E0910001F09172
:10093000010180810895EEE5F2E090E892838FEF67
:1009400080831182958383831482B89810925D020C
:1009500010925C020895089580916402882351F0FA
:1009600090916502891730F081E090E0089582E06F
:1009700090E00895809165028111F9CF84E090E0C4
:100980000895CF92DF92EF92FF920F931F93CF9330
:10099000DF9386E090E00E948C0490E0009160027A
:1009A00010E0081719077CF5C0915E02D0E0BE0187
:1009B000681B790B072E000C880B990B0E94AE0860
:1009C0006B017C01CE01801B910BBC01990F880B40
:1009D000990B0E94AE089B01AC01C701B6010E94B1
:1009E00004089B01AC0160E070E080E89FE30E9496
:1009F000970720E030E048EC52E40E943A090E9458
:100A00007608CB012FC0C0915F02D0E0BE01681B09
:100A1000790B072E000C880B990B0E94AE086B0116
:100A20007C01CE01801B910BBC01990F880B990BA7
:100A30000E94AE089B01AC01C701B6010E940408E8
:100A40009B01AC0160E070E080E89FE30E949707A3
:100A5000905820E030E048EC52E40E943A090E94AD
:100A60007608CB01DF91CF911F910F91FF90EF900E
:100A7000DF90CF900895CF92DF92EF92FF920F9385
:100A80001F93CF93DF9387E090E00E948C0490E067
:100A90000091630210E0081719077CF5C09161020C
:100AA000D0E0BE01681B790B072E000C880B990B58
:100AB0000E94AE086B017C01CE01801B910BBC0132
:100AC000990F880B990B0E94AE089B01AC01C701DE
:100AD000B6010E9404089B01AC0160E070E080E870
:100AE0009FE30E94970720E030E048EC52E40E9428
:100AF0003A090E947608CB012FC0C0916202D0E073
:100B0000BE01681B790B072E000C880B990B0E9405
:100B1000AE086B017C01CE01801B910BBC01990FCB
:100B2000880B990B0E94AE089B01AC01C701B6016E
:100B30000E9404089B01AC0160E070E080E89FE344
:100B40000E949707905820E030E048EC52E40E9461
:100B50003A090E947608CB01DF91CF911F910F9146
:100B6000FF90EF90DF90CF900895CF93DF930E9496
:100B7000C104C4E6D2E088830E943B05898380914A
:100B8000640290916502DF91CF91089598B381E05E
:100B90008927817090E0089584E090E00E948C04A1
:100BA000089585E090E00E948C04089586EA809381
:100BB0000010089580930010089580930012089506
:100BC0008093690290936A02805580930010089583
:100BD00090936802809367029C012F703327E0E0B6
:100BE000F0E12083807F9927959587959595879546
:100BF0009595879595958795805F808308950E9448
:100C0000E00580E890E0E0E0F2E110820197E9F78A
:100C100080E090E00E94E80580E090E00E94E0051E
:100C20000895CF93DF9380E090E00E94E805C0E054
:100C3000D0E0CE010E94FF052196C830D105C9F74A
:100C4000DF91CF910895DF92EF92FF920F931F9360
:100C5000CF93DF9380E090E00E94E805E12CF12C37
:100C60006894DD24D7F8D0E000E012E1CFEFC701AF
:100C70000E94E0052D2D3D2FF801C0832150310940
:100C8000D9F7FFEFEF1AFF0A88E0E816F10479F7C9
:100C900080E090E00E94E00580E090E00E94E8059E
:100CA000DF91CF911F910F91FF90EF90DF9008950A
:100CB000E0E0F0E18EEA808381EA80838AED808340
:100CC00082E1808388EC808388EA80838FE380835D
:100CD00085ED808380E8808381E8808380E5808360
:100CE00089ED808381E2808380E2808382E080835B
:100CF0008BED808380E380838DEA8083108284EA99
:100D0000808386EA80838FEA808380E090E00E947F
:100D1000E80580E090E00E94E0058CE480936602A4
:100D20000E9423062FEF8FEF9EE0215080409040DD
:100D3000E1F700C000000E9411060895809366024A
:100D40000895809166028D3429F0833531F08C341A
:100D500039F409C085E090E0089584E090E00895BA
:100D600084E090E0089588E090E00895AF92BF920B
:100D7000CF92DF92EF92FF920F931F93CF93DF9367
:100D80008A30C1F48091690290916A02019687705D
:100D90009078992324F40197886F9F6F0196909320
:100DA0006A02809369020E94E00580E090E00E9460
:100DB000E80543C000EE080F002E000C110B58018F
:100DC000AA0CBB1CAA0CBB1CAA0CBB1C6801CC0C3B
:100DD000DD1CCC0CDD1C0C0D1D1DC0E0D0E00F2E69
:100DE000E12CF2E1FF2EF02D23C0909166029D349C
:100DF00069F09335A1F09C34D1F4FE01EA0DFB1D9E
:100E0000E953FC4FE491D701EC9311C0FE01E00FD0
:100E1000F11FE451FE4FE491D701EC9308C0FE01AD
:100E2000EC0DFD1DE059FF4FE491D701EC932196A5
:100E30000E94A106C817D907C4F2DF91CF911F9174
:100E40000F91FF90EF90DF90CF90BF90AF900895FB
:100E5000CF92DF92EF92FF920F931F93CF93DF9386
:100E60007C018C01C0E0D0E018C06801F8018191DC
:100E70008F010E94B6060E94A10620916702309160
:100E80006802820F931F0E94E805F6018081082EF8
:100E9000000C990B0E94640A2196F7010190002032
:100EA000E9F73197EE19FF09CE17DF07F0F2DF916E
:100EB000CF911F910F91FF90EF90DF90CF90089509
:100EC00010926E0210926D0210926C0210926B02E0
:100ED0008EE292E00E94280786E392E00E942807B3
:100EE0008EE392E00E94280786E492E00E942807A1
:100EF0008EE492E00E9428070895089580916D0283
:100F000090916E02019690936E0280936D02089507
:100F100080916D0290916E02019790936E02809382
:100F20006D02089580916D0290916E02089550585F
:100F3000BB27AA270E94AF070C9400090E94F20861
:100F400038F00E94F90820F039F49F3F19F426F494
:100F50000C94EF080EF4E095E7FB0C94E908E92FF8
:100F60000E94110958F3BA1762077307840795079F
:100F700020F079F4A6F50C9433090EF4E0950B2ECD
:100F8000BA2FA02D0B01B90190010C01CA01A001DB
:100F90001124FF27591B99F0593F50F4503E68F136
:100FA0001A16F040A22F232F342F4427585FF3CF77
:100FB000469537952795A795F0405395C9F77EF448
:100FC0001F16BA0B620B730B840BBAF09150A1F091
:100FD000FF0FBB1F661F771F881FC2F70EC0BA0F17
:100FE000621F731F841F48F4879577956795B7959F
:100FF000F7959E3F08F0B0CF9395880F08F099279A
:10100000EE0F9795879508950E9418080C94000993
:101010000E94F90858F00E94F20840F029F45F3F5E
:1010200029F00C94E90851110C9434090C94EF0840
:101030000E94110968F39923B1F3552391F3951B8D
:10104000550BBB27AA2762177307840738F09F5FE9
:101050005F4F220F331F441FAA1FA9F335D00E2E56
:101060003AF0E0E832D091505040E695001CCAF7C3
:101070002BD0FE2F29D0660F771F881FBB1F261786
:1010800037074807AB07B0E809F0BB0B802DBF015D
:10109000FF2793585F4F3AF09E3F510578F00C942C
:1010A000E9080C9434095F3FE4F3983ED4F3869545
:1010B00077956795B795F7959F5FC9F7880F911D4D
:1010C0009695879597F90895E1E0660F771F881F39
:1010D000BB1F621773078407BA0720F0621B730BEC
:1010E000840BBA0BEE1F88F7E09508950E947D08E7
:1010F0006894B1110C94340908950E94190988F07C
:101100009F5798F0B92F9927B751B0F0E1F0660FCB
:10111000771F881F991F1AF0BA95C9F714C0B1300C
:1011200091F00E943309B1E008950C943309672FC0
:10113000782F8827B85F39F0B93FCCF3869577953B
:101140006795B395D9F73EF4909580957095619524
:101150007F4F8F4F9F4F0895E89409C097FB3EF44F
:1011600090958095709561957F4F8F4F9F4F9923F4
:10117000A9F0F92F96E9BB279395F6958795779572
:101180006795B795F111F8CFFAF4BB0F11F460FF32
:101190001BC06F5F7F4F8F4F9F4F16C0882311F08A
:1011A00096E911C0772321F09EE8872F762F05C09E
:1011B000662371F096E8862F70E060E02AF09A9539
:1011C000660F771F881FDAF7880F9695879597F92E
:1011D000089597F99F6780E870E060E008959FEFB9
:1011E00080EC089500240A941616170618060906BE
:1011F000089500240A94121613061406050608958D
:10120000092E0394000C11F4882352F0BB0F40F414
:10121000BF2B11F460FF04C06F5F7F4F8F4F9F4F54
:10122000089557FD9058440F551F59F05F3F71F0D6
:101230004795880F97FB991F61F09F3F79F087953D
:101240000895121613061406551FF2CF4695F1DFC6
:1012500008C0161617061806991FF1CF8695710556
:10126000610508940895E894BB2766277727CB018A
:1012700097F908950E944D090C9400090E94F20804
:1012800038F00E94F90820F0952311F00C94E90839
:101290000C94EF0811240C9434090E94110970F386
:1012A000959FC1F3950F50E0551F629FF001729F0B
:1012B000BB27F00DB11D639FAA27F00DB11DAA1F1A
:1012C000649F6627B00DA11D661F829F2227B00D67
:1012D000A11D621F739FB00DA11D621F839FA00DF2
:1012E000611D221F749F3327A00D611D231F849F42
:1012F000600D211D822F762F6A2F11249F57504099
:101300009AF0F1F088234AF0EE0FFF1FBB1F661F13
:10131000771F881F91505040A9F79E3F510580F0DC
:101320000C94E9080C9434095F3FE4F3983ED4F33D
:10133000869577956795B795F795E7959F5FC1F780
:10134000FE2B880F911D9695879597F908958F929A
:101350009F92AF92BF92CF92DF92EF92FF92CF9384
:10136000DF93EC01688179818A819B816115710528
:101370008105910521F464E279ED8BE597E02DE19B
:1013800033EF41E050E00E94690E49015A019B0190
:10139000AC01A7EAB1E40E94880E6B017C01ACEEBF
:1013A000B4EFA50194010E94960EDC01CB018C0DD7
:1013B0009D1DAE1DBF1DB7FF03C00197A109B04819
:1013C00088839983AA83BB839F77DF91CF91FF9016
:1013D000EF90DF90CF90BF90AF909F908F90089547
:1013E0000E94A709089582E091E00E94A70908954C
:1013F000A0E0B0E08093020190930301A093040168
:10140000B093050108950F931F93CF93DF93009737
:1014100031F46115710519F480E090E03AC08B0158
:10142000EC016EE070E081E090E00E946D0CFC0148
:10143000892B91F380E883830115110571F01387DF
:10144000028781E8838380916F0290917002892BDB
:1014500021F4F0937002E0936F022097C9F0D187D6
:10146000C087838182608383809171029091720230
:10147000892B71F4F0937202E093710280917302F0
:1014800090917402892B21F4F0937402E09373021B
:10149000CF01DF91CF911F910F910895A0E0B0E0AF
:1014A000E4E5FAE00C94AB0EAE014B5F5F4FFA013E
:1014B00061917191AF0180917102909172020E94CD
:1014C0009B0AE2E00C94C70E609171027091720267
:1014D0000E94D30D08950F931F93CF93DF93E09154
:1014E0007102F0917202238121FF1BC08C01D0E0B8
:1014F000C0E0F80181918F016091710270917202D8
:10150000DB011896ED91FC911997882331F009952C
:10151000892B79F3DFEFCFEFECCF8AE00995892BA8
:1015200019F08FEF9FEF02C08D2F9C2FDF91CF918D
:101530001F910F910895ACE0B0E0E1EAFAE00C945D
:101540009B0E7C016B018A01FC011782168283814C
:1015500081FFBDC1CE0101964C01F7019381F601D7
:1015600093FD859193FF81916F01882309F4ABC1AD
:10157000853239F493FD859193FF81916F01853216
:1015800029F4B70190E00E94D30DE7CF512C312C04
:1015900020E02032A0F48B3269F030F4803259F030
:1015A000833269F420612CC08D3239F0803339F4F4
:1015B000216026C02260246023C0286021C027FD4E
:1015C00027C030ED380F3A3078F426FF06C0FAE035
:1015D0005F9E300D1124532E13C08AE0389E300DCB
:1015E0001124332E20620CC08E3221F426FD6BC1F3
:1015F000206406C08C3611F4206802C0883641F49D
:10160000F60193FD859193FF81916F018111C1CF07
:10161000982F9F7D9554933028F40C5F1F4FFFE364
:10162000F9830DC0833631F0833771F0833509F0CB
:101630005BC022C0F801808189830E5F1F4F442464
:101640004394512C540115C03801F2E06F0E711C07
:10165000F801A080B18026FF03C0652D70E002C0B4
:101660006FEF7FEFC5012C870E94C80D2C0183010D
:101670002C852F77222E17C03801F2E06F0E711CD7
:10168000F801A080B18026FF03C0652D70E002C084
:101690006FEF7FEFC5012C870E94B60D2C012C85C2
:1016A0002068222E830123FC1BC0832D90E0481666
:1016B0005906B0F4B70180E290E00E94D30D3A944D
:1016C000F4CFF50127FC859127FE81915F01B701D9
:1016D00090E00E94D30D31103A94F1E04F1A510876
:1016E0004114510471F7E5C0843611F0893639F59B
:1016F000F80127FF07C060817181828193810C5FAF
:101700001F4F08C060817181072E000C880B990B58
:101710000E5F1F4F2F76722E97FF09C09095809510
:10172000709561957F4F8F4F9F4F2068722E2AE0F2
:1017300030E0A4010E940B0EA82EA81844C08537E3
:1017400029F42F7EB22E2AE030E025C0F22FF97F57
:10175000BF2E8F36C1F018F4883579F0B4C08037C9
:1017600019F0883721F0AFC02F2F2061B22EB4FEC0
:101770000DC08B2D8460B82E09C024FF0AC09F2F96
:101780009660B92E06C028E030E005C020E130E0C8
:1017900002C020E132E0F801B7FE07C0608171812C
:1017A000828193810C5F1F4F06C06081718180E050
:1017B00090E00E5F1F4FA4010E940B0EA82EA818E8
:1017C000FB2DFF777F2E76FE0BC0372D3E7FA514B5
:1017D00050F474FE0AC072FC08C0372D3E7E05C06E
:1017E000BA2C372D03C0BA2C01C0B52C34FF0DC064
:1017F000FE01EA0DF11D8081803311F4397E09C0AC
:1018000032FF06C0B394B39404C0832F867809F0E6
:10181000B39433FD13C030FF06C05A2CB31418F430
:10182000530C5B18B32CB31468F4B70180E290E05A
:101830003C870E94D30DB3943C85F5CFB31410F4CC
:101840003B1801C0312C34FF12C0B70180E390E097
:101850003C870E94D30D3C8532FF17C031FD03C089
:1018600088E790E002C088E590E0B7010CC0832FC4
:10187000867859F031FF02C08BE201C080E237FD6B
:101880008DE2B70190E00E94D30DA51438F4B701A2
:1018900080E390E00E94D30D5A94F7CFAA94F4010C
:1018A000EA0DF11D8081B70190E00E94D30DA110D7
:1018B000F5CF332009F451CEB70180E290E00E94C9
:1018C000D30D3A94F6CFF7018681978102C08FEF4E
:1018D0009FEF2C96E2E10C94B70E0F931F93CF93DA
:1018E000DF93869F8001879F100D969F100D112416
:1018F000C8010E94890CEC01009729F0A80160E062
:1019000070E00E94C10DCE01DF91CF911F910F9128
:101910000895CF93DF938230910510F482E090E038
:10192000E0917702F091780220E030E0C0E0D0E072
:10193000309711F14081518148175907C0F048177D
:10194000590761F482819381209719F09B838A83E0
:101950002BC0909378028093770226C02115310521
:1019600019F04217530718F49A01BE01DF01EF0185
:101970000280F381E02DDCCF2115310509F1281B10
:10198000390B2430310590F412968D919C91139768
:101990006115710521F0FB019383828304C090934C
:1019A000780280937702FD01329644C0FD01E20F78
:1019B000F31F81939193225031092D933C933AC0A8
:1019C0002091750230917602232B41F42091080179
:1019D000309109013093760220937502209106011F
:1019E000309107012115310541F42DB73EB74091E3
:1019F0000A0150910B01241B350BE0917502F09107
:101A00007602E217F307A0F42E1B3F0B28173907C5
:101A100078F0AC014E5F5F4F2417350748F04E0F4A
:101A20005F1F50937602409375028193919302C099
:101A3000E0E0F0E0CF01DF91CF9108950F931F9385
:101A4000CF93DF93009709F48CC0FC013297138287
:101A5000128200917702109178020115110581F42C
:101A600020813181820F931F20917502309176027F
:101A70002817390779F5F0937602E093750271C063
:101A8000D80140E050E0AE17BF0750F412962D91F8
:101A90003C911397AD012115310509F1D901F3CF1F
:101AA0009D01DA013383228360817181860F971F44
:101AB0008217930769F4EC0128813981260F371FBB
:101AC0002E5F3F4F318320838A819B819383828362
:101AD000452B29F4F0937802E093770242C01396E5
:101AE000FC93EE931297ED01499159919E01240FB9
:101AF000351FE217F30771F480819181840F951FE0
:101B0000029611969C938E938281938113969C9357
:101B10008E931297E0E0F0E0D80112968D919C919F
:101B20001397009719F0F8018C01F6CF8D919C91D5
:101B300098012E5F3F4F820F931F209175023091C5
:101B400076022817390769F4309729F41092780241
:101B50001092770202C013821282109376020093D1
:101B60007502DF91CF911F910F910895FC010590AF
:101B7000615070400110D8F7809590958E0F9F1F8F
:101B80000895DC0101C06D9341505040E0F7089585
:101B9000FC016150704001900110D8F7809590953C
:101BA0008E0F9F1F08950F931F93CF93DF93FB0119
:101BB000238121FD03C08FEF9FEF28C022FF16C0B5
:101BC00046815781248135814217530744F4A0810F
:101BD000B1819D012F5F3F4F318320838C932681FC
:101BE00037812F5F3F4F3783268310C0EB01092FCA
:101BF000182F0084F185E02D0995892BE1F68E815F
:101C00009F8101969F838E83812F902FDF91CF91AB
:101C10001F910F910895FA01AA27283051F1203120
:101C200081F1E8946F936E7F6E5F7F4F8F4F9F4F70
:101C3000AF4FB1E03ED0B4E03CD0670F781F891FB2
:101C40009A1FA11D680F791F8A1F911DA11D6A0F80
:101C5000711D811D911DA11D20D009F468943F9133
:101C60002AE0269F11243019305D3193DEF6CF0132
:101C70000895462F4770405D4193B3E00FD0C9F7F8
:101C8000F6CF462F4F70405D4A3318F0495D31FD65
:101C90004052419302D0A9F7EACFB4E0A6959795B8
:101CA000879577956795BA95C9F70097610571058E
:101CB00008959B01AC010A2E0694579547953795D8
:101CC0002795BA95C9F7620F731F841F951FA01D32
:101CD0000895052E97FB1EF400940E94800E57FD78
:101CE00007D00E94D20E07FC03D04EF40C94800E55
:101CF00050954095309521953F4F4F4F5F4F089538
:101D000090958095709561957F4F8F4F9F4F089567
:101D10000E94F40EA59F900DB49F900DA49F800D7E
:101D2000911D11240895B7FF0C94880E0E94880E0F
:101D3000821B930B08952F923F924F925F926F9266
:101D40007F928F929F92AF92BF92CF92DF92EF924B
:101D5000FF920F931F93CF93DF93CDB7DEB7CA1BCC
:101D6000DB0B0FB6F894DEBF0FBECDBF09942A88F7
:101D7000398848885F846E847D848C849B84AA849F
:101D8000B984C884DF80EE80FD800C811B81AA812C
:101D9000B981CE0FD11D0FB6F894DEBF0FBECDBFF7
:101DA000ED010895A1E21A2EAA1BBB1BFD010DC077
:101DB000AA1FBB1FEE1FFF1FA217B307E407F507FB
:101DC00020F0A21BB30BE40BF50B661F771F881FD7
:101DD000991F1A9469F760957095809590959B016D
:101DE000AC01BD01CF010895A29FB001B39FC00116
:101DF000A39F700D811D1124911DB29F700D811D37
:0A1E00001124911D0895F894FFCFFE
:101E0A0000140100000000007902200054696E6786
:101E1A0020736B6A6572206465004465747465207A
:101E2A0066756E6B65723F2025640A005374617291
:101E3A0074696E67205352414D20746573742E2E57
:101E4A002E00577269746520706861736520657227
:101E5A00726F723A206578745F72616D5B253464C3
:101E6A005D203D2025303258202873686F756C64D8
:101E7A002062652025303258290A00526574726939
:101E8A006576616C207068617365206572726F7225
:101E9A003A206578745F72616D5B2534645D203D1C
:101EAA002025303258202873686F756C642062656B
:101EBA002025303258290A005352414D2074657347
:101ECA007420636F6D706C657465642077697468DB
:101EDA00200A253464206572726F727320696E203D
:101EEA00777269746520706861736520616E642019
:101EFA000A253464206572726F727320696E2072CB
:101F0A00657472696576616C2070686173650A0A26
:101F1A000074686973206973207468652076616C3F
:101F2A0075652078203D2025303264200A004569F5
:101F3A0076696E640A00526F626572740A004265BD
:101F4A006E64696B0A004A6F6E6173730A0035200A
:0C1F5A00426F6B7374617665720A0000C0
:00000001FF
