:100000000C9460030C947D030C947D030C947D038D
:100010000C947D030C947D030C947D030C947D0360
:100020000C947D030C947D030C947D030C947D0350
:100030000C947D030C947D030C947D030C947D0340
:100040000C947D030C947D030C947D030C947D0330
:100050000C947D030C947D030C947D030C947D0320
:100060000C947D030C947D030C947D030C947D0310
:1000700000000000005C00000C000C007C287C28C4
:1000800058DC68002410480028542840000C000068
:10009000007884008478000054385400107C1000EC
:1000A00080400000101010000040000060100C00A4
:1000B00038543800487C40004864580044542C00B0
:1000C0001C107C005C5424003854240064140C0080
:1000D00068542C0048543800004800008048000054
:1000E0001028440028282800442810000454080040
:1000F00038445C00781478007C5428003844280088
:100100007C4438007C5444007C140400384474005F
:100110007C107C00447C440020403C007C106C003F
:100120007C4040007C187C0078103C00384438004B
:100130007C1408003844B8007C146800485424003B
:10014000047C04007C407C003C603C007C307C00F3
:100150006C106C000C700C0064544C00007C44006B
:100160000C106000447C00000804080080808000BF
:1001700000040800304878007C48300030484800CF
:1001800030487C00306850001078140090A8780047
:100190007C08700050744000808074007C106800FF
:1001A000447C4000781078007808700030483000B7
:1001B000F82810003048F80078100800505828003F
:1001C000083C4800384078003840380078207800F3
:1001D0004830480098A0780048685800107884009B
:1001E000007C00008478100008040804000000006F
:1001F0000000005F00000007000700147F147F1458
:10020000242A7F2A1223130864623649552250009B
:1002100005030000001C2241000041221C00082AA6
:100220001C2A0808083E080800503000000808088A
:100230000808006060000020100804023E51494593
:100240003E00427F400042615149462141454B31C9
:100250001814127F1027454545393C4A4949300159
:10026000710905033649494936064949291E0036B0
:100270003600000056360000000814224114141401
:10028000141441221408000201510906324979412F
:100290003E7E1111117E7F494949363E414141223E
:1002A0007F4141221C7F494949417F090901013EA3
:1002B000414151327F0808087F00417F41002040C2
:1002C000413F017F081422417F404040407F0204AB
:1002D000027F7F0408107F3E4141413E7F090909AA
:1002E000063E4151215E7F09192946464949493157
:1002F00001017F01013F4040403F1F2040201F7F00
:100300002018207F631408146303047804036151E8
:1003100049454300007F4141020408102041417FCC
:100320000000040201020440404040400001020479
:100330000020545454787F4844443838444444207E
:10034000384444487F3854545418087E0901020840
:100350001454543C7F0804047800447D400020403D
:10036000443D00007F10284400417F40007C041879
:1003700004787C0804047838444444387C14141409
:1003800008081414187C7C080404084854545420A9
:10039000043F4440203C4040207C1C2040201C3C2A
:1003A0004030403C44281028440C5050503C446499
:1003B000544C44000836410000007F0000004136E4
:1003C000080002010302010000000000000000001C
:1003D000065F5F0600000000070700070700001423
:1003E0007F7F147F7F1400242E6B6B3A120000462F
:1003F0006630180C666200307A4F5D377A48000428
:1004000007030000000000001C3E634100000000E4
:1004100041633E1C000000082A3E1C1C3E2A0808BE
:10042000083E3E0808000000A0E060000000000850
:100430000808080808000000006060000000006074
:1004400030180C060301003E7F594D7F3E000042EC
:10045000427F7F40400000627359496F660000226E
:100460006349497F360000181C16137F7F10002750
:100470006745457D3900003C7E4B497930000003DB
:100480006371190F070000367F49497F3600000667
:100490004F49693F1E000000006C6C000000000026
:1004A000A0EC6C00000000081C3663410000001442
:1004B00014141414140000004163361C08000002D8
:1004C0000351590F0600003E7F415D5D1F1E007CF9
:1004D0007E13137E7C0000417F7F49497F36001CDC
:1004E0003E634141632200417F7F41637F1C0041A5
:1004F0007F7F495D416300417F7F491D0103001CEF
:100500003E6341517372007F7F08087F7F000000C7
:10051000417F7F41000000307040417F3F0100413A
:100520007F7F081C776300417F7F41406070007FC0
:100530007F060C067F7F007F7F060C187F7F001CE4
:100540003E6341633E1C00417F7F49090F06001E48
:100550003F21717F5E0000417F7F19396F46002681
:10056000674D597B32000003417F7F410300007FCC
:100570007F40407F7F00001F3F60603F1F00007F83
:100580007F3018307F7F0063771C081C776300077B
:100590004F78784F0700006773594D47637100002B
:1005A0007F7F41410000000103060C18306000000D
:1005B00041417F7F000000080C0603060C08008004
:1005C000808080808080800000030704000000207D
:1005D0007454543C784000413F7F44447C38003898
:1005E0007C44446C280000307848493F7F40003804
:1005F0007C54545C180000487E7F49030200009838
:10060000BCA4A4F87C0400417F7F08047C7800002F
:10061000447D7D4000000040C484FD7D0000004119
:100620007F7F10386C440000417F7F400000007CD9
:100630007C0C180C7C78007C7C04047C78000038EE
:100640007C44447C38000084FCF8A4243C18001846
:100650003C24A4F8FC8400447C78441C1800004826
:100660005C54547424000000043E7F442400003C89
:100670007C40403C7C40001C3C60603C1C00003CDA
:100680007C6030607C3C00446C3810386C44009CCA
:10069000BCA0A0FC7C00004C64745C4C64000008AE
:1006A000083E7741410000000000777700000041DC
:1006B00041773E0808000002030103020301000025
:1006C00011241FBECFEFD4E0DEBFCDBF12E0A0E00B
:1006D000B1E0ECECFAE102C005900D92A837B10749
:1006E000D9F722E0A8E7B2E001C01D92AF38B20707
:1006F000E1F70E9499070C94640D0C940000CF93CD
:10070000C82F8A3019F48DE00E947F035D9BFECFD5
:10071000CCB9CF9108955F9BFECF8CB190E0089546
:1007200090BD89B988E18AB98EE880BD0895CF93DC
:10073000DF93CDB7DEB7AE014B5F5F4FFA0161913A
:100740007191AF0180E091E00E944C0ADF91CF915E
:100750000895CF92DF92EF92FF920F931F93CF9362
:10076000DF9387E591E09F938F930E9497030E9408
:10077000260A7C010E942B0A0F900F90C0E0D0E067
:1007800000E010E09EE6C92E91E0D92E0E94260AD4
:100790009C01FE01F85E808380818217A9F03327D7
:1007A0003F932F931F928F93DF93CF93DF92CF923C
:1007B0000E9497030F5F1F4F8DB79EB708960FB625
:1007C000F8949EBF0FBE8DBF2196C11598E0D90742
:1007D000E9F6C7010E942B0AC0E0D0E0E12CF12C21
:1007E00087EAC82E81E0D82E0E94260AFE01F85E14
:1007F00020812817B1F099279F938F931F922F93F1
:10080000DF93CF93DF92CF920E9497038FEFE81A86
:10081000F80A8DB79EB708960FB6F8949EBF0FBE24
:100820008DBF2196C11598E0D907F1F6FF92EF929E
:100830001F930F9384EE91E09F938F930E949703F1
:100840000F900F900F900F900F900F90DF91CF911E
:100850001F910F91FF90EF90DF90CF9008958FEF51
:100860008ABBDE9A08950E947704CDE3D2E00E940D
:100870009E049F938F93DF93CF930E94360A9FEF3E
:100880002FE787E0915020408040E1F700C0000052
:100890000F900F900F900F90EACF8FEF8ABB319A95
:1008A0008BBB399A2FEF8FEF9DE121508040904014
:1008B000E1F700C0000039981BBA2FEF8FEF9AE4E0
:1008C000215080409040E1F700C00000399A08951F
:1008D000E0910E01F0910F01808380E090EF01978D
:1008E000F1F7E0910E01F0910F0180810895EAE7A0
:1008F000F2E090E892838FEF808311829583838367
:100900001482B998C19A10927902109278020895CF
:1009100008958091800290918102882311F08917B7
:1009200038F4992341F0981730F082E090E0089570
:1009300081E090E0089584E090E00895CF92DF9206
:10094000EF92FF920F931F93CF93DF9386E090E097
:100950000E946804282F30E000917C0210E002170A
:10096000130734F5C0917A02D0E0BE01621B730B0D
:10097000072E000C880B990B0E94E1086B017C018B
:10098000CE01801B910BBC01990F880B990B0E9423
:10099000E1089B01AC01C701B6010E9437089B0129
:1009A000AC0160E070E080E89FE30E94CA0726C0C7
:1009B000C0917B02D0E0BE01621B730B072E000CBE
:1009C000880B990B0E94E1086B017C01CE01801B12
:1009D000910BBC01990F880B990B0E94E1089B01B8
:1009E000AC01C701B6010E9437089B01AC0160E071
:1009F00070E080E89FE30E94CA07905820E030E052
:100A000048EC52E40E946D090E94A908CB01DF91D5
:100A1000CF911F910F91FF90EF90DF90CF900895AD
:100A2000CF92DF92EF92FF920F931F93CF93DF93BA
:100A300087E090E00E946804282F30E000917F0258
:100A400010E00217130734F5C0917D02D0E0BE011B
:100A5000621B730B072E000C880B990B0E94E10898
:100A60006B017C01CE01801B910BBC01990F880B9F
:100A7000990B0E94E1089B01AC01C701B6010E94DD
:100A800037089B01AC0160E070E080E89FE30E94C2
:100A9000CA0726C0C0917E02D0E0BE01621B730B64
:100AA000072E000C880B990B0E94E1086B017C015A
:100AB000CE01801B910BBC01990F880B990B0E94F2
:100AC000E1089B01AC01C701B6010E9437089B01F8
:100AD000AC0160E070E080E89FE30E94CA07905894
:100AE00020E030E048EC52E40E946D090E94A90821
:100AF000CB01DF91CF911F910F91FF90EF90DF908D
:100B0000CF900895CF93DF930E949E04C0E8D2E077
:100B100088830E94100589838091800290918102D0
:100B2000DF91CF910895CF93DF931F92CDB7DEB7BA
:100B300088B382701F928F932EE331E03F932F93FF
:100B400089830E94970389810F900F900F900F90D7
:100B50000F90DF91CF91089584E090E00C946804A9
:100B600085E090E00C94680486EA80930010089574
:100B7000809300100895809300120895809384025A
:100B800080558093001008950E94BE0580E0109269
:100B900000128F5F8038D9F7089580938302982FD1
:100BA0009F70E0E0F0E1908382958F70805F80839A
:100BB0000895CF9380E00E94CD051092840280EBCF
:100BC00080930010C0E08C2F0E94C405CF5FC83016
:100BD000D1F780E00E94CD051092840280EB8093D3
:100BE0000010CF910895CF93DF931092840280EB91
:100BF0008093001080E00E94CD05C0E0DFEF8C2FD5
:100C00000E94BE0580E0D09300128F5F8038D9F734
:100C1000CF5FC830A1F71092840280EB8093001060
:100C200080E0DF91CF910C94CD05CF93DF93C0E0AE
:100C3000D0E18EEA888381EA88838AED888382E125
:100C4000888388EC888388EA88838FE3888385EDAE
:100C5000888380E8888381E8888380E5888389EDBC
:100C6000888381E2888380E2888382E088838BEDB9
:100C7000888380E388838DEA8883188284EA888366
:100C800086EA88838FEA888380E00E94CD051092EF
:100C9000840280EB88838CE4809382020E94F305B7
:100CA0002FEF8FEF9EE0215080409040E1F700C091
:100CB0000000DF91CF910C94D905809382020895B2
:100CC000E0918202EC54E83028F4F0E0E85DFE4F59
:100CD0008081089584E00895CF92DF92EF92FF9291
:100CE0001F93CF93DF938A3091F4809184028F5FBA
:100CF0008770809384020E94BE0580E0DF91CF91CF
:100D00001F91FF90EF90DF90CF900C94CD05805213
:100D100010E0E82EF12C95E0899FE0011124670195
:100D2000CC0CDD1CCC0CDD1C93E0EE0CFF1C9A956A
:100D3000E1F70E9460061817F0F4809182028D346A
:100D400051F0833571F08C34A1F4F701E10FF11DFE
:100D5000E953FC4F0BC0FE01E10FF11DE451FE4FC2
:100D600005C0F601E10FF11DE059FF4FE491E0935A
:100D700000121F5FDECFDF91CF911F91FF90EF90A8
:100D8000DF90CF900895CF93DF93CDB7DEB7AE015C
:100D90004B5F5F4FFA0161917191AF0180E191E08A
:100DA0000E944C0ADF91CF910895EF92FF920F932A
:100DB0001F93CF93DF9300D0CDB7DEB7E82E122F6D
:100DC000F62EF694F694F694062F07704A836983FC
:100DD0000E94CD058F2D0E94BE054A816981E412D3
:100DE00029C08FEF90E001C0880F0A95EAF7809341
:100DF0000012809184028F5F0E94BE05F394E12E61
:100E0000E694E694E6940FEFFE1448F40093001283
:100E1000809184028F5F0E94BE05F394F5CF177016
:100E20008FEF90E002C0959587951A95E2F7809331
:100E300000120DC061130BC081E001C0880F0A953C
:100E4000EAF74E1520F080930012E394FACF0F904A
:100E50000F90DF91CF911F910F91FF90EF90089528
:100E60000895CF92DF92EF92FF920F931F93CF934B
:100E7000DF930EE111E0C0E0D0E08AE5C82E82E009
:100E8000D82E9DE5E92E92E0F92E8091870290916F
:100E90008802C817D90731F4DF92CF920E94C306A7
:100EA0000F900F90F801808191810E5F1F4F9F93EB
:100EB0008F93FF92EF920E94C30621960F900F909E
:100EC0000F900F90C330D10501F7DF91CF911F91A3
:100ED0000F91FF90EF90DF90CF90089580E00E94F7
:100EE000BE0580E00E94CD050C9431071092880267
:100EF0001092870210928602109285020C946E075F
:100F00008091870290918802019690938802809345
:100F100087020895809187029091880201979093AB
:100F200088028093870208958091870290918802B9
:100F300008958FE190E00E94900385B7806885BF97
:100F40000E9477040E9415060E94760700E311E0D4
:100F5000C2E4D1E00E949305813061F40E949407BD
:100F60009F938F931F930F930E9497030F900F905F
:100F70000F900F902FEF8FE797E021508040904027
:100F8000E1F700C00000DF93CF930E9497030F901A
:100F90000F90E0CF5058BB27AA270E94E2070C947D
:100FA00033090E94250938F00E942C0920F039F4F9
:100FB0009F3F19F426F40C9422090EF4E095E7FB08
:100FC0000C941C09E92F0E94440958F3BA176207D0
:100FD00073078407950720F079F4A6F50C94660949
:100FE0000EF4E0950B2EBA2FA02D0B01B901900144
:100FF0000C01CA01A0011124FF27591B99F0593F88
:1010000050F4503E68F11A16F040A22F232F342FCF
:101010004427585FF3CF469537952795A795F0401D
:101020005395C9F77EF41F16BA0B620B730B840B32
:10103000BAF09150A1F0FF0FBB1F661F771F881FEA
:10104000C2F70EC0BA0F621F731F841F48F4879542
:1010500077956795B795F7959E3F08F0B0CF939534
:10106000880F08F09927EE0F9795879508950E94AD
:101070004B080C9433090E942C0958F00E94250952
:1010800040F029F45F3F29F00C941C0951110C9495
:1010900067090C9422090E94440968F39923B1F36B
:1010A000552391F3951B550BBB27AA27621773078E
:1010B000840738F09F5F5F4F220F331F441FAA1F22
:1010C000A9F335D00E2E3AF0E0E832D091505040DE
:1010D000E695001CCAF72BD0FE2F29D0660F771F8C
:1010E000881FBB1F261737074807AB07B0E809F072
:1010F000BB0B802DBF01FF2793585F4F3AF09E3FF7
:10110000510578F00C941C090C9467095F3FE4F3D7
:10111000983ED4F3869577956795B795F7959F5F39
:10112000C9F7880F911D9695879597F90895E1E085
:10113000660F771F881FBB1F621773078407BA07E4
:1011400020F0621B730B840BBA0BEE1F88F7E0953F
:1011500008950E94B0086894B1110C94670908952D
:101160000E944C0988F09F5798F0B92F9927B751E2
:10117000B0F0E1F0660F771F881F991F1AF0BA953B
:10118000C9F714C0B13091F00E946609B1E008952A
:101190000C946609672F782F8827B85F39F0B93F1C
:1011A000CCF3869577956795B395D9F73EF49095EE
:1011B0008095709561957F4F8F4F9F4F0895E8946C
:1011C00009C097FB3EF490958095709561957F4F8F
:1011D0008F4F9F4F9923A9F0F92F96E9BB2793953D
:1011E000F695879577956795B795F111F8CFFAF44D
:1011F000BB0F11F460FF1BC06F5F7F4F8F4F9F4F7E
:1012000016C0882311F096E911C0772321F09EE8DB
:10121000872F762F05C0662371F096E8862F70E041
:1012200060E02AF09A95660F771F881FDAF7880F1B
:101230009695879597F9089597F99F6780E870E0EC
:1012400060E008959FEF80EC089500240A9416163C
:10125000170618060906089500240A9412161306A4
:10126000140605060895092E0394000C11F4882332
:1012700052F0BB0F40F4BF2B11F460FF04C06F5F4E
:101280007F4F8F4F9F4F089557FD9058440F551F24
:1012900059F05F3F71F04795880F97FB991F61F0F8
:1012A0009F3F79F087950895121613061406551F6F
:1012B000F2CF4695F1DF08C0161617061806991FDB
:1012C000F1CF86957105610508940895E894BB27D0
:1012D00066277727CB0197F908950E9480090C941F
:1012E00033090E94250938F00E942C0920F095232B
:1012F00011F00C941C090C94220911240C94670918
:101300000E94440970F3959FC1F3950F50E0551F5B
:10131000629FF001729FBB27F00DB11D639FAA274A
:10132000F00DB11DAA1F649F6627B00DA11D661F99
:10133000829F2227B00DA11D621F739FB00DA11DBA
:10134000621F839FA00D611D221F749F3327A00D74
:10135000611D231F849F600D211D822F762F6A2F10
:1013600011249F5750409AF0F1F088234AF0EE0F75
:10137000FF1FBB1F661F771F881F91505040A9F7A2
:101380009E3F510580F00C941C090C9467095F3F47
:10139000E4F3983ED4F3869577956795B795F795DE
:1013A000E7959F5FC1F7FE2B880F911D9695879556
:1013B00097F908958F929F92AF92BF92CF92DF924A
:1013C000EF92FF92CF93DF93EC01688179818A815C
:1013D0009B81611571058105910521F464E279ED28
:1013E0008BE597E02DE133EF41E050E00E94CA0C1D
:1013F00049015A019B01AC01A7EAB1E40E94E90C42
:101400006B017C01ACEEB4EFA50194010E94F70CD6
:10141000DC01CB018C0D9D1DAE1DBF1DB7FF03C0B0
:101420000197A109B04888839983AA83BB839F77DA
:10143000DF91CF91FF90EF90DF90CF90BF90AF9072
:101440009F908F9008950E94DA09089584E291E0B8
:101450000E94DA090895A0E0B0E0809324019093FF
:101460002501A0932601B09327010895A0E0B0E0E4
:10147000ECE3FAE00C940C0DAE014B5F5F4FFA0108
:1014800061917191AF0180918B0290918C020E94C9
:101490004C0AE2E00C94280DACE0B0E0E2E5FAE0A2
:1014A0000C94FC0C7C016B018A01FC0117821682F2
:1014B000838181FFBDC1CE0101964C01F70193816B
:1014C000F60193FD859193FF81916F01882309F4C3
:1014D000ABC1853239F493FD859193FF81916F0102
:1014E000853229F4B70190E00E94340CE7CF512CEB
:1014F000312C20E02032A0F48B3269F030F48032BD
:1015000059F0833269F420612CC08D3239F0803378
:1015100039F4216026C02260246023C0286021C0E5
:1015200027FD27C030ED380F3A3078F426FF06C08B
:10153000FAE05F9E300D1124532E13C08AE0389ECE
:10154000300D1124332E20620CC08E3221F426FD82
:101550006BC1206406C08C3611F4206802C0883646
:1015600041F4F60193FD859193FF81916F01811103
:10157000C1CF982F9F7D9554933028F40C5F1F4F57
:10158000FFE3F9830DC0833631F0833771F0833583
:1015900009F05BC022C0F801808189830E5F1F4F74
:1015A00044244394512C540115C03801F2E06F0ECD
:1015B000711CF801A080B18026FF03C0652D70E08A
:1015C00002C06FEF7FEFC5012C870E94290C2C0110
:1015D00083012C852F77222E17C03801F2E06F0E81
:1015E000711CF801A080B18026FF03C0652D70E05A
:1015F00002C06FEF7FEFC5012C870E941E0C2C01EB
:101600002C852068222E830123FC1BC0832D90E0B3
:1016100048165906B0F4B70180E290E00E94340CFD
:101620003A94F4CFF50127FC859127FE81915F0163
:10163000B70190E00E94340C31103A94F1E04F1A57
:1016400051084114510471F7E5C0843611F0893610
:1016500039F5F80127FF07C060817181828193818C
:101660000C5F1F4F08C060817181072E000C880B32
:10167000990B0E5F1F4F2F76722E97FF09C0909522
:101680008095709561957F4F8F4F9F4F2068722E88
:101690002AE030E0A4010E946C0CA82EA81844C0D7
:1016A000853729F42F7EB22E2AE030E025C0F22FB4
:1016B000F97FBF2E8F36C1F018F4883579F0B4C0A9
:1016C000803719F0883721F0AFC02F2F2061B22E5C
:1016D000B4FE0DC08B2D8460B82E09C024FF0AC053
:1016E0009F2F9660B92E06C028E030E005C020E1AB
:1016F00030E002C020E132E0F801B7FE07C06081AF
:101700007181828193810C5F1F4F06C0608171815E
:1017100080E090E00E5F1F4FA4010E946C0CA82E89
:10172000A818FB2DFF777F2E76FE0BC0372D3E7F4E
:10173000A51450F474FE0AC072FC08C0372D3E7E1A
:1017400005C0BA2C372D03C0BA2C01C0B52C34FF0C
:101750000DC0FE01EA0DF11D8081803311F4397E48
:1017600009C032FF06C0B394B39404C0832F8678B7
:1017700009F0B39433FD13C030FF06C05A2CB314E4
:1017800018F4530C5B18B32CB31468F4B70180E25F
:1017900090E03C870E94340CB3943C85F5CFB314A1
:1017A00010F43B1801C0312C34FF12C0B70180E3A4
:1017B00090E03C870E94340C3C8532FF17C031FD1D
:1017C00003C088E790E002C088E590E0B7010CC054
:1017D000832F867859F031FF02C08BE201C080E28E
:1017E00037FD8DE2B70190E00E94340CA51438F467
:1017F000B70180E390E00E94340C5A94F7CFAA948A
:10180000F401EA0DF11D8081B70190E00E94340CD3
:10181000A110F5CF332009F451CEB70180E290E05A
:101820000E94340C3A94F6CFF7018681978102C06A
:101830008FEF9FEF2C96E2E10C94180DFC010590C0
:10184000615070400110D8F7809590958E0F9F1FC2
:101850000895FC016150704001900110D8F7809507
:1018600090958E0F9F1F08950F931F93CF93DF9333
:10187000FB01238121FD03C08FEF9FEF28C022FFD2
:1018800016C046815781248135814217530744F49D
:10189000A081B1819D012F5F3F4F318320838C93C5
:1018A000268137812F5F3F4F3783268310C0EB019E
:1018B000092F182F0084F185E02D0995892BE1F679
:1018C0008E819F8101969F838E83812F902FDF9140
:1018D000CF911F910F910895FA01AA27283051F155
:1018E000203181F1E8946F936E7F6E5F7F4F8F4F51
:1018F0009F4FAF4FB1E03ED0B4E03CD0670F781FB0
:10190000891F9A1FA11D680F791F8A1F911DA11D94
:101910006A0F711D811D911DA11D20D009F46894CD
:101920003F912AE0269F11243019305D3193DEF675
:10193000CF010895462F4770405D4193B3E00FD02B
:10194000C9F7F6CF462F4F70405D4A3318F0495D16
:1019500031FD4052419302D0A9F7EACFB4E0A695F9
:101960009795879577956795BA95C9F7009761051B
:10197000710508959B01AC010A2E06945795479571
:1019800037952795BA95C9F7620F731F841F951F66
:10199000A01D0895052E97FB1EF400940E94E10CF3
:1019A00057FD07D00E94330D07FC03D04EF40C9472
:1019B000E10C50954095309521953F4F4F4F5F4F2B
:1019C000089590958095709561957F4F8F4F9F4FAB
:1019D00008950E94550DA59F900DB49F900DA49F52
:1019E000800D911D11240895B7FF0C94E90C0E94FD
:1019F000E90C821B930B08952F923F924F925F92B6
:101A00006F927F928F929F92AF92BF92CF92DF920E
:101A1000EF92FF920F931F93CF93DF93CDB7DEB773
:101A2000CA1BDB0B0FB6F894DEBF0FBECDBF099407
:101A30002A88398848885F846E847D848C849B845E
:101A4000AA84B984C884DF80EE80FD800C811B816C
:101A5000AA81B981CE0FD11D0FB6F894DEBF0FBE9B
:101A6000CDBFED010895A1E21A2EAA1BBB1BFD01FB
:101A70000DC0AA1FBB1FEE1FFF1FA217B307E4076D
:101A8000F50720F0A21BB30BE40BF50B661F771FC5
:101A9000881F991F1A9469F76095709580959095A5
:101AA0009B01AC01BD01CF010895A29FB001B39F7E
:101AB000C001A39F700D811D1124911DB29F700D57
:0C1AC000811D1124911D0895F894FFCFA2
:101ACC0000000003000000007F038B0300000014E3
:101ADC0000000002000000006C0600000000600224
:101AEC0068027002010000000805040404040404E8
:101AFC0044657474652066756E6B65723F20256451
:101B0C000A0074696E672067C3A5726672656D6F93
:101B1C0076657220320A005374617274696E6720A4
:101B2C005352414D20746573742E2E2E0A00577239
:101B3C00697465207068617365206572726F723AA2
:101B4C00206578745F72616D5B2534645D203D2087
:101B5C0025303258202873686F756C6420626520BC
:101B6C0025303258290A0052657472696576616CA9
:101B7C00207068617365206572726F723A206578A7
:101B8C00745F72616D5B2534645D203D20253032BD
:101B9C0058202873686F756C64206265202530327C
:101BAC0058290A005352414D207465737420636F99
:101BBC006D706C657465642077697468200A2534CF
:101BCC0064206572726F727320696E20777269740B
:101BDC006520706861736520616E64200A25346429
:101BEC00206572726F727320696E207265747269EF
:101BFC006576616C2070686173650A0A00746869A7
:101C0C0073206973207468652076616C7565207823
:101C1C00203D2025303264200A002D3E0025730023
:101C2C00456976696E640A00526F626572740A00C7
:081C3C0042656E64696B0A0049
:00000001FF
