:100000000C9438000C9455000C9455000C94550039
:100010000C9455000C9455000C9455000C9455000C
:100020000C9455000C9455000C9455000C945500FC
:100030000C9455000C9455000C9455000C945500EC
:100040000C9455000C9455000C9455000C945500DC
:100050000C9455000C9455000C9455000C945500CC
:100060000C9455000C9455000C9455000C945500BC
:1000700011241FBECFEFD4E0DEBFCDBF12E0A0E061
:10008000B1E0EEE1FEE002C005900D92AA36B107A4
:10009000D9F722E0AAE6B2E001C01D92A437B20768
:1000A000E1F70E9457000C940D070C9400008FE1BB
:1000B00090E00E94700085B7806885BF85B7826038
:1000C00085BF63E870E087E790E00E94140280B784
:1000D000806280BF0E947D0183E60E94B401089582
:1000E00090BD89B988E18AB98EE880BD0895CF9323
:1000F000C82F8A3019F48DE00E9477005D9BFECFF7
:10010000CCB9CF9108955F9BFECF8CB190E008955C
:10011000CF92DF92EF92FF920F931F93CF93DF93D3
:100120008CE091E00E9475020E9404027C010E9412
:100130000902C12CD12CC0E0D0E002E211E00E9403
:100140000402F601F85E808320812817A1F0992728
:100150009F938F931F922F93DF92CF921F930F93B2
:100160000E945F0221968DB79EB708960FB6F8944D
:100170009EBF0FBE8DBF9FEFC91AD90AC11488E078
:10018000D806E9F6C7010E94090200E010E0E12C60
:10019000F12C0F2EFBE5CF2EF1E0DF2EF02D0E948B
:1001A0000402F801F85E20812817B1F099279F9387
:1001B0008F931F922F931F930F93DF92CF920E94E2
:1001C0005F029FEFE91AF90A8DB79EB708960FB63E
:1001D000F8949EBF0FBE8DBF0F5F1F4F011598E0B3
:1001E0001907E9F6FF92EF92DF93CF9388E991E048
:1001F0009F938F930E945F020F900F900F900F902C
:100200000F900F90DF91CF911F910F91FF90EF9082
:10021000DF90CF90089581EF91E00E94750200E099
:1002200014E10F2EF7E0FF2EF02DC6E0D2E0F8012A
:10023000F082FFEF2FE781E0F15020408040E1F7AE
:1002400000C000C0F80180811F928F93DF93CF938D
:100250000E945F028FEF9FE7E4E081509040E04012
:10026000E1F700C000000F900F900F900F90DFCFCC
:10027000CEE1D2E00E946901182F0E946E01082F82
:100280000E947301F82E0E9478011F928F931F9293
:10029000FF921F920F931F921F93DF93CF930E94A1
:1002A0005F028DB79EB70A960FB6F8949EBF0FBE39
:1002B0008DBFE0CFE0910001F0910101808380E0EB
:1002C00090EF0197F1F7E0910001F0910101808139
:1002D000089586E090E00E945A01089587E090E03A
:1002E0000E945A01089584E090E00E945A01089506
:1002F00085E090E00E945A010895E0E0F0E18EEA86
:1003000080832FE986E891E0215080409040E1F71A
:1003100000C0000081EA80838AED808382E18083CF
:1003200088EC808388EA80838FE3808385ED8083F7
:1003300080E8808381E8808380E5808389ED808305
:1003400081E2808380E2808382E080838BED808302
:1003500080E380838DEA8083108284EA808386EA4A
:1003600080838FEA80830895E0E0F2E18083FECF0E
:100370008F929F92AF92BF92CF92DF92EF92FF92B5
:10038000CF93DF93EC01688179818A819B8161152C
:1003900071058105910521F464E279ED8BE597E023
:1003A0002DE133EF41E050E00E94730649015A010C
:1003B0009B01AC01A7EAB1E40E9492066B017C01AB
:1003C000ACEEB4EFA50194010E94A006DC01CB01C4
:1003D0008C0D9D1DAE1DBF1DB7FF03C00197A10968
:1003E000B04888839983AA83BB839F77DF91CF919D
:1003F000FF90EF90DF90CF90BF90AF909F908F9045
:1004000008950E94B801089582E091E00E94B80129
:100410000895A0E0B0E08093020190930301A093BF
:100420000401B093050108950F931F93CF93DF93B9
:10043000009731F46115710519F480E090E03AC03D
:100440008B01EC016EE070E081E090E00E947704A7
:10045000FC01892B91F380E883830115110571F06C
:100460001387028781E8838380916A0290916B02EF
:10047000892B21F4F0936B02E0936A022097C9F074
:10048000D187C08783818260838380916C02909141
:100490006D02892B71F4F0936D02E0936C028091F0
:1004A0006E0290916F02892B21F4F0936F02E0931A
:1004B0006E02CF01DF91CF911F910F910895A0E0BF
:1004C000B0E0E5E6F2E00C94B506AE014B5F5F4F9D
:1004D000FA0161917191AF0180916C0290916D026E
:1004E0000E94A502E2E00C94D1060F931F93CF93D4
:1004F000DF93E0916C02F0916D02238121FF1BC01C
:100500008C01D0E0C0E0F80181918F0160916C0214
:1005100070916D02DB011896ED91FC91199788237B
:1005200031F00995892B79F3DFEFCFEFECCF8AE03B
:100530000995892B19F08FEF9FEF02C08D2F9C2F0B
:10054000DF91CF911F910F910895ACE0B0E0EBEAFD
:10055000F2E00C94A5067C016B018A01FC01178274
:100560001682838181FFBDC1CE0101964C01F70146
:100570009381F60193FD859193FF81916F0188230B
:1005800009F4ABC1853239F493FD859193FF8191D4
:100590006F01853229F4B70190E00E94DD05E7CFB5
:1005A000512C312C20E02032A0F48B3269F030F451
:1005B000803259F0833269F420612CC08D3239F0D9
:1005C000803339F4216026C02260246023C0286073
:1005D00021C027FD27C030ED380F3A3078F426FFD0
:1005E00006C0FAE05F9E300D1124532E13C08AE03E
:1005F000389E300D1124332E20620CC08E3221F42F
:1006000026FD6BC1206406C08C3611F4206802C040
:10061000883641F4F60193FD859193FF81916F0136
:100620008111C1CF982F9F7D9554933028F40C5F92
:100630001F4FFFE3F9830DC0833631F0833771F02C
:10064000833509F05BC022C0F801808189830E5F89
:100650001F4F44244394512C540115C03801F2E03B
:100660006F0E711CF801A080B18026FF03C0652DBC
:1006700070E002C06FEF7FEFC5012C870E94D205AA
:100680002C0183012C852F77222E17C03801F2E030
:100690006F0E711CF801A080B18026FF03C0652D8C
:1006A00070E002C06FEF7FEFC5012C870E94C0058C
:1006B0002C012C852068222E830123FC1BC0832D56
:1006C00090E048165906B0F4B70180E290E00E942D
:1006D000DD053A94F4CFF50127FC859127FE819141
:1006E0005F01B70190E00E94DD0531103A94F1E01E
:1006F0004F1A51084114510471F7E5C0843611F0C6
:10070000893639F5F80127FF07C060817181828140
:1007100093810C5F1F4F08C060817181072E000C10
:10072000880B990B0E5F1F4F2F76722E97FF09C013
:1007300090958095709561957F4F8F4F9F4F206862
:10074000722E2AE030E0A4010E941506A82EA818F7
:1007500044C0853729F42F7EB22E2AE030E025C030
:10076000F22FF97FBF2E8F36C1F018F4883579F05B
:10077000B4C0803719F0883721F0AFC02F2F206127
:10078000B22EB4FE0DC08B2D8460B82E09C024FF9C
:100790000AC09F2F9660B92E06C028E030E005C041
:1007A00020E130E002C020E132E0F801B7FE07C0EE
:1007B00060817181828193810C5F1F4F06C06081CF
:1007C000718180E090E00E5F1F4FA4010E9415062A
:1007D000A82EA818FB2DFF777F2E76FE0BC0372D95
:1007E0003E7FA51450F474FE0AC072FC08C0372D79
:1007F0003E7E05C0BA2C372D03C0BA2C01C0B52CE3
:1008000034FF0DC0FE01EA0DF11D8081803311F42B
:10081000397E09C032FF06C0B394B39404C0832F5D
:10082000867809F0B39433FD13C030FF06C05A2C0C
:10083000B31418F4530C5B18B32CB31468F4B70159
:1008400080E290E03C870E94DD05B3943C85F5CFC3
:10085000B31410F43B1801C0312C34FF12C0B7019F
:1008600080E390E03C870E94DD053C8532FF17C0A5
:1008700031FD03C088E790E002C088E590E0B70151
:100880000CC0832F867859F031FF02C08BE201C083
:1008900080E237FD8DE2B70190E00E94DD05A514EE
:1008A00038F4B70180E390E00E94DD055A94F7CF59
:1008B000AA94F401EA0DF11D8081B70190E00E9435
:1008C000DD05A110F5CF332009F451CEB70180E248
:1008D00090E00E94DD053A94F6CFF701868197817A
:1008E00002C08FEF9FEF2C96E2E10C94C1060F93AC
:1008F0001F93CF93DF93869F8001879F100D969F54
:10090000100D1124C8010E949304EC01009729F0F6
:10091000A80160E070E00E94CB05CE01DF91CF918D
:100920001F910F910895CF93DF938230910510F4BA
:1009300082E090E0E0917202F091730220E030E0FA
:10094000C0E0D0E0309711F140815181481759073C
:10095000C0F04817590761F482819381209719F0FC
:100960009B838A832BC0909373028093720226C06C
:100970002115310519F04217530718F49A01BE01E9
:10098000DF01EF010280F381E02DDCCF211531057D
:1009900009F1281B390B2430310590F412968D9102
:1009A0009C9113976115710521F0FB01938382835C
:1009B00004C09093730280937202FD01329644C08A
:1009C000FD01E20FF31F81939193225031092D9382
:1009D0003C933AC02091700230917102232B41F474
:1009E0002091080130910901309371022093700227
:1009F00020910601309107012115310541F42DB7F1
:100A00003EB740910A0150910B01241B350BE09138
:100A10007002F0917102E217F307A0F42E1B3F0B56
:100A20002817390778F0AC014E5F5F4F2417350760
:100A300048F04E0F5F1F50937102409370028193F4
:100A4000919302C0E0E0F0E0CF01DF91CF910895F3
:100A50000F931F93CF93DF93009709F48CC0FC0191
:100A60003297138212820091720210917302011563
:100A7000110581F420813181820F931F2091700232
:100A8000309171022817390779F5F0937102E093DC
:100A9000700271C0D80140E050E0AE17BF0750F4BB
:100AA00012962D913C911397AD012115310509F155
:100AB000D901F3CF9D01DA013383228360817181F3
:100AC000860F971F8217930769F4EC0128813981FB
:100AD000260F371F2E5F3F4F318320838A819B81F2
:100AE00093838283452B29F4F0937302E09372027F
:100AF00042C01396FC93EE931297ED0149915991E0
:100B00009E01240F351FE217F30771F48081918154
:100B1000840F951F029611969C938E9382819381E8
:100B200013969C938E931297E0E0F0E0D801129612
:100B30008D919C911397009719F0F8018C01F6CFD5
:100B40008D919C9198012E5F3F4F820F931F2091B2
:100B50007002309171022817390769F4309729F42F
:100B6000109273021092720202C0138212821093CA
:100B7000710200937002DF91CF911F910F91089540
:100B8000FC010590615070400110D8F78095909558
:100B90008E0F9F1F0895DC0101C06D93415050409E
:100BA000E0F70895FC016150704001900110D8F702
:100BB000809590958E0F9F1F08950F931F93CF934D
:100BC000DF93FB01238121FD03C08FEF9FEF28C03E
:100BD00022FF16C046815781248135814217530771
:100BE00044F4A081B1819D012F5F3F4F3183208369
:100BF0008C93268137812F5F3F4F3783268310C028
:100C0000EB01092F182F0084F185E02D0995892B20
:100C1000E1F68E819F8101969F838E83812F902F95
:100C2000DF91CF911F910F910895FA01AA272830E3
:100C300051F1203181F1E8946F936E7F6E5F7F4FA9
:100C40008F4F9F4FAF4FB1E03ED0B4E03CD0670F25
:100C5000781F891F9A1FA11D680F791F8A1F911D78
:100C6000A11D6A0F711D811D911DA11D20D009F4C8
:100C700068943F912AE0269F11243019305D31930A
:100C8000DEF6CF010895462F4770405D4193B3E0F3
:100C90000FD0C9F7F6CF462F4F70405D4A3318F09A
:100CA000495D31FD4052419302D0A9F7EACFB4E04B
:100CB000A6959795879577956795BA95C9F7009703
:100CC0006105710508959B01AC010A2E06945795A4
:100CD000479537952795BA95C9F7620F731F841FFB
:100CE000951FA01D0895052E97FB1EF400940E94E9
:100CF0008A0657FD07D00E94DC0607FC03D04EF49D
:100D00000C948A0650954095309521953F4F4F4F52
:100D10005F4F089590958095709561957F4F8F4FA7
:100D20009F4F08950E94FE06A59F900DB49F900DC1
:100D3000A49F800D911D11240895B7FF0C94920675
:100D40000E949206821B930B08952F923F924F921E
:100D50005F926F927F928F929F92AF92BF92CF924B
:100D6000DF92EF92FF920F931F93CF93DF93CDB754
:100D7000DEB7CA1BDB0B0FB6F894DEBF0FBECDBFCC
:100D800009942A88398848885F846E847D848C849D
:100D90009B84AA84B984C884DF80EE80FD800C81A6
:100DA0001B81AA81B981CE0FD11D0FB6F894DEBF89
:100DB0000FBECDBFED010895A1E21A2EAA1BBB1BE9
:100DC000FD010DC0AA1FBB1FEE1FFF1FA217B30717
:100DD000E407F50720F0A21BB30BE40BF50B661F2D
:100DE000771F881F991F1A9469F7609570958095F1
:100DF00090959B01AC01BD01CF010895A29FB00168
:100E0000B39FC001A39F700D811D1124911DB29F3E
:0E0E1000700D811D1124911D0895F894FFCFDF
:100E1E00001401000000000074022000537461727F
:100E2E0074696E67205352414D20746573742E2E73
:100E3E002E00577269746520706861736520657243
:100E4E00726F723A206578745F72616D5B253464DF
:100E5E005D203D2025303258202873686F756C64F4
:100E6E002062652025303258290A00526574726955
:100E7E006576616C207068617365206572726F7241
:100E8E003A206578745F72616D5B2534645D203D38
:100E9E002025303258202873686F756C6420626587
:100EAE002025303258290A005352414D2074657363
:100EBE007420636F6D706C657465642077697468F7
:100ECE00200A253464206572726F727320696E2059
:100EDE00777269746520706861736520616E642035
:100EEE000A253464206572726F727320696E2072E7
:100EFE00657472696576616C2070686173650A0A43
:100F0E00005374617274696E6720414443207465A6
:100F1E0073742E2E2E004F7574707574206A6F794F
:100F2E00205B785D203D2025303258200A00746801
:100F3E006973206973207468652076616C756573BA
:100F4E002078203D20253032582079203D20253034
:100F5E003258204C5F736C69646572203D202530D9
:100F6E00325820616E6420525F736C696465722022
:0A0F7E003D2025303258200A000003
:00000001FF
