:100000000C9438000C9455000C9455000C94550039
:100010000C9455000C9455000C9455000C9455000C
:100020000C9455000C9455000C9455000C945500FC
:100030000C9455000C9455000C9455000C945500EC
:100040000C9455000C9455000C9455000C945500DC
:100050000C9455000C9455000C9455000C945500CC
:100060000C9455000C9455000C9455000C945500BC
:1000700011241FBECFEFD4E0DEBFCDBF12E0A0E061
:10008000B1E0EEE8F3E102C005900D92AE30B107A9
:10009000D9F722E0AEE0B2E001C01D92A032B20773
:1000A000E1F70E9457000C94C5090C9400008FE101
:1000B00090E00E94640067E770E08BE690E00E94A9
:1000C000CC040E94FF00089590BD89B988E18AB9E7
:1000D0008EE880BD0895CF93C82F8A3019F48DE043
:1000E0000E946B005D9BFECFCCB9CF9108955F9BC2
:1000F000FECF8CB190E00895CF92DF92EF92FF9205
:100100000F931F93CF93DF938CE091E00E942D0516
:100110000E94BC047C010E94C104C12CD12CC0E00F
:10012000D0E002E211E00E94BC04F601F85E808398
:1001300020812817A1F099279F938F931F922F93C7
:10014000DF92CF921F930F930E94170521968DB7D0
:100150009EB708960FB6F8949EBF0FBE8DBF9FEF57
:10016000C91AD90AC11488E0D806E9F6C7010E9465
:10017000C10400E010E0E12CF12C0F2EFBE5CF2EA6
:10018000F1E0DF2EF02D0E94BC04F801F85E208122
:100190002817B1F099279F938F931F922F931F9346
:1001A0000F93DF92CF920E9417059FEFE91AF90A89
:1001B0008DB79EB708960FB6F8949EBF0FBE8DBF41
:1001C0000F5F1F4F011598E01907E9F6FF92EF92B4
:1001D000DF93CF9388E991E09F938F930E94170557
:1001E0000F900F900F900F900F900F90DF91CF9185
:1001F0001F910F91FF90EF90DF90CF9008958FEFB8
:1002000084BB15BAA19AA29AA39AA99A08950E94AA
:100210003001C1EFD1E00E9451019F938F93DF9392
:10022000CF930E9417059FEF2FEF8DE19150204053
:100230008040E1F700C000000F900F900F900F90EA
:10024000EACFE0910001F0910101808380E090EF1E
:100250000197F1F7E0910001F0910101808108958B
:10026000EEE0F2E090E892838FEF80831182958335
:10027000838314820895089580911402882351F095
:1002800090911502891730F081E090E0089582E0A6
:1002900090E00895809115028111F9CF84E090E0FB
:1002A0000895CF92DF92EF92FF920F931F93CF9317
:1002B000DF9386E090E00E94210190E0009110021F
:1002C00010E0081719077CF5C0910E02D0E0BE01BE
:1002D000681B790B072E000C880B990B0E94770383
:1002E0006B017C01CE01801B910BBC01990F880B27
:1002F000990B0E9477039B01AC01C701B6010E94D4
:10030000CD029B01AC0160E070E080E89FE30E94B9
:10031000600220E030E048EC52E40E9403040E94B6
:100320003F03CB012FC0C0910F02D0E0BE01681B7C
:10033000790B072E000C880B990B0E9477036B0139
:100340007C01CE01801B910BBC01990F880B990B8E
:100350000E9477039B01AC01C701B6010E94CD0248
:100360009B01AC0160E070E080E89FE30E946002C6
:10037000905820E030E048EC52E40E9403040E94D0
:100380003F03CB01DF91CF911F910F91FF90EF9031
:10039000DF90CF900895CF92DF92EF92FF920F936C
:1003A0001F93CF93DF9387E090E00E94210190E0BC
:1003B0000091130210E0081719077CF5C091110293
:1003C000D0E0BE01681B790B072E000C880B990B3F
:1003D0000E9477036B017C01CE01801B910BBC0155
:1003E000990F880B990B0E9477039B01AC01C70101
:1003F000B6010E94CD029B01AC0160E070E080E894
:100400009FE30E94600220E030E048EC52E40E944A
:1004100003040E943F03CB012FC0C0911202D0E021
:10042000BE01681B790B072E000C880B990B0E94EC
:1004300077036B017C01CE01801B910BBC01990FEE
:10044000880B990B0E9477039B01AC01C701B60191
:100450000E94CD029B01AC0160E070E080E89FE368
:100460000E946002905820E030E048EC52E40E9484
:1004700003040E943F03CB01DF91CF911F910F91A5
:10048000FF90EF90DF90CF900895CF93DF930E947D
:100490005101C4E1D2E088830E94CB01898380911D
:1004A000140290911502DF91CF91089584E090E0BD
:1004B0000E942101089585E090E00E9421010895A5
:1004C0005058BB27AA270E9478020C94C9030E94A7
:1004D000BB0338F00E94C20320F039F49F3F19F4A7
:1004E00026F40C94B8030EF4E095E7FB0C94B203E9
:1004F000E92F0E94DA0358F3BA17620773078407DB
:10050000950720F079F4A6F50C94FC030EF4E09521
:100510000B2EBA2FA02D0B01B90190010C01CA01BD
:10052000A0011124FF27591B99F0593F50F4503E68
:1005300068F11A16F040A22F232F342F4427585F5A
:10054000F3CF469537952795A795F0405395C9F772
:100550007EF41F16BA0B620B730B840BBAF091502A
:10056000A1F0FF0FBB1F661F771F881FC2F70EC0C9
:10057000BA0F621F731F841F48F48795779567959C
:10058000B795F7959E3F08F0B0CF9395880F08F088
:100590009927EE0F9795879508950E94E1020C9494
:1005A000C9030E94C20358F00E94BB0340F029F423
:1005B0005F3F29F00C94B20351110C94FD030C948D
:1005C000B8030E94DA0368F39923B1F3552391F33A
:1005D000951B550BBB27AA2762177307840738F0B2
:1005E0009F5F5F4F220F331F441FAA1FA9F335D00F
:1005F0000E2E3AF0E0E832D091505040E695001CC3
:10060000CAF72BD0FE2F29D0660F771F881FBB1F7C
:10061000261737074807AB07B0E809F0BB0B802D5A
:10062000BF01FF2793585F4F3AF09E3F510578F086
:100630000C94B2030C94FD035F3FE4F3983ED4F3B3
:10064000869577956795B795F7959F5FC9F7880F5A
:10065000911D9695879597F90895E1E0660F771FAC
:10066000881FBB1F621773078407BA0720F0621B3D
:10067000730B840BBA0BEE1F88F7E09508950E9468
:1006800046036894B1110C94FD0308950E94E2039F
:1006900088F09F5798F0B92F9927B751B0F0E1F043
:1006A000660F771F881F991F1AF0BA95C9F714C0F3
:1006B000B13091F00E94FC03B1E008950C94FC036A
:1006C000672F782F8827B85F39F0B93FCCF386952C
:1006D00077956795B395D9F73EF490958095709589
:1006E00061957F4F8F4F9F4F0895E89409C097FB06
:1006F0003EF490958095709561957F4F8F4F9F4FF9
:100700009923A9F0F92F96E9BB279395F69587953C
:1007100077956795B795F111F8CFFAF4BB0F11F4FF
:1007200060FF1BC06F5F7F4F8F4F9F4F16C08823A6
:1007300011F096E911C0772321F09EE8872F762FDC
:1007400005C0662371F096E8862F70E060E02AF01D
:100750009A95660F771F881FDAF7880F9695879509
:1007600097F9089597F99F6780E870E060E0089531
:100770009FEF80EC089500240A94161617061806B9
:100780000906089500240A94121613061406050695
:100790000895092E0394000C11F4882352F0BB0F26
:1007A00040F4BF2B11F460FF04C06F5F7F4F8F4F89
:1007B0009F4F089557FD9058440F551F59F05F3FC4
:1007C00071F04795880F97FB991F61F09F3F79F073
:1007D00087950895121613061406551FF2CF4695F5
:1007E000F1DF08C0161617061806991FF1CF869577
:1007F0007105610508940895E894BB27662777275B
:10080000CB0197F908950E9416040C94C9030E9425
:10081000BB0338F00E94C20320F0952311F00C9422
:10082000B2030C94B80311240C94FD030E94DA0364
:1008300070F3959FC1F3950F50E0551F629FF00133
:10084000729FBB27F00DB11D639FAA27F00DB11D4C
:10085000AA1F649F6627B00DA11D661F829F2227D5
:10086000B00DA11D621F739FB00DA11D621F839F5C
:10087000A00D611D221F749F3327A00D611D231F32
:10088000849F600D211D822F762F6A2F11249F5780
:1008900050409AF0F1F088234AF0EE0FFF1FBB1F83
:1008A000661F771F881F91505040A9F79E3F510542
:1008B00080F00C94B2030C94FD035F3FE4F3983E88
:1008C000D4F3869577956795B795F795E7959F5FEC
:1008D000C1F7FE2B880F911D9695879597F908957E
:1008E0008F929F92AF92BF92CF92DF92EF92FF9240
:1008F000CF93DF93EC01688179818A819B816115B7
:1009000071058105910521F464E279ED8BE597E0AD
:100910002DE133EF41E050E00E942B0949015A01DB
:100920009B01AC01A7EAB1E40E944A096B017C017A
:10093000ACEEB4EFA50194010E945809DC01CB0193
:100940008C0D9D1DAE1DBF1DB7FF03C00197A109F2
:10095000B04888839983AA83BB839F77DF91CF9127
:10096000FF90EF90DF90CF90BF90AF909F908F90CF
:1009700008950E947004089582E091E00E9470043E
:100980000895A0E0B0E08093020190930301A0934A
:100990000401B093050108950F931F93CF93DF9344
:1009A000009731F46115710519F480E090E03AC0C8
:1009B0008B01EC016EE070E081E090E00E942F0777
:1009C000FC01892B91F380E883830115110571F0F7
:1009D0001387028781E88383809116029091170222
:1009E000892B21F4F0931702E09316022097C9F0A7
:1009F000D187C08783818260838380911802909120
:100A00001902892B71F4F0931902E0931802809176
:100A10001A0290911B02892B21F4F0931B02E093A0
:100A20001A02CF01DF91CF911F910F910895A0E09D
:100A3000B0E0EDE1F5E00C946D09AE014B5F5F4F66
:100A4000FA0161917191AF018091180290911902A0
:100A50000E945D05E2E00C9489090F931F93CF93E8
:100A6000DF93E0911802F0911902238121FF1BC04E
:100A70008C01D0E0C0E0F80181918F0160911802F3
:100A800070911902DB011896ED91FC91199788235A
:100A900031F00995892B79F3DFEFCFEFECCF8AE0C6
:100AA0000995892B19F08FEF9FEF02C08D2F9C2F96
:100AB000DF91CF911F910F910895ACE0B0E0E3E694
:100AC000F5E00C945D097C016B018A01FC01178241
:100AD0001682838181FFBDC1CE0101964C01F701D1
:100AE0009381F60193FD859193FF81916F01882396
:100AF00009F4ABC1853239F493FD859193FF81915F
:100B00006F01853229F4B70190E00E949508E7CF84
:100B1000512C312C20E02032A0F48B3269F030F4DB
:100B2000803259F0833269F420612CC08D3239F063
:100B3000803339F4216026C02260246023C02860FD
:100B400021C027FD27C030ED380F3A3078F426FF5A
:100B500006C0FAE05F9E300D1124532E13C08AE0C8
:100B6000389E300D1124332E20620CC08E3221F4B9
:100B700026FD6BC1206406C08C3611F4206802C0CB
:100B8000883641F4F60193FD859193FF81916F01C1
:100B90008111C1CF982F9F7D9554933028F40C5F1D
:100BA0001F4FFFE3F9830DC0833631F0833771F0B7
:100BB000833509F05BC022C0F801808189830E5F14
:100BC0001F4F44244394512C540115C03801F2E0C6
:100BD0006F0E711CF801A080B18026FF03C0652D47
:100BE00070E002C06FEF7FEFC5012C870E948A087A
:100BF0002C0183012C852F77222E17C03801F2E0BB
:100C00006F0E711CF801A080B18026FF03C0652D16
:100C100070E002C06FEF7FEFC5012C870E9478085B
:100C20002C012C852068222E830123FC1BC0832DE0
:100C300090E048165906B0F4B70180E290E00E94B7
:100C400095083A94F4CFF50127FC859127FE819110
:100C50005F01B70190E00E94950831103A94F1E0ED
:100C60004F1A51084114510471F7E5C0843611F050
:100C7000893639F5F80127FF07C0608171818281CB
:100C800093810C5F1F4F08C060817181072E000C9B
:100C9000880B990B0E5F1F4F2F76722E97FF09C09E
:100CA00090958095709561957F4F8F4F9F4F2068ED
:100CB000722E2AE030E0A4010E94CD08A82EA818C8
:100CC00044C0853729F42F7EB22E2AE030E025C0BB
:100CD000F22FF97FBF2E8F36C1F018F4883579F0E6
:100CE000B4C0803719F0883721F0AFC02F2F2061B2
:100CF000B22EB4FE0DC08B2D8460B82E09C024FF27
:100D00000AC09F2F9660B92E06C028E030E005C0CB
:100D100020E130E002C020E132E0F801B7FE07C078
:100D200060817181828193810C5F1F4F06C0608159
:100D3000718180E090E00E5F1F4FA4010E94CD08FA
:100D4000A82EA818FB2DFF777F2E76FE0BC0372D1F
:100D50003E7FA51450F474FE0AC072FC08C0372D03
:100D60003E7E05C0BA2C372D03C0BA2C01C0B52C6D
:100D700034FF0DC0FE01EA0DF11D8081803311F4B6
:100D8000397E09C032FF06C0B394B39404C0832FE8
:100D9000867809F0B39433FD13C030FF06C05A2C97
:100DA000B31418F4530C5B18B32CB31468F4B701E4
:100DB00080E290E03C870E949508B3943C85F5CF93
:100DC000B31410F43B1801C0312C34FF12C0B7012A
:100DD00080E390E03C870E9495083C8532FF17C075
:100DE00031FD03C088E790E002C088E590E0B701DC
:100DF0000CC0832F867859F031FF02C08BE201C00E
:100E000080E237FD8DE2B70190E00E949508A514BD
:100E100038F4B70180E390E00E9495085A94F7CF28
:100E2000AA94F401EA0DF11D8081B70190E00E94BF
:100E30009508A110F5CF332009F451CEB70180E217
:100E400090E00E9495083A94F6CFF7018681978149
:100E500002C08FEF9FEF2C96E2E10C9479090F937B
:100E60001F93CF93DF93869F8001879F100D969FDE
:100E7000100D1124C8010E944B07EC01009729F0C6
:100E8000A80160E070E00E948308CE01DF91CF915D
:100E90001F910F910895CF93DF938230910510F445
:100EA00082E090E0E0911E02F0911F0220E030E02D
:100EB000C0E0D0E0309711F14081518148175907C7
:100EC000C0F04817590761F482819381209719F087
:100ED0009B838A832BC090931F0280931E0226C09F
:100EE0002115310519F04217530718F49A01BE0174
:100EF000DF01EF010280F381E02DDCCF2115310508
:100F000009F1281B390B2430310590F412968D918C
:100F10009C9113976115710521F0FB0193838283E6
:100F200004C090931F0280931E02FD01329644C0BC
:100F3000FD01E20FF31F81939193225031092D930C
:100F40003C933AC020911C0230911D02232B41F4A6
:100F5000209108013091090130931D0220931C0259
:100F600020910601309107012115310541F42DB77B
:100F70003EB740910A0150910B01241B350BE091C3
:100F80001C02F0911D02E217F307A0F42E1B3F0B89
:100F90002817390778F0AC014E5F5F4F24173507EB
:100FA00048F04E0F5F1F50931D0240931C02819327
:100FB000919302C0E0E0F0E0CF01DF91CF9108957E
:100FC0000F931F93CF93DF93009709F48CC0FC011C
:100FD00032971382128200911E0210911F02011596
:100FE000110581F420813181820F931F20911C0211
:100FF00030911D022817390779F5F0931D02E0930F
:101000001C0271C0D80140E050E0AE17BF0750F499
:1010100012962D913C911397AD012115310509F1DF
:10102000D901F3CF9D01DA0133832283608171817D
:10103000860F971F8217930769F4EC012881398185
:10104000260F371F2E5F3F4F318320838A819B817C
:1010500093838283452B29F4F0931F02E0931E02B1
:1010600042C01396FC93EE931297ED01499159916A
:101070009E01240F351FE217F30771F480819181DF
:10108000840F951F029611969C938E938281938173
:1010900013969C938E931297E0E0F0E0D80112969D
:1010A0008D919C911397009719F0F8018C01F6CF60
:1010B0008D919C9198012E5F3F4F820F931F20913D
:1010C0001C0230911D022817390769F4309729F462
:1010D00010921F0210921E0202C0138212821093FD
:1010E0001D0200931C02DF91CF911F910F91089573
:1010F000FC010590615070400110D8F780959095E3
:101100008E0F9F1F0895DC0101C06D934150504028
:10111000E0F70895FC016150704001900110D8F78C
:10112000809590958E0F9F1F08950F931F93CF93D7
:10113000DF93FB01238121FD03C08FEF9FEF28C0C8
:1011400022FF16C0468157812481358142175307FB
:1011500044F4A081B1819D012F5F3F4F31832083F3
:101160008C93268137812F5F3F4F3783268310C0B2
:10117000EB01092F182F0084F185E02D0995892BAB
:10118000E1F68E819F8101969F838E83812F902F20
:10119000DF91CF911F910F910895FA01AA2728306E
:1011A00051F1203181F1E8946F936E7F6E5F7F4F34
:1011B0008F4F9F4FAF4FB1E03ED0B4E03CD0670FB0
:1011C000781F891F9A1FA11D680F791F8A1F911D03
:1011D000A11D6A0F711D811D911DA11D20D009F453
:1011E00068943F912AE0269F11243019305D319395
:1011F000DEF6CF010895462F4770405D4193B3E07E
:101200000FD0C9F7F6CF462F4F70405D4A3318F024
:10121000495D31FD4052419302D0A9F7EACFB4E0D5
:10122000A6959795879577956795BA95C9F700978D
:101230006105710508959B01AC010A2E069457952E
:10124000479537952795BA95C9F7620F731F841F85
:10125000951FA01D0895052E97FB1EF400940E9473
:10126000420957FD07D00E94940907FC03D04EF4B1
:101270000C94420950954095309521953F4F4F4F22
:101280005F4F089590958095709561957F4F8F4F32
:101290009F4F08950E94B609A59F900DB49F900D91
:1012A000A49F800D911D11240895B7FF0C944A0945
:1012B0000E944A09821B930B08952F923F924F92EE
:1012C0005F926F927F928F929F92AF92BF92CF92D6
:1012D000DF92EF92FF920F931F93CF93DF93CDB7DF
:1012E000DEB7CA1BDB0B0FB6F894DEBF0FBECDBF57
:1012F00009942A88398848885F846E847D848C8428
:101300009B84AA84B984C884DF80EE80FD800C8130
:101310001B81AA81B981CE0FD11D0FB6F894DEBF13
:101320000FBECDBFED010895A1E21A2EAA1BBB1B73
:10133000FD010DC0AA1FBB1FEE1FFF1FA217B307A1
:10134000E407F50720F0A21BB30BE40BF50B661FB7
:10135000771F881F991F1A9469F76095709580957B
:1013600090959B01AC01BD01CF010895A29FB001F2
:10137000B39FC001A39F700D811D1124911DB29FC9
:0E138000700D811D1124911D0895F894FFCF6A
:10138E00001401000000000020022000537461725E
:10139E0074696E67205352414D20746573742E2EFE
:1013AE002E005772697465207068617365206572CE
:1013BE00726F723A206578745F72616D5B2534646A
:1013CE005D203D2025303258202873686F756C647F
:1013DE002062652025303258290A005265747269E0
:1013EE006576616C207068617365206572726F72CC
:1013FE003A206578745F72616D5B2534645D203DC3
:10140E002025303258202873686F756C6420626511
:10141E002025303258290A005352414D20746573ED
:10142E007420636F6D706C65746564207769746881
:10143E00200A253464206572726F727320696E20E3
:10144E00777269746520706861736520616E6420BF
:10145E000A253464206572726F727320696E207271
:10146E00657472696576616C2070686173650A0ACD
:10147E000074686973206973207468652076616CE6
:0E148E0075652078203D2025303264200A004C
:00000001FF
